{
	"SimpleToken.sol": {
		"SimpleToken": {
			"abi": [
				{
					"inputs": [
						{
							"internalType": "string",
							"name": "getName",
							"type": "string"
						},
						{
							"internalType": "string",
							"name": "getSymbol",
							"type": "string"
						}
					],
					"stateMutability": "nonpayable",
					"type": "constructor"
				},
				{
					"anonymous": false,
					"inputs": [
						{
							"indexed": true,
							"internalType": "address",
							"name": "owner",
							"type": "address"
						},
						{
							"indexed": true,
							"internalType": "address",
							"name": "spender",
							"type": "address"
						},
						{
							"indexed": false,
							"internalType": "uint256",
							"name": "oldAmount",
							"type": "uint256"
						},
						{
							"indexed": false,
							"internalType": "uint256",
							"name": "amount",
							"type": "uint256"
						}
					],
					"name": "Approval",
					"type": "event"
				},
				{
					"anonymous": false,
					"inputs": [
						{
							"indexed": true,
							"internalType": "address",
							"name": "from",
							"type": "address"
						},
						{
							"indexed": true,
							"internalType": "address",
							"name": "to",
							"type": "address"
						},
						{
							"indexed": false,
							"internalType": "uint256",
							"name": "amount",
							"type": "uint256"
						}
					],
					"name": "Transfer",
					"type": "event"
				},
				{
					"anonymous": false,
					"inputs": [
						{
							"indexed": true,
							"internalType": "address",
							"name": "spender",
							"type": "address"
						},
						{
							"indexed": true,
							"internalType": "address",
							"name": "from",
							"type": "address"
						},
						{
							"indexed": true,
							"internalType": "address",
							"name": "to",
							"type": "address"
						},
						{
							"indexed": false,
							"internalType": "uint256",
							"name": "amount",
							"type": "uint256"
						}
					],
					"name": "Transfer",
					"type": "event"
				},
				{
					"inputs": [
						{
							"internalType": "address",
							"name": "",
							"type": "address"
						},
						{
							"internalType": "address",
							"name": "",
							"type": "address"
						}
					],
					"name": "_allowances",
					"outputs": [
						{
							"internalType": "uint256",
							"name": "",
							"type": "uint256"
						}
					],
					"stateMutability": "view",
					"type": "function"
				},
				{
					"inputs": [],
					"name": "_decimals",
					"outputs": [
						{
							"internalType": "uint8",
							"name": "",
							"type": "uint8"
						}
					],
					"stateMutability": "view",
					"type": "function"
				},
				{
					"inputs": [],
					"name": "_name",
					"outputs": [
						{
							"internalType": "string",
							"name": "",
							"type": "string"
						}
					],
					"stateMutability": "view",
					"type": "function"
				},
				{
					"inputs": [],
					"name": "_symbol",
					"outputs": [
						{
							"internalType": "string",
							"name": "",
							"type": "string"
						}
					],
					"stateMutability": "view",
					"type": "function"
				},
				{
					"inputs": [],
					"name": "_totalSupply",
					"outputs": [
						{
							"internalType": "uint256",
							"name": "",
							"type": "uint256"
						}
					],
					"stateMutability": "view",
					"type": "function"
				},
				{
					"inputs": [
						{
							"internalType": "address",
							"name": "owner",
							"type": "address"
						},
						{
							"internalType": "address",
							"name": "spender",
							"type": "address"
						}
					],
					"name": "allowance",
					"outputs": [
						{
							"internalType": "uint256",
							"name": "",
							"type": "uint256"
						}
					],
					"stateMutability": "view",
					"type": "function"
				},
				{
					"inputs": [
						{
							"internalType": "address",
							"name": "spender",
							"type": "address"
						},
						{
							"internalType": "uint256",
							"name": "amount",
							"type": "uint256"
						}
					],
					"name": "approve",
					"outputs": [
						{
							"internalType": "bool",
							"name": "",
							"type": "bool"
						}
					],
					"stateMutability": "nonpayable",
					"type": "function"
				},
				{
					"inputs": [
						{
							"internalType": "address",
							"name": "account",
							"type": "address"
						}
					],
					"name": "balanceOf",
					"outputs": [
						{
							"internalType": "uint256",
							"name": "",
							"type": "uint256"
						}
					],
					"stateMutability": "view",
					"type": "function"
				},
				{
					"inputs": [],
					"name": "decimals",
					"outputs": [
						{
							"internalType": "uint8",
							"name": "",
							"type": "uint8"
						}
					],
					"stateMutability": "view",
					"type": "function"
				},
				{
					"inputs": [],
					"name": "name",
					"outputs": [
						{
							"internalType": "string",
							"name": "",
							"type": "string"
						}
					],
					"stateMutability": "view",
					"type": "function"
				},
				{
					"inputs": [],
					"name": "symbol",
					"outputs": [
						{
							"internalType": "string",
							"name": "",
							"type": "string"
						}
					],
					"stateMutability": "view",
					"type": "function"
				},
				{
					"inputs": [],
					"name": "totalSupply",
					"outputs": [
						{
							"internalType": "uint256",
							"name": "",
							"type": "uint256"
						}
					],
					"stateMutability": "view",
					"type": "function"
				},
				{
					"inputs": [
						{
							"internalType": "address",
							"name": "recipient",
							"type": "address"
						},
						{
							"internalType": "uint256",
							"name": "amount",
							"type": "uint256"
						}
					],
					"name": "transfer",
					"outputs": [
						{
							"internalType": "bool",
							"name": "",
							"type": "bool"
						}
					],
					"stateMutability": "nonpayable",
					"type": "function"
				},
				{
					"inputs": [
						{
							"internalType": "address",
							"name": "sender",
							"type": "address"
						},
						{
							"internalType": "address",
							"name": "recipient",
							"type": "address"
						},
						{
							"internalType": "uint256",
							"name": "amount",
							"type": "uint256"
						}
					],
					"name": "transferFrom",
					"outputs": [
						{
							"internalType": "bool",
							"name": "",
							"type": "bool"
						}
					],
					"stateMutability": "nonpayable",
					"type": "function"
				}
			],
			"devdoc": {
				"kind": "dev",
				"methods": {},
				"version": 1
			},
			"evm": {
				"assembly": "    /* \"SimpleToken.sol\":861:4180  contract SimpleToken is ERC20Interface {... */\n  mstore(0x40, 0x80)\n    /* \"SimpleToken.sol\":1165:1184  1000000000000000000 */\n  0x0de0b6b3a7640000\n    /* \"SimpleToken.sol\":1146:1184  uint private E18 = 1000000000000000000 */\n  0x06\n  sstore\n    /* \"SimpleToken.sol\":1191:1432  constructor(string memory getName, string memory getSymbol) {... */\n  callvalue\n  dup1\n  iszero\n  tag_1\n  jumpi\n  0x00\n  dup1\n  revert\ntag_1:\n  pop\n  mload(0x40)\n  sub(codesize, bytecodeSize)\n  dup1\n  bytecodeSize\n  dup4\n  codecopy\n  dup2\n  dup2\n  add\n  0x40\n  mstore\n  dup2\n  add\n  swap1\n  tag_2\n  swap2\n  swap1\n  tag_3\n  jump\t// in\ntag_2:\n    /* \"SimpleToken.sol\":1269:1276  getName */\n  dup2\n    /* \"SimpleToken.sol\":1261:1266  _name */\n  0x03\n    /* \"SimpleToken.sol\":1261:1276  _name = getName */\n  swap1\n  dup1\n  mload\n  swap1\n  0x20\n  add\n  swap1\n  tag_6\n  swap3\n  swap2\n  swap1\n  tag_7\n  jump\t// in\ntag_6:\n  pop\n    /* \"SimpleToken.sol\":1296:1305  getSymbol */\n  dup1\n    /* \"SimpleToken.sol\":1286:1293  _symbol */\n  0x04\n    /* \"SimpleToken.sol\":1286:1305  _symbol = getSymbol */\n  swap1\n  dup1\n  mload\n  swap1\n  0x20\n  add\n  swap1\n  tag_8\n  swap3\n  swap2\n  swap1\n  tag_7\n  jump\t// in\ntag_8:\n  pop\n    /* \"SimpleToken.sol\":1327:1329  18 */\n  0x12\n    /* \"SimpleToken.sol\":1315:1324  _decimals */\n  0x05\n  0x00\n    /* \"SimpleToken.sol\":1315:1329  _decimals = 18 */\n  0x0100\n  exp\n  dup2\n  sload\n  dup2\n  0xff\n  mul\n  not\n  and\n  swap1\n  dup4\n  0xff\n  and\n  mul\n  or\n  swap1\n  sstore\n  pop\n    /* \"SimpleToken.sol\":1366:1369  E18 */\n  sload(0x06)\n    /* \"SimpleToken.sol\":1354:1363  100000000 */\n  0x05f5e100\n    /* \"SimpleToken.sol\":1354:1369  100000000 * E18 */\n  tag_9\n  swap2\n  swap1\n  tag_10\n  jump\t// in\ntag_9:\n    /* \"SimpleToken.sol\":1339:1351  _totalSupply */\n  0x02\n    /* \"SimpleToken.sol\":1339:1369  _totalSupply = 100000000 * E18 */\n  dup2\n  swap1\n  sstore\n  pop\n    /* \"SimpleToken.sol\":1403:1415  _totalSupply */\n  sload(0x02)\n    /* \"SimpleToken.sol\":1379:1388  _balances */\n  0x00\n    /* \"SimpleToken.sol\":1379:1400  _balances[msg.sender] */\n  dup1\n    /* \"SimpleToken.sol\":1389:1399  msg.sender */\n  caller\n    /* \"SimpleToken.sol\":1379:1400  _balances[msg.sender] */\n  0xffffffffffffffffffffffffffffffffffffffff\n  and\n  0xffffffffffffffffffffffffffffffffffffffff\n  and\n  dup2\n  mstore\n  0x20\n  add\n  swap1\n  dup2\n  mstore\n  0x20\n  add\n  0x00\n  keccak256\n    /* \"SimpleToken.sol\":1379:1415  _balances[msg.sender] = _totalSupply */\n  dup2\n  swap1\n  sstore\n  pop\n    /* \"SimpleToken.sol\":1191:1432  constructor(string memory getName, string memory getSymbol) {... */\n  pop\n  pop\n    /* \"SimpleToken.sol\":861:4180  contract SimpleToken is ERC20Interface {... */\n  jump(tag_11)\ntag_7:\n  dup3\n  dup1\n  sload\n  tag_12\n  swap1\n  tag_13\n  jump\t// in\ntag_12:\n  swap1\n  0x00\n  mstore\n  keccak256(0x00, 0x20)\n  swap1\n  0x1f\n  add\n  0x20\n  swap1\n  div\n  dup2\n  add\n  swap3\n  dup3\n  tag_15\n  jumpi\n  0x00\n  dup6\n  sstore\n  jump(tag_14)\ntag_15:\n  dup3\n  0x1f\n  lt\n  tag_16\n  jumpi\n  dup1\n  mload\n  not(0xff)\n  and\n  dup4\n  dup1\n  add\n  or\n  dup6\n  sstore\n  jump(tag_14)\ntag_16:\n  dup3\n  dup1\n  add\n  0x01\n  add\n  dup6\n  sstore\n  dup3\n  iszero\n  tag_14\n  jumpi\n  swap2\n  dup3\n  add\ntag_17:\n  dup3\n  dup2\n  gt\n  iszero\n  tag_18\n  jumpi\n  dup3\n  mload\n  dup3\n  sstore\n  swap2\n  0x20\n  add\n  swap2\n  swap1\n  0x01\n  add\n  swap1\n  jump(tag_17)\ntag_18:\ntag_14:\n  pop\n  swap1\n  pop\n  tag_19\n  swap2\n  swap1\n  tag_20\n  jump\t// in\ntag_19:\n  pop\n  swap1\n  jump\t// out\ntag_20:\ntag_21:\n  dup1\n  dup3\n  gt\n  iszero\n  tag_22\n  jumpi\n  0x00\n  dup2\n  0x00\n  swap1\n  sstore\n  pop\n  0x01\n  add\n  jump(tag_21)\ntag_22:\n  pop\n  swap1\n  jump\t// out\n    /* \"#utility.yul\":7:82   */\ntag_23:\n    /* \"#utility.yul\":40:46   */\n  0x00\n    /* \"#utility.yul\":73:75   */\n  0x40\n    /* \"#utility.yul\":67:76   */\n  mload\n    /* \"#utility.yul\":57:76   */\n  swap1\n  pop\n    /* \"#utility.yul\":7:82   */\n  swap1\n  jump\t// out\n    /* \"#utility.yul\":88:205   */\ntag_24:\n    /* \"#utility.yul\":197:198   */\n  0x00\n    /* \"#utility.yul\":194:195   */\n  dup1\n    /* \"#utility.yul\":187:199   */\n  revert\n    /* \"#utility.yul\":211:328   */\ntag_25:\n    /* \"#utility.yul\":320:321   */\n  0x00\n    /* \"#utility.yul\":317:318   */\n  dup1\n    /* \"#utility.yul\":310:322   */\n  revert\n    /* \"#utility.yul\":334:451   */\ntag_26:\n    /* \"#utility.yul\":443:444   */\n  0x00\n    /* \"#utility.yul\":440:441   */\n  dup1\n    /* \"#utility.yul\":433:445   */\n  revert\n    /* \"#utility.yul\":457:574   */\ntag_27:\n    /* \"#utility.yul\":566:567   */\n  0x00\n    /* \"#utility.yul\":563:564   */\n  dup1\n    /* \"#utility.yul\":556:568   */\n  revert\n    /* \"#utility.yul\":580:682   */\ntag_28:\n    /* \"#utility.yul\":621:627   */\n  0x00\n    /* \"#utility.yul\":672:674   */\n  0x1f\n    /* \"#utility.yul\":668:675   */\n  not\n    /* \"#utility.yul\":663:665   */\n  0x1f\n    /* \"#utility.yul\":656:661   */\n  dup4\n    /* \"#utility.yul\":652:666   */\n  add\n    /* \"#utility.yul\":648:676   */\n  and\n    /* \"#utility.yul\":638:676   */\n  swap1\n  pop\n    /* \"#utility.yul\":580:682   */\n  swap2\n  swap1\n  pop\n  jump\t// out\n    /* \"#utility.yul\":688:868   */\ntag_29:\n    /* \"#utility.yul\":736:813   */\n  0x4e487b7100000000000000000000000000000000000000000000000000000000\n    /* \"#utility.yul\":733:734   */\n  0x00\n    /* \"#utility.yul\":726:814   */\n  mstore\n    /* \"#utility.yul\":833:837   */\n  0x41\n    /* \"#utility.yul\":830:831   */\n  0x04\n    /* \"#utility.yul\":823:838   */\n  mstore\n    /* \"#utility.yul\":857:861   */\n  0x24\n    /* \"#utility.yul\":854:855   */\n  0x00\n    /* \"#utility.yul\":847:862   */\n  revert\n    /* \"#utility.yul\":874:1155   */\ntag_30:\n    /* \"#utility.yul\":957:984   */\n  tag_48\n    /* \"#utility.yul\":979:983   */\n  dup3\n    /* \"#utility.yul\":957:984   */\n  tag_28\n  jump\t// in\ntag_48:\n    /* \"#utility.yul\":949:955   */\n  dup2\n    /* \"#utility.yul\":945:985   */\n  add\n    /* \"#utility.yul\":1087:1093   */\n  dup2\n    /* \"#utility.yul\":1075:1085   */\n  dup2\n    /* \"#utility.yul\":1072:1094   */\n  lt\n    /* \"#utility.yul\":1051:1069   */\n  0xffffffffffffffff\n    /* \"#utility.yul\":1039:1049   */\n  dup3\n    /* \"#utility.yul\":1036:1070   */\n  gt\n    /* \"#utility.yul\":1033:1095   */\n  or\n    /* \"#utility.yul\":1030:1118   */\n  iszero\n  tag_49\n  jumpi\n    /* \"#utility.yul\":1098:1116   */\n  tag_50\n  tag_29\n  jump\t// in\ntag_50:\n    /* \"#utility.yul\":1030:1118   */\ntag_49:\n    /* \"#utility.yul\":1138:1148   */\n  dup1\n    /* \"#utility.yul\":1134:1136   */\n  0x40\n    /* \"#utility.yul\":1127:1149   */\n  mstore\n    /* \"#utility.yul\":917:1155   */\n  pop\n    /* \"#utility.yul\":874:1155   */\n  pop\n  pop\n  jump\t// out\n    /* \"#utility.yul\":1161:1290   */\ntag_31:\n    /* \"#utility.yul\":1195:1201   */\n  0x00\n    /* \"#utility.yul\":1222:1242   */\n  tag_52\n  tag_23\n  jump\t// in\ntag_52:\n    /* \"#utility.yul\":1212:1242   */\n  swap1\n  pop\n    /* \"#utility.yul\":1251:1284   */\n  tag_53\n    /* \"#utility.yul\":1279:1283   */\n  dup3\n    /* \"#utility.yul\":1271:1277   */\n  dup3\n    /* \"#utility.yul\":1251:1284   */\n  tag_30\n  jump\t// in\ntag_53:\n    /* \"#utility.yul\":1161:1290   */\n  swap2\n  swap1\n  pop\n  jump\t// out\n    /* \"#utility.yul\":1296:1604   */\ntag_32:\n    /* \"#utility.yul\":1358:1362   */\n  0x00\n    /* \"#utility.yul\":1448:1466   */\n  0xffffffffffffffff\n    /* \"#utility.yul\":1440:1446   */\n  dup3\n    /* \"#utility.yul\":1437:1467   */\n  gt\n    /* \"#utility.yul\":1434:1490   */\n  iszero\n  tag_55\n  jumpi\n    /* \"#utility.yul\":1470:1488   */\n  tag_56\n  tag_29\n  jump\t// in\ntag_56:\n    /* \"#utility.yul\":1434:1490   */\ntag_55:\n    /* \"#utility.yul\":1508:1537   */\n  tag_57\n    /* \"#utility.yul\":1530:1536   */\n  dup3\n    /* \"#utility.yul\":1508:1537   */\n  tag_28\n  jump\t// in\ntag_57:\n    /* \"#utility.yul\":1500:1537   */\n  swap1\n  pop\n    /* \"#utility.yul\":1592:1596   */\n  0x20\n    /* \"#utility.yul\":1586:1590   */\n  dup2\n    /* \"#utility.yul\":1582:1597   */\n  add\n    /* \"#utility.yul\":1574:1597   */\n  swap1\n  pop\n    /* \"#utility.yul\":1296:1604   */\n  swap2\n  swap1\n  pop\n  jump\t// out\n    /* \"#utility.yul\":1610:1917   */\ntag_33:\n    /* \"#utility.yul\":1678:1679   */\n  0x00\n    /* \"#utility.yul\":1688:1801   */\ntag_59:\n    /* \"#utility.yul\":1702:1708   */\n  dup4\n    /* \"#utility.yul\":1699:1700   */\n  dup2\n    /* \"#utility.yul\":1696:1709   */\n  lt\n    /* \"#utility.yul\":1688:1801   */\n  iszero\n  tag_61\n  jumpi\n    /* \"#utility.yul\":1787:1788   */\n  dup1\n    /* \"#utility.yul\":1782:1785   */\n  dup3\n    /* \"#utility.yul\":1778:1789   */\n  add\n    /* \"#utility.yul\":1772:1790   */\n  mload\n    /* \"#utility.yul\":1768:1769   */\n  dup2\n    /* \"#utility.yul\":1763:1766   */\n  dup5\n    /* \"#utility.yul\":1759:1770   */\n  add\n    /* \"#utility.yul\":1752:1791   */\n  mstore\n    /* \"#utility.yul\":1724:1726   */\n  0x20\n    /* \"#utility.yul\":1721:1722   */\n  dup2\n    /* \"#utility.yul\":1717:1727   */\n  add\n    /* \"#utility.yul\":1712:1727   */\n  swap1\n  pop\n    /* \"#utility.yul\":1688:1801   */\n  jump(tag_59)\ntag_61:\n    /* \"#utility.yul\":1819:1825   */\n  dup4\n    /* \"#utility.yul\":1816:1817   */\n  dup2\n    /* \"#utility.yul\":1813:1826   */\n  gt\n    /* \"#utility.yul\":1810:1911   */\n  iszero\n  tag_62\n  jumpi\n    /* \"#utility.yul\":1899:1900   */\n  0x00\n    /* \"#utility.yul\":1890:1896   */\n  dup5\n    /* \"#utility.yul\":1885:1888   */\n  dup5\n    /* \"#utility.yul\":1881:1897   */\n  add\n    /* \"#utility.yul\":1874:1901   */\n  mstore\n    /* \"#utility.yul\":1810:1911   */\ntag_62:\n    /* \"#utility.yul\":1659:1917   */\n  pop\n    /* \"#utility.yul\":1610:1917   */\n  pop\n  pop\n  pop\n  jump\t// out\n    /* \"#utility.yul\":1923:2344   */\ntag_34:\n    /* \"#utility.yul\":2012:2017   */\n  0x00\n    /* \"#utility.yul\":2037:2103   */\n  tag_64\n    /* \"#utility.yul\":2053:2102   */\n  tag_65\n    /* \"#utility.yul\":2095:2101   */\n  dup5\n    /* \"#utility.yul\":2053:2102   */\n  tag_32\n  jump\t// in\ntag_65:\n    /* \"#utility.yul\":2037:2103   */\n  tag_31\n  jump\t// in\ntag_64:\n    /* \"#utility.yul\":2028:2103   */\n  swap1\n  pop\n    /* \"#utility.yul\":2126:2132   */\n  dup3\n    /* \"#utility.yul\":2119:2124   */\n  dup2\n    /* \"#utility.yul\":2112:2133   */\n  mstore\n    /* \"#utility.yul\":2164:2168   */\n  0x20\n    /* \"#utility.yul\":2157:2162   */\n  dup2\n    /* \"#utility.yul\":2153:2169   */\n  add\n    /* \"#utility.yul\":2202:2205   */\n  dup5\n    /* \"#utility.yul\":2193:2199   */\n  dup5\n    /* \"#utility.yul\":2188:2191   */\n  dup5\n    /* \"#utility.yul\":2184:2200   */\n  add\n    /* \"#utility.yul\":2181:2206   */\n  gt\n    /* \"#utility.yul\":2178:2290   */\n  iszero\n  tag_66\n  jumpi\n    /* \"#utility.yul\":2209:2288   */\n  tag_67\n  tag_27\n  jump\t// in\ntag_67:\n    /* \"#utility.yul\":2178:2290   */\ntag_66:\n    /* \"#utility.yul\":2299:2338   */\n  tag_68\n    /* \"#utility.yul\":2331:2337   */\n  dup5\n    /* \"#utility.yul\":2326:2329   */\n  dup3\n    /* \"#utility.yul\":2321:2324   */\n  dup6\n    /* \"#utility.yul\":2299:2338   */\n  tag_33\n  jump\t// in\ntag_68:\n    /* \"#utility.yul\":2018:2344   */\n  pop\n    /* \"#utility.yul\":1923:2344   */\n  swap4\n  swap3\n  pop\n  pop\n  pop\n  jump\t// out\n    /* \"#utility.yul\":2364:2719   */\ntag_35:\n    /* \"#utility.yul\":2431:2436   */\n  0x00\n    /* \"#utility.yul\":2480:2483   */\n  dup3\n    /* \"#utility.yul\":2473:2477   */\n  0x1f\n    /* \"#utility.yul\":2465:2471   */\n  dup4\n    /* \"#utility.yul\":2461:2478   */\n  add\n    /* \"#utility.yul\":2457:2484   */\n  slt\n    /* \"#utility.yul\":2447:2569   */\n  tag_70\n  jumpi\n    /* \"#utility.yul\":2488:2567   */\n  tag_71\n  tag_26\n  jump\t// in\ntag_71:\n    /* \"#utility.yul\":2447:2569   */\ntag_70:\n    /* \"#utility.yul\":2598:2604   */\n  dup2\n    /* \"#utility.yul\":2592:2605   */\n  mload\n    /* \"#utility.yul\":2623:2713   */\n  tag_72\n    /* \"#utility.yul\":2709:2712   */\n  dup5\n    /* \"#utility.yul\":2701:2707   */\n  dup3\n    /* \"#utility.yul\":2694:2698   */\n  0x20\n    /* \"#utility.yul\":2686:2692   */\n  dup7\n    /* \"#utility.yul\":2682:2699   */\n  add\n    /* \"#utility.yul\":2623:2713   */\n  tag_34\n  jump\t// in\ntag_72:\n    /* \"#utility.yul\":2614:2713   */\n  swap2\n  pop\n    /* \"#utility.yul\":2437:2719   */\n  pop\n    /* \"#utility.yul\":2364:2719   */\n  swap3\n  swap2\n  pop\n  pop\n  jump\t// out\n    /* \"#utility.yul\":2725:3578   */\ntag_3:\n    /* \"#utility.yul\":2824:2830   */\n  0x00\n    /* \"#utility.yul\":2832:2838   */\n  dup1\n    /* \"#utility.yul\":2881:2883   */\n  0x40\n    /* \"#utility.yul\":2869:2878   */\n  dup4\n    /* \"#utility.yul\":2860:2867   */\n  dup6\n    /* \"#utility.yul\":2856:2879   */\n  sub\n    /* \"#utility.yul\":2852:2884   */\n  slt\n    /* \"#utility.yul\":2849:2968   */\n  iszero\n  tag_74\n  jumpi\n    /* \"#utility.yul\":2887:2966   */\n  tag_75\n  tag_24\n  jump\t// in\ntag_75:\n    /* \"#utility.yul\":2849:2968   */\ntag_74:\n    /* \"#utility.yul\":3028:3029   */\n  0x00\n    /* \"#utility.yul\":3017:3026   */\n  dup4\n    /* \"#utility.yul\":3013:3030   */\n  add\n    /* \"#utility.yul\":3007:3031   */\n  mload\n    /* \"#utility.yul\":3058:3076   */\n  0xffffffffffffffff\n    /* \"#utility.yul\":3050:3056   */\n  dup2\n    /* \"#utility.yul\":3047:3077   */\n  gt\n    /* \"#utility.yul\":3044:3161   */\n  iszero\n  tag_76\n  jumpi\n    /* \"#utility.yul\":3080:3159   */\n  tag_77\n  tag_25\n  jump\t// in\ntag_77:\n    /* \"#utility.yul\":3044:3161   */\ntag_76:\n    /* \"#utility.yul\":3185:3259   */\n  tag_78\n    /* \"#utility.yul\":3251:3258   */\n  dup6\n    /* \"#utility.yul\":3242:3248   */\n  dup3\n    /* \"#utility.yul\":3231:3240   */\n  dup7\n    /* \"#utility.yul\":3227:3249   */\n  add\n    /* \"#utility.yul\":3185:3259   */\n  tag_35\n  jump\t// in\ntag_78:\n    /* \"#utility.yul\":3175:3259   */\n  swap3\n  pop\n    /* \"#utility.yul\":2978:3269   */\n  pop\n    /* \"#utility.yul\":3329:3331   */\n  0x20\n    /* \"#utility.yul\":3318:3327   */\n  dup4\n    /* \"#utility.yul\":3314:3332   */\n  add\n    /* \"#utility.yul\":3308:3333   */\n  mload\n    /* \"#utility.yul\":3360:3378   */\n  0xffffffffffffffff\n    /* \"#utility.yul\":3352:3358   */\n  dup2\n    /* \"#utility.yul\":3349:3379   */\n  gt\n    /* \"#utility.yul\":3346:3463   */\n  iszero\n  tag_79\n  jumpi\n    /* \"#utility.yul\":3382:3461   */\n  tag_80\n  tag_25\n  jump\t// in\ntag_80:\n    /* \"#utility.yul\":3346:3463   */\ntag_79:\n    /* \"#utility.yul\":3487:3561   */\n  tag_81\n    /* \"#utility.yul\":3553:3560   */\n  dup6\n    /* \"#utility.yul\":3544:3550   */\n  dup3\n    /* \"#utility.yul\":3533:3542   */\n  dup7\n    /* \"#utility.yul\":3529:3551   */\n  add\n    /* \"#utility.yul\":3487:3561   */\n  tag_35\n  jump\t// in\ntag_81:\n    /* \"#utility.yul\":3477:3561   */\n  swap2\n  pop\n    /* \"#utility.yul\":3279:3571   */\n  pop\n    /* \"#utility.yul\":2725:3578   */\n  swap3\n  pop\n  swap3\n  swap1\n  pop\n  jump\t// out\n    /* \"#utility.yul\":3584:3661   */\ntag_36:\n    /* \"#utility.yul\":3621:3628   */\n  0x00\n    /* \"#utility.yul\":3650:3655   */\n  dup2\n    /* \"#utility.yul\":3639:3655   */\n  swap1\n  pop\n    /* \"#utility.yul\":3584:3661   */\n  swap2\n  swap1\n  pop\n  jump\t// out\n    /* \"#utility.yul\":3667:3847   */\ntag_37:\n    /* \"#utility.yul\":3715:3792   */\n  0x4e487b7100000000000000000000000000000000000000000000000000000000\n    /* \"#utility.yul\":3712:3713   */\n  0x00\n    /* \"#utility.yul\":3705:3793   */\n  mstore\n    /* \"#utility.yul\":3812:3816   */\n  0x11\n    /* \"#utility.yul\":3809:3810   */\n  0x04\n    /* \"#utility.yul\":3802:3817   */\n  mstore\n    /* \"#utility.yul\":3836:3840   */\n  0x24\n    /* \"#utility.yul\":3833:3834   */\n  0x00\n    /* \"#utility.yul\":3826:3841   */\n  revert\n    /* \"#utility.yul\":3853:4201   */\ntag_10:\n    /* \"#utility.yul\":3893:3900   */\n  0x00\n    /* \"#utility.yul\":3916:3936   */\n  tag_85\n    /* \"#utility.yul\":3934:3935   */\n  dup3\n    /* \"#utility.yul\":3916:3936   */\n  tag_36\n  jump\t// in\ntag_85:\n    /* \"#utility.yul\":3911:3936   */\n  swap2\n  pop\n    /* \"#utility.yul\":3950:3970   */\n  tag_86\n    /* \"#utility.yul\":3968:3969   */\n  dup4\n    /* \"#utility.yul\":3950:3970   */\n  tag_36\n  jump\t// in\ntag_86:\n    /* \"#utility.yul\":3945:3970   */\n  swap3\n  pop\n    /* \"#utility.yul\":4138:4139   */\n  dup2\n    /* \"#utility.yul\":4070:4136   */\n  0xffffffffffffffffffffffffffffffffffffffffffffffffffffffffffffffff\n    /* \"#utility.yul\":4066:4140   */\n  div\n    /* \"#utility.yul\":4063:4064   */\n  dup4\n    /* \"#utility.yul\":4060:4141   */\n  gt\n    /* \"#utility.yul\":4055:4056   */\n  dup3\n    /* \"#utility.yul\":4048:4057   */\n  iszero\n    /* \"#utility.yul\":4041:4058   */\n  iszero\n    /* \"#utility.yul\":4037:4142   */\n  and\n    /* \"#utility.yul\":4034:4165   */\n  iszero\n  tag_87\n  jumpi\n    /* \"#utility.yul\":4145:4163   */\n  tag_88\n  tag_37\n  jump\t// in\ntag_88:\n    /* \"#utility.yul\":4034:4165   */\ntag_87:\n    /* \"#utility.yul\":4193:4194   */\n  dup3\n    /* \"#utility.yul\":4190:4191   */\n  dup3\n    /* \"#utility.yul\":4186:4195   */\n  mul\n    /* \"#utility.yul\":4175:4195   */\n  swap1\n  pop\n    /* \"#utility.yul\":3853:4201   */\n  swap3\n  swap2\n  pop\n  pop\n  jump\t// out\n    /* \"#utility.yul\":4207:4387   */\ntag_38:\n    /* \"#utility.yul\":4255:4332   */\n  0x4e487b7100000000000000000000000000000000000000000000000000000000\n    /* \"#utility.yul\":4252:4253   */\n  0x00\n    /* \"#utility.yul\":4245:4333   */\n  mstore\n    /* \"#utility.yul\":4352:4356   */\n  0x22\n    /* \"#utility.yul\":4349:4350   */\n  0x04\n    /* \"#utility.yul\":4342:4357   */\n  mstore\n    /* \"#utility.yul\":4376:4380   */\n  0x24\n    /* \"#utility.yul\":4373:4374   */\n  0x00\n    /* \"#utility.yul\":4366:4381   */\n  revert\n    /* \"#utility.yul\":4393:4713   */\ntag_13:\n    /* \"#utility.yul\":4437:4443   */\n  0x00\n    /* \"#utility.yul\":4474:4475   */\n  0x02\n    /* \"#utility.yul\":4468:4472   */\n  dup3\n    /* \"#utility.yul\":4464:4476   */\n  div\n    /* \"#utility.yul\":4454:4476   */\n  swap1\n  pop\n    /* \"#utility.yul\":4521:4522   */\n  0x01\n    /* \"#utility.yul\":4515:4519   */\n  dup3\n    /* \"#utility.yul\":4511:4523   */\n  and\n    /* \"#utility.yul\":4542:4560   */\n  dup1\n    /* \"#utility.yul\":4532:4613   */\n  tag_91\n  jumpi\n    /* \"#utility.yul\":4598:4602   */\n  0x7f\n    /* \"#utility.yul\":4590:4596   */\n  dup3\n    /* \"#utility.yul\":4586:4603   */\n  and\n    /* \"#utility.yul\":4576:4603   */\n  swap2\n  pop\n    /* \"#utility.yul\":4532:4613   */\ntag_91:\n    /* \"#utility.yul\":4660:4662   */\n  0x20\n    /* \"#utility.yul\":4652:4658   */\n  dup3\n    /* \"#utility.yul\":4649:4663   */\n  lt\n    /* \"#utility.yul\":4629:4647   */\n  dup2\n    /* \"#utility.yul\":4626:4664   */\n  eq\n    /* \"#utility.yul\":4623:4707   */\n  iszero\n  tag_92\n  jumpi\n    /* \"#utility.yul\":4679:4697   */\n  tag_93\n  tag_38\n  jump\t// in\ntag_93:\n    /* \"#utility.yul\":4623:4707   */\ntag_92:\n    /* \"#utility.yul\":4444:4713   */\n  pop\n    /* \"#utility.yul\":4393:4713   */\n  swap2\n  swap1\n  pop\n  jump\t// out\n    /* \"SimpleToken.sol\":861:4180  contract SimpleToken is ERC20Interface {... */\ntag_11:\n  dataSize(sub_0)\n  dup1\n  dataOffset(sub_0)\n  0x00\n  codecopy\n  0x00\n  return\nstop\n\nsub_0: assembly {\n        /* \"SimpleToken.sol\":861:4180  contract SimpleToken is ERC20Interface {... */\n      mstore(0x40, 0x80)\n      callvalue\n      dup1\n      iszero\n      tag_1\n      jumpi\n      0x00\n      dup1\n      revert\n    tag_1:\n      pop\n      jumpi(tag_2, lt(calldatasize, 0x04))\n      shr(0xe0, calldataload(0x00))\n      dup1\n      0x3eaaf86b\n      gt\n      tag_17\n      jumpi\n      dup1\n      0xa9059cbb\n      gt\n      tag_18\n      jumpi\n      dup1\n      0xa9059cbb\n      eq\n      tag_13\n      jumpi\n      dup1\n      0xb09f1266\n      eq\n      tag_14\n      jumpi\n      dup1\n      0xd28d8852\n      eq\n      tag_15\n      jumpi\n      dup1\n      0xdd62ed3e\n      eq\n      tag_16\n      jumpi\n      jump(tag_2)\n    tag_18:\n      dup1\n      0x3eaaf86b\n      eq\n      tag_10\n      jumpi\n      dup1\n      0x70a08231\n      eq\n      tag_11\n      jumpi\n      dup1\n      0x95d89b41\n      eq\n      tag_12\n      jumpi\n      jump(tag_2)\n    tag_17:\n      dup1\n      0x18160ddd\n      gt\n      tag_19\n      jumpi\n      dup1\n      0x18160ddd\n      eq\n      tag_6\n      jumpi\n      dup1\n      0x23b872dd\n      eq\n      tag_7\n      jumpi\n      dup1\n      0x313ce567\n      eq\n      tag_8\n      jumpi\n      dup1\n      0x32424aa3\n      eq\n      tag_9\n      jumpi\n      jump(tag_2)\n    tag_19:\n      dup1\n      0x024c2ddd\n      eq\n      tag_3\n      jumpi\n      dup1\n      0x06fdde03\n      eq\n      tag_4\n      jumpi\n      dup1\n      0x095ea7b3\n      eq\n      tag_5\n      jumpi\n    tag_2:\n      0x00\n      dup1\n      revert\n        /* \"SimpleToken.sol\":958:1026  mapping (address => mapping (address => uint256)) public _allowances */\n    tag_3:\n      tag_20\n      0x04\n      dup1\n      calldatasize\n      sub\n      dup2\n      add\n      swap1\n      tag_21\n      swap2\n      swap1\n      tag_22\n      jump\t// in\n    tag_21:\n      tag_23\n      jump\t// in\n    tag_20:\n      mload(0x40)\n      tag_24\n      swap2\n      swap1\n      tag_25\n      jump\t// in\n    tag_24:\n      mload(0x40)\n      dup1\n      swap2\n      sub\n      swap1\n      return\n        /* \"SimpleToken.sol\":1438:1519  function name() public view returns (string memory) {... */\n    tag_4:\n      tag_26\n      tag_27\n      jump\t// in\n    tag_26:\n      mload(0x40)\n      tag_28\n      swap2\n      swap1\n      tag_29\n      jump\t// in\n    tag_28:\n      mload(0x40)\n      dup1\n      swap2\n      sub\n      swap1\n      return\n        /* \"SimpleToken.sol\":2326:2714  function approve(address spender, uint amount) external virtual override returns (bool) {... */\n    tag_5:\n      tag_30\n      0x04\n      dup1\n      calldatasize\n      sub\n      dup2\n      add\n      swap1\n      tag_31\n      swap2\n      swap1\n      tag_32\n      jump\t// in\n    tag_31:\n      tag_33\n      jump\t// in\n    tag_30:\n      mload(0x40)\n      tag_34\n      swap2\n      swap1\n      tag_35\n      jump\t// in\n    tag_34:\n      mload(0x40)\n      dup1\n      swap2\n      sub\n      swap1\n      return\n        /* \"SimpleToken.sol\":1703:1811  function totalSupply() external view virtual override returns (uint256) {... */\n    tag_6:\n      tag_36\n      tag_37\n      jump\t// in\n    tag_36:\n      mload(0x40)\n      tag_38\n      swap2\n      swap1\n      tag_25\n      jump\t// in\n    tag_38:\n      mload(0x40)\n      dup1\n      swap2\n      sub\n      swap1\n      return\n        /* \"SimpleToken.sol\":2720:3210  function transferFrom(address sender, address recipient, uint256 amount) external virtual override returns (bool) {... */\n    tag_7:\n      tag_39\n      0x04\n      dup1\n      calldatasize\n      sub\n      dup2\n      add\n      swap1\n      tag_40\n      swap2\n      swap1\n      tag_41\n      jump\t// in\n    tag_40:\n      tag_42\n      jump\t// in\n    tag_39:\n      mload(0x40)\n      tag_43\n      swap2\n      swap1\n      tag_35\n      jump\t// in\n    tag_43:\n      mload(0x40)\n      dup1\n      swap2\n      sub\n      swap1\n      return\n        /* \"SimpleToken.sol\":1616:1697  function decimals() public view returns (uint8) {... */\n    tag_8:\n      tag_44\n      tag_45\n      jump\t// in\n    tag_44:\n      mload(0x40)\n      tag_46\n      swap2\n      swap1\n      tag_47\n      jump\t// in\n    tag_46:\n      mload(0x40)\n      dup1\n      swap2\n      sub\n      swap1\n      return\n        /* \"SimpleToken.sol\":1118:1140  uint8 public _decimals */\n    tag_9:\n      tag_48\n      tag_49\n      jump\t// in\n    tag_48:\n      mload(0x40)\n      tag_50\n      swap2\n      swap1\n      tag_47\n      jump\t// in\n    tag_50:\n      mload(0x40)\n      dup1\n      swap2\n      sub\n      swap1\n      return\n        /* \"SimpleToken.sol\":1033:1060  uint256 public _totalSupply */\n    tag_10:\n      tag_51\n      tag_52\n      jump\t// in\n    tag_51:\n      mload(0x40)\n      tag_53\n      swap2\n      swap1\n      tag_25\n      jump\t// in\n    tag_53:\n      mload(0x40)\n      dup1\n      swap2\n      sub\n      swap1\n      return\n        /* \"SimpleToken.sol\":1817:1944  function balanceOf(address account) external view virtual override returns (uint256) {... */\n    tag_11:\n      tag_54\n      0x04\n      dup1\n      calldatasize\n      sub\n      dup2\n      add\n      swap1\n      tag_55\n      swap2\n      swap1\n      tag_56\n      jump\t// in\n    tag_55:\n      tag_57\n      jump\t// in\n    tag_54:\n      mload(0x40)\n      tag_58\n      swap2\n      swap1\n      tag_25\n      jump\t// in\n    tag_58:\n      mload(0x40)\n      dup1\n      swap2\n      sub\n      swap1\n      return\n        /* \"SimpleToken.sol\":1525:1610  function symbol() public view returns (string memory) {... */\n    tag_12:\n      tag_59\n      tag_60\n      jump\t// in\n    tag_59:\n      mload(0x40)\n      tag_61\n      swap2\n      swap1\n      tag_29\n      jump\t// in\n    tag_61:\n      mload(0x40)\n      dup1\n      swap2\n      sub\n      swap1\n      return\n        /* \"SimpleToken.sol\":1950:2171  function transfer(address recipient, uint amount) public virtual override returns (bool) {... */\n    tag_13:\n      tag_62\n      0x04\n      dup1\n      calldatasize\n      sub\n      dup2\n      add\n      swap1\n      tag_63\n      swap2\n      swap1\n      tag_32\n      jump\t// in\n    tag_63:\n      tag_64\n      jump\t// in\n    tag_62:\n      mload(0x40)\n      tag_65\n      swap2\n      swap1\n      tag_35\n      jump\t// in\n    tag_65:\n      mload(0x40)\n      dup1\n      swap2\n      sub\n      swap1\n      return\n        /* \"SimpleToken.sol\":1091:1112  string public _symbol */\n    tag_14:\n      tag_66\n      tag_67\n      jump\t// in\n    tag_66:\n      mload(0x40)\n      tag_68\n      swap2\n      swap1\n      tag_29\n      jump\t// in\n    tag_68:\n      mload(0x40)\n      dup1\n      swap2\n      sub\n      swap1\n      return\n        /* \"SimpleToken.sol\":1066:1085  string public _name */\n    tag_15:\n      tag_69\n      tag_70\n      jump\t// in\n    tag_69:\n      mload(0x40)\n      tag_71\n      swap2\n      swap1\n      tag_29\n      jump\t// in\n    tag_71:\n      mload(0x40)\n      dup1\n      swap2\n      sub\n      swap1\n      return\n        /* \"SimpleToken.sol\":2177:2320  function allowance(address owner, address spender) external view override returns (uint256) {... */\n    tag_16:\n      tag_72\n      0x04\n      dup1\n      calldatasize\n      sub\n      dup2\n      add\n      swap1\n      tag_73\n      swap2\n      swap1\n      tag_22\n      jump\t// in\n    tag_73:\n      tag_74\n      jump\t// in\n    tag_72:\n      mload(0x40)\n      tag_75\n      swap2\n      swap1\n      tag_25\n      jump\t// in\n    tag_75:\n      mload(0x40)\n      dup1\n      swap2\n      sub\n      swap1\n      return\n        /* \"SimpleToken.sol\":958:1026  mapping (address => mapping (address => uint256)) public _allowances */\n    tag_23:\n      mstore(0x20, 0x01)\n      dup2\n      0x00\n      mstore\n      mstore(0x20, keccak256(0x00, 0x40))\n      dup1\n      0x00\n      mstore\n      keccak256(0x00, 0x40)\n      0x00\n      swap2\n      pop\n      swap2\n      pop\n      pop\n      sload\n      dup2\n      jump\t// out\n        /* \"SimpleToken.sol\":1438:1519  function name() public view returns (string memory) {... */\n    tag_27:\n        /* \"SimpleToken.sol\":1475:1488  string memory */\n      0x60\n        /* \"SimpleToken.sol\":1507:1512  _name */\n      0x03\n        /* \"SimpleToken.sol\":1500:1512  return _name */\n      dup1\n      sload\n      tag_77\n      swap1\n      tag_78\n      jump\t// in\n    tag_77:\n      dup1\n      0x1f\n      add\n      0x20\n      dup1\n      swap2\n      div\n      mul\n      0x20\n      add\n      mload(0x40)\n      swap1\n      dup2\n      add\n      0x40\n      mstore\n      dup1\n      swap3\n      swap2\n      swap1\n      dup2\n      dup2\n      mstore\n      0x20\n      add\n      dup3\n      dup1\n      sload\n      tag_79\n      swap1\n      tag_78\n      jump\t// in\n    tag_79:\n      dup1\n      iszero\n      tag_80\n      jumpi\n      dup1\n      0x1f\n      lt\n      tag_81\n      jumpi\n      0x0100\n      dup1\n      dup4\n      sload\n      div\n      mul\n      dup4\n      mstore\n      swap2\n      0x20\n      add\n      swap2\n      jump(tag_80)\n    tag_81:\n      dup3\n      add\n      swap2\n      swap1\n      0x00\n      mstore\n      keccak256(0x00, 0x20)\n      swap1\n    tag_82:\n      dup2\n      sload\n      dup2\n      mstore\n      swap1\n      0x01\n      add\n      swap1\n      0x20\n      add\n      dup1\n      dup4\n      gt\n      tag_82\n      jumpi\n      dup3\n      swap1\n      sub\n      0x1f\n      and\n      dup3\n      add\n      swap2\n    tag_80:\n      pop\n      pop\n      pop\n      pop\n      pop\n      swap1\n      pop\n        /* \"SimpleToken.sol\":1438:1519  function name() public view returns (string memory) {... */\n      swap1\n      jump\t// out\n        /* \"SimpleToken.sol\":2326:2714  function approve(address spender, uint amount) external virtual override returns (bool) {... */\n    tag_33:\n        /* \"SimpleToken.sol\":2408:2412  bool */\n      0x00\n        /* \"SimpleToken.sol\":2424:2448  uint256 currentAllowance */\n      dup1\n        /* \"SimpleToken.sol\":2451:2462  _allowances */\n      0x01\n        /* \"SimpleToken.sol\":2451:2474  _allowances[msg.sender] */\n      0x00\n        /* \"SimpleToken.sol\":2463:2473  msg.sender */\n      caller\n        /* \"SimpleToken.sol\":2451:2474  _allowances[msg.sender] */\n      0xffffffffffffffffffffffffffffffffffffffff\n      and\n      0xffffffffffffffffffffffffffffffffffffffff\n      and\n      dup2\n      mstore\n      0x20\n      add\n      swap1\n      dup2\n      mstore\n      0x20\n      add\n      0x00\n      keccak256\n        /* \"SimpleToken.sol\":2451:2483  _allowances[msg.sender][spender] */\n      0x00\n        /* \"SimpleToken.sol\":2475:2482  spender */\n      dup6\n        /* \"SimpleToken.sol\":2451:2483  _allowances[msg.sender][spender] */\n      0xffffffffffffffffffffffffffffffffffffffff\n      and\n      0xffffffffffffffffffffffffffffffffffffffff\n      and\n      dup2\n      mstore\n      0x20\n      add\n      swap1\n      dup2\n      mstore\n      0x20\n      add\n      0x00\n      keccak256\n      sload\n        /* \"SimpleToken.sol\":2424:2483  uint256 currentAllowance = _allowances[msg.sender][spender] */\n      swap1\n      pop\n        /* \"SimpleToken.sol\":2528:2534  amount */\n      dup3\n        /* \"SimpleToken.sol\":2503:2512  _balances */\n      0x00\n        /* \"SimpleToken.sol\":2503:2524  _balances[msg.sender] */\n      dup1\n        /* \"SimpleToken.sol\":2513:2523  msg.sender */\n      caller\n        /* \"SimpleToken.sol\":2503:2524  _balances[msg.sender] */\n      0xffffffffffffffffffffffffffffffffffffffff\n      and\n      0xffffffffffffffffffffffffffffffffffffffff\n      and\n      dup2\n      mstore\n      0x20\n      add\n      swap1\n      dup2\n      mstore\n      0x20\n      add\n      0x00\n      keccak256\n      sload\n        /* \"SimpleToken.sol\":2503:2534  _balances[msg.sender] >= amount */\n      lt\n      iszero\n        /* \"SimpleToken.sol\":2495:2621  require(_balances[msg.sender] >= amount,\"ERC20: The amount to be transferred exceeds the amount of tokens held by the owner.\") */\n      tag_84\n      jumpi\n      mload(0x40)\n      0x08c379a000000000000000000000000000000000000000000000000000000000\n      dup2\n      mstore\n      0x04\n      add\n      tag_85\n      swap1\n      tag_86\n      jump\t// in\n    tag_85:\n      mload(0x40)\n      dup1\n      swap2\n      sub\n      swap1\n      revert\n    tag_84:\n        /* \"SimpleToken.sol\":2631:2686  _approve(msg.sender, spender, currentAllowance, amount) */\n      tag_87\n        /* \"SimpleToken.sol\":2640:2650  msg.sender */\n      caller\n        /* \"SimpleToken.sol\":2652:2659  spender */\n      dup6\n        /* \"SimpleToken.sol\":2661:2677  currentAllowance */\n      dup4\n        /* \"SimpleToken.sol\":2679:2685  amount */\n      dup7\n        /* \"SimpleToken.sol\":2631:2639  _approve */\n      tag_88\n        /* \"SimpleToken.sol\":2631:2686  _approve(msg.sender, spender, currentAllowance, amount) */\n      jump\t// in\n    tag_87:\n        /* \"SimpleToken.sol\":2703:2707  true */\n      0x01\n        /* \"SimpleToken.sol\":2696:2707  return true */\n      swap2\n      pop\n      pop\n        /* \"SimpleToken.sol\":2326:2714  function approve(address spender, uint amount) external virtual override returns (bool) {... */\n      swap3\n      swap2\n      pop\n      pop\n      jump\t// out\n        /* \"SimpleToken.sol\":1703:1811  function totalSupply() external view virtual override returns (uint256) {... */\n    tag_37:\n        /* \"SimpleToken.sol\":1766:1773  uint256 */\n      0x00\n        /* \"SimpleToken.sol\":1792:1804  _totalSupply */\n      sload(0x02)\n        /* \"SimpleToken.sol\":1785:1804  return _totalSupply */\n      swap1\n      pop\n        /* \"SimpleToken.sol\":1703:1811  function totalSupply() external view virtual override returns (uint256) {... */\n      swap1\n      jump\t// out\n        /* \"SimpleToken.sol\":2720:3210  function transferFrom(address sender, address recipient, uint256 amount) external virtual override returns (bool) {... */\n    tag_42:\n        /* \"SimpleToken.sol\":2828:2832  bool */\n      0x00\n        /* \"SimpleToken.sol\":2844:2880  _transfer(sender, recipient, amount) */\n      tag_91\n        /* \"SimpleToken.sol\":2854:2860  sender */\n      dup5\n        /* \"SimpleToken.sol\":2862:2871  recipient */\n      dup5\n        /* \"SimpleToken.sol\":2873:2879  amount */\n      dup5\n        /* \"SimpleToken.sol\":2844:2853  _transfer */\n      tag_92\n        /* \"SimpleToken.sol\":2844:2880  _transfer(sender, recipient, amount) */\n      jump\t// in\n    tag_91:\n        /* \"SimpleToken.sol\":2924:2933  recipient */\n      dup3\n        /* \"SimpleToken.sol\":2895:2942  Transfer(msg.sender, sender, recipient, amount) */\n      0xffffffffffffffffffffffffffffffffffffffff\n      and\n        /* \"SimpleToken.sol\":2916:2922  sender */\n      dup5\n        /* \"SimpleToken.sol\":2895:2942  Transfer(msg.sender, sender, recipient, amount) */\n      0xffffffffffffffffffffffffffffffffffffffff\n      and\n        /* \"SimpleToken.sol\":2904:2914  msg.sender */\n      caller\n        /* \"SimpleToken.sol\":2895:2942  Transfer(msg.sender, sender, recipient, amount) */\n      0xffffffffffffffffffffffffffffffffffffffff\n      and\n      0xd1398bee19313d6bf672ccb116e51f4a1a947e91c757907f51fbb5b5e56c698f\n        /* \"SimpleToken.sol\":2935:2941  amount */\n      dup6\n        /* \"SimpleToken.sol\":2895:2942  Transfer(msg.sender, sender, recipient, amount) */\n      mload(0x40)\n      tag_93\n      swap2\n      swap1\n      tag_25\n      jump\t// in\n    tag_93:\n      mload(0x40)\n      dup1\n      swap2\n      sub\n      swap1\n      log4\n        /* \"SimpleToken.sol\":2952:2976  uint256 currentAllowance */\n      0x00\n        /* \"SimpleToken.sol\":2979:2990  _allowances */\n      0x01\n        /* \"SimpleToken.sol\":2979:2998  _allowances[sender] */\n      0x00\n        /* \"SimpleToken.sol\":2991:2997  sender */\n      dup7\n        /* \"SimpleToken.sol\":2979:2998  _allowances[sender] */\n      0xffffffffffffffffffffffffffffffffffffffff\n      and\n      0xffffffffffffffffffffffffffffffffffffffff\n      and\n      dup2\n      mstore\n      0x20\n      add\n      swap1\n      dup2\n      mstore\n      0x20\n      add\n      0x00\n      keccak256\n        /* \"SimpleToken.sol\":2979:3010  _allowances[sender][msg.sender] */\n      0x00\n        /* \"SimpleToken.sol\":2999:3009  msg.sender */\n      caller\n        /* \"SimpleToken.sol\":2979:3010  _allowances[sender][msg.sender] */\n      0xffffffffffffffffffffffffffffffffffffffff\n      and\n      0xffffffffffffffffffffffffffffffffffffffff\n      and\n      dup2\n      mstore\n      0x20\n      add\n      swap1\n      dup2\n      mstore\n      0x20\n      add\n      0x00\n      keccak256\n      sload\n        /* \"SimpleToken.sol\":2952:3010  uint256 currentAllowance = _allowances[sender][msg.sender] */\n      swap1\n      pop\n        /* \"SimpleToken.sol\":3048:3054  amount */\n      dup3\n        /* \"SimpleToken.sol\":3028:3044  currentAllowance */\n      dup2\n        /* \"SimpleToken.sol\":3028:3054  currentAllowance >= amount */\n      lt\n      iszero\n        /* \"SimpleToken.sol\":3020:3099  require(currentAllowance >= amount, \"ERC20: transfer amount exceeds allowance\") */\n      tag_94\n      jumpi\n      mload(0x40)\n      0x08c379a000000000000000000000000000000000000000000000000000000000\n      dup2\n      mstore\n      0x04\n      add\n      tag_95\n      swap1\n      tag_96\n      jump\t// in\n    tag_95:\n      mload(0x40)\n      dup1\n      swap2\n      sub\n      swap1\n      revert\n    tag_94:\n        /* \"SimpleToken.sol\":3109:3182  _approve(sender, msg.sender, currentAllowance, currentAllowance - amount) */\n      tag_97\n        /* \"SimpleToken.sol\":3118:3124  sender */\n      dup6\n        /* \"SimpleToken.sol\":3126:3136  msg.sender */\n      caller\n        /* \"SimpleToken.sol\":3138:3154  currentAllowance */\n      dup4\n        /* \"SimpleToken.sol\":3175:3181  amount */\n      dup7\n        /* \"SimpleToken.sol\":3156:3172  currentAllowance */\n      dup6\n        /* \"SimpleToken.sol\":3156:3181  currentAllowance - amount */\n      tag_98\n      swap2\n      swap1\n      tag_99\n      jump\t// in\n    tag_98:\n        /* \"SimpleToken.sol\":3109:3117  _approve */\n      tag_88\n        /* \"SimpleToken.sol\":3109:3182  _approve(sender, msg.sender, currentAllowance, currentAllowance - amount) */\n      jump\t// in\n    tag_97:\n        /* \"SimpleToken.sol\":3199:3203  true */\n      0x01\n        /* \"SimpleToken.sol\":3192:3203  return true */\n      swap2\n      pop\n      pop\n        /* \"SimpleToken.sol\":2720:3210  function transferFrom(address sender, address recipient, uint256 amount) external virtual override returns (bool) {... */\n      swap4\n      swap3\n      pop\n      pop\n      pop\n      jump\t// out\n        /* \"SimpleToken.sol\":1616:1697  function decimals() public view returns (uint8) {... */\n    tag_45:\n        /* \"SimpleToken.sol\":1657:1662  uint8 */\n      0x00\n        /* \"SimpleToken.sol\":1681:1690  _decimals */\n      0x05\n      0x00\n      swap1\n      sload\n      swap1\n      0x0100\n      exp\n      swap1\n      div\n      0xff\n      and\n        /* \"SimpleToken.sol\":1674:1690  return _decimals */\n      swap1\n      pop\n        /* \"SimpleToken.sol\":1616:1697  function decimals() public view returns (uint8) {... */\n      swap1\n      jump\t// out\n        /* \"SimpleToken.sol\":1118:1140  uint8 public _decimals */\n    tag_49:\n      0x05\n      0x00\n      swap1\n      sload\n      swap1\n      0x0100\n      exp\n      swap1\n      div\n      0xff\n      and\n      dup2\n      jump\t// out\n        /* \"SimpleToken.sol\":1033:1060  uint256 public _totalSupply */\n    tag_52:\n      sload(0x02)\n      dup2\n      jump\t// out\n        /* \"SimpleToken.sol\":1817:1944  function balanceOf(address account) external view virtual override returns (uint256) {... */\n    tag_57:\n        /* \"SimpleToken.sol\":1893:1900  uint256 */\n      0x00\n        /* \"SimpleToken.sol\":1919:1928  _balances */\n      dup1\n        /* \"SimpleToken.sol\":1919:1937  _balances[account] */\n      0x00\n        /* \"SimpleToken.sol\":1929:1936  account */\n      dup4\n        /* \"SimpleToken.sol\":1919:1937  _balances[account] */\n      0xffffffffffffffffffffffffffffffffffffffff\n      and\n      0xffffffffffffffffffffffffffffffffffffffff\n      and\n      dup2\n      mstore\n      0x20\n      add\n      swap1\n      dup2\n      mstore\n      0x20\n      add\n      0x00\n      keccak256\n      sload\n        /* \"SimpleToken.sol\":1912:1937  return _balances[account] */\n      swap1\n      pop\n        /* \"SimpleToken.sol\":1817:1944  function balanceOf(address account) external view virtual override returns (uint256) {... */\n      swap2\n      swap1\n      pop\n      jump\t// out\n        /* \"SimpleToken.sol\":1525:1610  function symbol() public view returns (string memory) {... */\n    tag_60:\n        /* \"SimpleToken.sol\":1564:1577  string memory */\n      0x60\n        /* \"SimpleToken.sol\":1596:1603  _symbol */\n      0x04\n        /* \"SimpleToken.sol\":1589:1603  return _symbol */\n      dup1\n      sload\n      tag_103\n      swap1\n      tag_78\n      jump\t// in\n    tag_103:\n      dup1\n      0x1f\n      add\n      0x20\n      dup1\n      swap2\n      div\n      mul\n      0x20\n      add\n      mload(0x40)\n      swap1\n      dup2\n      add\n      0x40\n      mstore\n      dup1\n      swap3\n      swap2\n      swap1\n      dup2\n      dup2\n      mstore\n      0x20\n      add\n      dup3\n      dup1\n      sload\n      tag_104\n      swap1\n      tag_78\n      jump\t// in\n    tag_104:\n      dup1\n      iszero\n      tag_105\n      jumpi\n      dup1\n      0x1f\n      lt\n      tag_106\n      jumpi\n      0x0100\n      dup1\n      dup4\n      sload\n      div\n      mul\n      dup4\n      mstore\n      swap2\n      0x20\n      add\n      swap2\n      jump(tag_105)\n    tag_106:\n      dup3\n      add\n      swap2\n      swap1\n      0x00\n      mstore\n      keccak256(0x00, 0x20)\n      swap1\n    tag_107:\n      dup2\n      sload\n      dup2\n      mstore\n      swap1\n      0x01\n      add\n      swap1\n      0x20\n      add\n      dup1\n      dup4\n      gt\n      tag_107\n      jumpi\n      dup3\n      swap1\n      sub\n      0x1f\n      and\n      dup3\n      add\n      swap2\n    tag_105:\n      pop\n      pop\n      pop\n      pop\n      pop\n      swap1\n      pop\n        /* \"SimpleToken.sol\":1525:1610  function symbol() public view returns (string memory) {... */\n      swap1\n      jump\t// out\n        /* \"SimpleToken.sol\":1950:2171  function transfer(address recipient, uint amount) public virtual override returns (bool) {... */\n    tag_64:\n        /* \"SimpleToken.sol\":2033:2037  bool */\n      0x00\n        /* \"SimpleToken.sol\":2049:2089  _transfer(msg.sender, recipient, amount) */\n      tag_109\n        /* \"SimpleToken.sol\":2059:2069  msg.sender */\n      caller\n        /* \"SimpleToken.sol\":2071:2080  recipient */\n      dup5\n        /* \"SimpleToken.sol\":2082:2088  amount */\n      dup5\n        /* \"SimpleToken.sol\":2049:2058  _transfer */\n      tag_92\n        /* \"SimpleToken.sol\":2049:2089  _transfer(msg.sender, recipient, amount) */\n      jump\t// in\n    tag_109:\n        /* \"SimpleToken.sol\":2125:2134  recipient */\n      dup3\n        /* \"SimpleToken.sol\":2104:2143  Transfer(msg.sender, recipient, amount) */\n      0xffffffffffffffffffffffffffffffffffffffff\n      and\n        /* \"SimpleToken.sol\":2113:2123  msg.sender */\n      caller\n        /* \"SimpleToken.sol\":2104:2143  Transfer(msg.sender, recipient, amount) */\n      0xffffffffffffffffffffffffffffffffffffffff\n      and\n      0xddf252ad1be2c89b69c2b068fc378daa952ba7f163c4a11628f55a4df523b3ef\n        /* \"SimpleToken.sol\":2136:2142  amount */\n      dup5\n        /* \"SimpleToken.sol\":2104:2143  Transfer(msg.sender, recipient, amount) */\n      mload(0x40)\n      tag_110\n      swap2\n      swap1\n      tag_25\n      jump\t// in\n    tag_110:\n      mload(0x40)\n      dup1\n      swap2\n      sub\n      swap1\n      log3\n        /* \"SimpleToken.sol\":2160:2164  true */\n      0x01\n        /* \"SimpleToken.sol\":2153:2164  return true */\n      swap1\n      pop\n        /* \"SimpleToken.sol\":1950:2171  function transfer(address recipient, uint amount) public virtual override returns (bool) {... */\n      swap3\n      swap2\n      pop\n      pop\n      jump\t// out\n        /* \"SimpleToken.sol\":1091:1112  string public _symbol */\n    tag_67:\n      0x04\n      dup1\n      sload\n      tag_111\n      swap1\n      tag_78\n      jump\t// in\n    tag_111:\n      dup1\n      0x1f\n      add\n      0x20\n      dup1\n      swap2\n      div\n      mul\n      0x20\n      add\n      mload(0x40)\n      swap1\n      dup2\n      add\n      0x40\n      mstore\n      dup1\n      swap3\n      swap2\n      swap1\n      dup2\n      dup2\n      mstore\n      0x20\n      add\n      dup3\n      dup1\n      sload\n      tag_112\n      swap1\n      tag_78\n      jump\t// in\n    tag_112:\n      dup1\n      iszero\n      tag_113\n      jumpi\n      dup1\n      0x1f\n      lt\n      tag_114\n      jumpi\n      0x0100\n      dup1\n      dup4\n      sload\n      div\n      mul\n      dup4\n      mstore\n      swap2\n      0x20\n      add\n      swap2\n      jump(tag_113)\n    tag_114:\n      dup3\n      add\n      swap2\n      swap1\n      0x00\n      mstore\n      keccak256(0x00, 0x20)\n      swap1\n    tag_115:\n      dup2\n      sload\n      dup2\n      mstore\n      swap1\n      0x01\n      add\n      swap1\n      0x20\n      add\n      dup1\n      dup4\n      gt\n      tag_115\n      jumpi\n      dup3\n      swap1\n      sub\n      0x1f\n      and\n      dup3\n      add\n      swap2\n    tag_113:\n      pop\n      pop\n      pop\n      pop\n      pop\n      dup2\n      jump\t// out\n        /* \"SimpleToken.sol\":1066:1085  string public _name */\n    tag_70:\n      0x03\n      dup1\n      sload\n      tag_116\n      swap1\n      tag_78\n      jump\t// in\n    tag_116:\n      dup1\n      0x1f\n      add\n      0x20\n      dup1\n      swap2\n      div\n      mul\n      0x20\n      add\n      mload(0x40)\n      swap1\n      dup2\n      add\n      0x40\n      mstore\n      dup1\n      swap3\n      swap2\n      swap1\n      dup2\n      dup2\n      mstore\n      0x20\n      add\n      dup3\n      dup1\n      sload\n      tag_117\n      swap1\n      tag_78\n      jump\t// in\n    tag_117:\n      dup1\n      iszero\n      tag_118\n      jumpi\n      dup1\n      0x1f\n      lt\n      tag_119\n      jumpi\n      0x0100\n      dup1\n      dup4\n      sload\n      div\n      mul\n      dup4\n      mstore\n      swap2\n      0x20\n      add\n      swap2\n      jump(tag_118)\n    tag_119:\n      dup3\n      add\n      swap2\n      swap1\n      0x00\n      mstore\n      keccak256(0x00, 0x20)\n      swap1\n    tag_120:\n      dup2\n      sload\n      dup2\n      mstore\n      swap1\n      0x01\n      add\n      swap1\n      0x20\n      add\n      dup1\n      dup4\n      gt\n      tag_120\n      jumpi\n      dup3\n      swap1\n      sub\n      0x1f\n      and\n      dup3\n      add\n      swap2\n    tag_118:\n      pop\n      pop\n      pop\n      pop\n      pop\n      dup2\n      jump\t// out\n        /* \"SimpleToken.sol\":2177:2320  function allowance(address owner, address spender) external view override returns (uint256) {... */\n    tag_74:\n        /* \"SimpleToken.sol\":2260:2267  uint256 */\n      0x00\n        /* \"SimpleToken.sol\":2286:2297  _allowances */\n      0x01\n        /* \"SimpleToken.sol\":2286:2304  _allowances[owner] */\n      0x00\n        /* \"SimpleToken.sol\":2298:2303  owner */\n      dup5\n        /* \"SimpleToken.sol\":2286:2304  _allowances[owner] */\n      0xffffffffffffffffffffffffffffffffffffffff\n      and\n      0xffffffffffffffffffffffffffffffffffffffff\n      and\n      dup2\n      mstore\n      0x20\n      add\n      swap1\n      dup2\n      mstore\n      0x20\n      add\n      0x00\n      keccak256\n        /* \"SimpleToken.sol\":2286:2313  _allowances[owner][spender] */\n      0x00\n        /* \"SimpleToken.sol\":2305:2312  spender */\n      dup4\n        /* \"SimpleToken.sol\":2286:2313  _allowances[owner][spender] */\n      0xffffffffffffffffffffffffffffffffffffffff\n      and\n      0xffffffffffffffffffffffffffffffffffffffff\n      and\n      dup2\n      mstore\n      0x20\n      add\n      swap1\n      dup2\n      mstore\n      0x20\n      add\n      0x00\n      keccak256\n      sload\n        /* \"SimpleToken.sol\":2279:2313  return _allowances[owner][spender] */\n      swap1\n      pop\n        /* \"SimpleToken.sol\":2177:2320  function allowance(address owner, address spender) external view override returns (uint256) {... */\n      swap3\n      swap2\n      pop\n      pop\n      jump\t// out\n        /* \"SimpleToken.sol\":3704:4178  function _approve(address owner, address spender, uint256 currentAmount, uint256 amount) internal virtual {... */\n    tag_88:\n        /* \"SimpleToken.sol\":3845:3846  0 */\n      0x00\n        /* \"SimpleToken.sol\":3828:3847  owner != address(0) */\n      0xffffffffffffffffffffffffffffffffffffffff\n      and\n        /* \"SimpleToken.sol\":3828:3833  owner */\n      dup5\n        /* \"SimpleToken.sol\":3828:3847  owner != address(0) */\n      0xffffffffffffffffffffffffffffffffffffffff\n      and\n      eq\n      iszero\n        /* \"SimpleToken.sol\":3820:3888  require(owner != address(0), \"ERC20: approve from the zero address\") */\n      tag_123\n      jumpi\n      mload(0x40)\n      0x08c379a000000000000000000000000000000000000000000000000000000000\n      dup2\n      mstore\n      0x04\n      add\n      tag_124\n      swap1\n      tag_125\n      jump\t// in\n    tag_124:\n      mload(0x40)\n      dup1\n      swap2\n      sub\n      swap1\n      revert\n    tag_123:\n        /* \"SimpleToken.sol\":3925:3926  0 */\n      0x00\n        /* \"SimpleToken.sol\":3906:3927  spender != address(0) */\n      0xffffffffffffffffffffffffffffffffffffffff\n      and\n        /* \"SimpleToken.sol\":3906:3913  spender */\n      dup4\n        /* \"SimpleToken.sol\":3906:3927  spender != address(0) */\n      0xffffffffffffffffffffffffffffffffffffffff\n      and\n      eq\n      iszero\n        /* \"SimpleToken.sol\":3898:3966  require(spender != address(0), \"ERC20: approve to the zero address\") */\n      tag_126\n      jumpi\n      mload(0x40)\n      0x08c379a000000000000000000000000000000000000000000000000000000000\n      dup2\n      mstore\n      0x04\n      add\n      tag_127\n      swap1\n      tag_128\n      jump\t// in\n    tag_127:\n      mload(0x40)\n      dup1\n      swap2\n      sub\n      swap1\n      revert\n    tag_126:\n        /* \"SimpleToken.sol\":4001:4012  _allowances */\n      0x01\n        /* \"SimpleToken.sol\":4001:4019  _allowances[owner] */\n      0x00\n        /* \"SimpleToken.sol\":4013:4018  owner */\n      dup6\n        /* \"SimpleToken.sol\":4001:4019  _allowances[owner] */\n      0xffffffffffffffffffffffffffffffffffffffff\n      and\n      0xffffffffffffffffffffffffffffffffffffffff\n      and\n      dup2\n      mstore\n      0x20\n      add\n      swap1\n      dup2\n      mstore\n      0x20\n      add\n      0x00\n      keccak256\n        /* \"SimpleToken.sol\":4001:4028  _allowances[owner][spender] */\n      0x00\n        /* \"SimpleToken.sol\":4020:4027  spender */\n      dup5\n        /* \"SimpleToken.sol\":4001:4028  _allowances[owner][spender] */\n      0xffffffffffffffffffffffffffffffffffffffff\n      and\n      0xffffffffffffffffffffffffffffffffffffffff\n      and\n      dup2\n      mstore\n      0x20\n      add\n      swap1\n      dup2\n      mstore\n      0x20\n      add\n      0x00\n      keccak256\n      sload\n        /* \"SimpleToken.sol\":3984:3997  currentAmount */\n      dup3\n        /* \"SimpleToken.sol\":3984:4028  currentAmount == _allowances[owner][spender] */\n      eq\n        /* \"SimpleToken.sol\":3976:4061  require(currentAmount == _allowances[owner][spender], \"ERC20: invalid currentAmount\") */\n      tag_129\n      jumpi\n      mload(0x40)\n      0x08c379a000000000000000000000000000000000000000000000000000000000\n      dup2\n      mstore\n      0x04\n      add\n      tag_130\n      swap1\n      tag_131\n      jump\t// in\n    tag_130:\n      mload(0x40)\n      dup1\n      swap2\n      sub\n      swap1\n      revert\n    tag_129:\n        /* \"SimpleToken.sol\":4101:4107  amount */\n      dup1\n        /* \"SimpleToken.sol\":4071:4082  _allowances */\n      0x01\n        /* \"SimpleToken.sol\":4071:4089  _allowances[owner] */\n      0x00\n        /* \"SimpleToken.sol\":4083:4088  owner */\n      dup7\n        /* \"SimpleToken.sol\":4071:4089  _allowances[owner] */\n      0xffffffffffffffffffffffffffffffffffffffff\n      and\n      0xffffffffffffffffffffffffffffffffffffffff\n      and\n      dup2\n      mstore\n      0x20\n      add\n      swap1\n      dup2\n      mstore\n      0x20\n      add\n      0x00\n      keccak256\n        /* \"SimpleToken.sol\":4071:4098  _allowances[owner][spender] */\n      0x00\n        /* \"SimpleToken.sol\":4090:4097  spender */\n      dup6\n        /* \"SimpleToken.sol\":4071:4098  _allowances[owner][spender] */\n      0xffffffffffffffffffffffffffffffffffffffff\n      and\n      0xffffffffffffffffffffffffffffffffffffffff\n      and\n      dup2\n      mstore\n      0x20\n      add\n      swap1\n      dup2\n      mstore\n      0x20\n      add\n      0x00\n      keccak256\n        /* \"SimpleToken.sol\":4071:4107  _allowances[owner][spender] = amount */\n      dup2\n      swap1\n      sstore\n      pop\n        /* \"SimpleToken.sol\":4140:4147  spender */\n      dup3\n        /* \"SimpleToken.sol\":4124:4171  Approval(owner, spender, currentAmount, amount) */\n      0xffffffffffffffffffffffffffffffffffffffff\n      and\n        /* \"SimpleToken.sol\":4133:4138  owner */\n      dup5\n        /* \"SimpleToken.sol\":4124:4171  Approval(owner, spender, currentAmount, amount) */\n      0xffffffffffffffffffffffffffffffffffffffff\n      and\n      0xb3fd5071835887567a0671151121894ddccc2842f1d10bedad13e0d17cace9a7\n        /* \"SimpleToken.sol\":4149:4162  currentAmount */\n      dup5\n        /* \"SimpleToken.sol\":4164:4170  amount */\n      dup5\n        /* \"SimpleToken.sol\":4124:4171  Approval(owner, spender, currentAmount, amount) */\n      mload(0x40)\n      tag_132\n      swap3\n      swap2\n      swap1\n      tag_133\n      jump\t// in\n    tag_132:\n      mload(0x40)\n      dup1\n      swap2\n      sub\n      swap1\n      log3\n        /* \"SimpleToken.sol\":3704:4178  function _approve(address owner, address spender, uint256 currentAmount, uint256 amount) internal virtual {... */\n      pop\n      pop\n      pop\n      pop\n      jump\t// out\n        /* \"SimpleToken.sol\":3216:3698  function _transfer(address sender, address recipient, uint256 amount) internal virtual {... */\n    tag_92:\n        /* \"SimpleToken.sol\":3339:3340  0 */\n      0x00\n        /* \"SimpleToken.sol\":3321:3341  sender != address(0) */\n      0xffffffffffffffffffffffffffffffffffffffff\n      and\n        /* \"SimpleToken.sol\":3321:3327  sender */\n      dup4\n        /* \"SimpleToken.sol\":3321:3341  sender != address(0) */\n      0xffffffffffffffffffffffffffffffffffffffff\n      and\n      eq\n      iszero\n        /* \"SimpleToken.sol\":3313:3383  require(sender != address(0), \"ERC20: transfer from the zero address\") */\n      tag_135\n      jumpi\n      mload(0x40)\n      0x08c379a000000000000000000000000000000000000000000000000000000000\n      dup2\n      mstore\n      0x04\n      add\n      tag_136\n      swap1\n      tag_137\n      jump\t// in\n    tag_136:\n      mload(0x40)\n      dup1\n      swap2\n      sub\n      swap1\n      revert\n    tag_135:\n        /* \"SimpleToken.sol\":3422:3423  0 */\n      0x00\n        /* \"SimpleToken.sol\":3401:3424  recipient != address(0) */\n      0xffffffffffffffffffffffffffffffffffffffff\n      and\n        /* \"SimpleToken.sol\":3401:3410  recipient */\n      dup3\n        /* \"SimpleToken.sol\":3401:3424  recipient != address(0) */\n      0xffffffffffffffffffffffffffffffffffffffff\n      and\n      eq\n      iszero\n        /* \"SimpleToken.sol\":3393:3464  require(recipient != address(0), \"ERC20: transfer to the zero address\") */\n      tag_138\n      jumpi\n      mload(0x40)\n      0x08c379a000000000000000000000000000000000000000000000000000000000\n      dup2\n      mstore\n      0x04\n      add\n      tag_139\n      swap1\n      tag_140\n      jump\t// in\n    tag_139:\n      mload(0x40)\n      dup1\n      swap2\n      sub\n      swap1\n      revert\n    tag_138:\n        /* \"SimpleToken.sol\":3474:3495  uint256 senderBalance */\n      0x00\n        /* \"SimpleToken.sol\":3498:3507  _balances */\n      dup1\n        /* \"SimpleToken.sol\":3498:3515  _balances[sender] */\n      0x00\n        /* \"SimpleToken.sol\":3508:3514  sender */\n      dup6\n        /* \"SimpleToken.sol\":3498:3515  _balances[sender] */\n      0xffffffffffffffffffffffffffffffffffffffff\n      and\n      0xffffffffffffffffffffffffffffffffffffffff\n      and\n      dup2\n      mstore\n      0x20\n      add\n      swap1\n      dup2\n      mstore\n      0x20\n      add\n      0x00\n      keccak256\n      sload\n        /* \"SimpleToken.sol\":3474:3515  uint256 senderBalance = _balances[sender] */\n      swap1\n      pop\n        /* \"SimpleToken.sol\":3550:3556  amount */\n      dup2\n        /* \"SimpleToken.sol\":3533:3546  senderBalance */\n      dup2\n        /* \"SimpleToken.sol\":3533:3556  senderBalance >= amount */\n      lt\n      iszero\n        /* \"SimpleToken.sol\":3525:3599  require(senderBalance >= amount, \"ERC20: transfer amount exceeds balance\") */\n      tag_141\n      jumpi\n      mload(0x40)\n      0x08c379a000000000000000000000000000000000000000000000000000000000\n      dup2\n      mstore\n      0x04\n      add\n      tag_142\n      swap1\n      tag_143\n      jump\t// in\n    tag_142:\n      mload(0x40)\n      dup1\n      swap2\n      sub\n      swap1\n      revert\n    tag_141:\n        /* \"SimpleToken.sol\":3645:3651  amount */\n      dup2\n        /* \"SimpleToken.sol\":3629:3642  senderBalance */\n      dup2\n        /* \"SimpleToken.sol\":3629:3651  senderBalance - amount */\n      tag_144\n      swap2\n      swap1\n      tag_99\n      jump\t// in\n    tag_144:\n        /* \"SimpleToken.sol\":3609:3618  _balances */\n      0x00\n        /* \"SimpleToken.sol\":3609:3626  _balances[sender] */\n      dup1\n        /* \"SimpleToken.sol\":3619:3625  sender */\n      dup7\n        /* \"SimpleToken.sol\":3609:3626  _balances[sender] */\n      0xffffffffffffffffffffffffffffffffffffffff\n      and\n      0xffffffffffffffffffffffffffffffffffffffff\n      and\n      dup2\n      mstore\n      0x20\n      add\n      swap1\n      dup2\n      mstore\n      0x20\n      add\n      0x00\n      keccak256\n        /* \"SimpleToken.sol\":3609:3651  _balances[sender] = senderBalance - amount */\n      dup2\n      swap1\n      sstore\n      pop\n        /* \"SimpleToken.sol\":3685:3691  amount */\n      dup2\n        /* \"SimpleToken.sol\":3661:3670  _balances */\n      0x00\n        /* \"SimpleToken.sol\":3661:3681  _balances[recipient] */\n      dup1\n        /* \"SimpleToken.sol\":3671:3680  recipient */\n      dup6\n        /* \"SimpleToken.sol\":3661:3681  _balances[recipient] */\n      0xffffffffffffffffffffffffffffffffffffffff\n      and\n      0xffffffffffffffffffffffffffffffffffffffff\n      and\n      dup2\n      mstore\n      0x20\n      add\n      swap1\n      dup2\n      mstore\n      0x20\n      add\n      0x00\n      keccak256\n      0x00\n        /* \"SimpleToken.sol\":3661:3691  _balances[recipient] += amount */\n      dup3\n      dup3\n      sload\n      tag_145\n      swap2\n      swap1\n      tag_146\n      jump\t// in\n    tag_145:\n      swap3\n      pop\n      pop\n      dup2\n      swap1\n      sstore\n      pop\n        /* \"SimpleToken.sol\":3303:3698  {... */\n      pop\n        /* \"SimpleToken.sol\":3216:3698  function _transfer(address sender, address recipient, uint256 amount) internal virtual {... */\n      pop\n      pop\n      pop\n      jump\t// out\n        /* \"#utility.yul\":88:205   */\n    tag_148:\n        /* \"#utility.yul\":197:198   */\n      0x00\n        /* \"#utility.yul\":194:195   */\n      dup1\n        /* \"#utility.yul\":187:199   */\n      revert\n        /* \"#utility.yul\":334:460   */\n    tag_150:\n        /* \"#utility.yul\":371:378   */\n      0x00\n        /* \"#utility.yul\":411:453   */\n      0xffffffffffffffffffffffffffffffffffffffff\n        /* \"#utility.yul\":404:409   */\n      dup3\n        /* \"#utility.yul\":400:454   */\n      and\n        /* \"#utility.yul\":389:454   */\n      swap1\n      pop\n        /* \"#utility.yul\":334:460   */\n      swap2\n      swap1\n      pop\n      jump\t// out\n        /* \"#utility.yul\":466:562   */\n    tag_151:\n        /* \"#utility.yul\":503:510   */\n      0x00\n        /* \"#utility.yul\":532:556   */\n      tag_191\n        /* \"#utility.yul\":550:555   */\n      dup3\n        /* \"#utility.yul\":532:556   */\n      tag_150\n      jump\t// in\n    tag_191:\n        /* \"#utility.yul\":521:556   */\n      swap1\n      pop\n        /* \"#utility.yul\":466:562   */\n      swap2\n      swap1\n      pop\n      jump\t// out\n        /* \"#utility.yul\":568:690   */\n    tag_152:\n        /* \"#utility.yul\":641:665   */\n      tag_193\n        /* \"#utility.yul\":659:664   */\n      dup2\n        /* \"#utility.yul\":641:665   */\n      tag_151\n      jump\t// in\n    tag_193:\n        /* \"#utility.yul\":634:639   */\n      dup2\n        /* \"#utility.yul\":631:666   */\n      eq\n        /* \"#utility.yul\":621:684   */\n      tag_194\n      jumpi\n        /* \"#utility.yul\":680:681   */\n      0x00\n        /* \"#utility.yul\":677:678   */\n      dup1\n        /* \"#utility.yul\":670:682   */\n      revert\n        /* \"#utility.yul\":621:684   */\n    tag_194:\n        /* \"#utility.yul\":568:690   */\n      pop\n      jump\t// out\n        /* \"#utility.yul\":696:835   */\n    tag_153:\n        /* \"#utility.yul\":742:747   */\n      0x00\n        /* \"#utility.yul\":780:786   */\n      dup2\n        /* \"#utility.yul\":767:787   */\n      calldataload\n        /* \"#utility.yul\":758:787   */\n      swap1\n      pop\n        /* \"#utility.yul\":796:829   */\n      tag_196\n        /* \"#utility.yul\":823:828   */\n      dup2\n        /* \"#utility.yul\":796:829   */\n      tag_152\n      jump\t// in\n    tag_196:\n        /* \"#utility.yul\":696:835   */\n      swap3\n      swap2\n      pop\n      pop\n      jump\t// out\n        /* \"#utility.yul\":841:1315   */\n    tag_22:\n        /* \"#utility.yul\":909:915   */\n      0x00\n        /* \"#utility.yul\":917:923   */\n      dup1\n        /* \"#utility.yul\":966:968   */\n      0x40\n        /* \"#utility.yul\":954:963   */\n      dup4\n        /* \"#utility.yul\":945:952   */\n      dup6\n        /* \"#utility.yul\":941:964   */\n      sub\n        /* \"#utility.yul\":937:969   */\n      slt\n        /* \"#utility.yul\":934:1053   */\n      iszero\n      tag_198\n      jumpi\n        /* \"#utility.yul\":972:1051   */\n      tag_199\n      tag_148\n      jump\t// in\n    tag_199:\n        /* \"#utility.yul\":934:1053   */\n    tag_198:\n        /* \"#utility.yul\":1092:1093   */\n      0x00\n        /* \"#utility.yul\":1117:1170   */\n      tag_200\n        /* \"#utility.yul\":1162:1169   */\n      dup6\n        /* \"#utility.yul\":1153:1159   */\n      dup3\n        /* \"#utility.yul\":1142:1151   */\n      dup7\n        /* \"#utility.yul\":1138:1160   */\n      add\n        /* \"#utility.yul\":1117:1170   */\n      tag_153\n      jump\t// in\n    tag_200:\n        /* \"#utility.yul\":1107:1170   */\n      swap3\n      pop\n        /* \"#utility.yul\":1063:1180   */\n      pop\n        /* \"#utility.yul\":1219:1221   */\n      0x20\n        /* \"#utility.yul\":1245:1298   */\n      tag_201\n        /* \"#utility.yul\":1290:1297   */\n      dup6\n        /* \"#utility.yul\":1281:1287   */\n      dup3\n        /* \"#utility.yul\":1270:1279   */\n      dup7\n        /* \"#utility.yul\":1266:1288   */\n      add\n        /* \"#utility.yul\":1245:1298   */\n      tag_153\n      jump\t// in\n    tag_201:\n        /* \"#utility.yul\":1235:1298   */\n      swap2\n      pop\n        /* \"#utility.yul\":1190:1308   */\n      pop\n        /* \"#utility.yul\":841:1315   */\n      swap3\n      pop\n      swap3\n      swap1\n      pop\n      jump\t// out\n        /* \"#utility.yul\":1321:1398   */\n    tag_154:\n        /* \"#utility.yul\":1358:1365   */\n      0x00\n        /* \"#utility.yul\":1387:1392   */\n      dup2\n        /* \"#utility.yul\":1376:1392   */\n      swap1\n      pop\n        /* \"#utility.yul\":1321:1398   */\n      swap2\n      swap1\n      pop\n      jump\t// out\n        /* \"#utility.yul\":1404:1522   */\n    tag_155:\n        /* \"#utility.yul\":1491:1515   */\n      tag_204\n        /* \"#utility.yul\":1509:1514   */\n      dup2\n        /* \"#utility.yul\":1491:1515   */\n      tag_154\n      jump\t// in\n    tag_204:\n        /* \"#utility.yul\":1486:1489   */\n      dup3\n        /* \"#utility.yul\":1479:1516   */\n      mstore\n        /* \"#utility.yul\":1404:1522   */\n      pop\n      pop\n      jump\t// out\n        /* \"#utility.yul\":1528:1750   */\n    tag_25:\n        /* \"#utility.yul\":1621:1625   */\n      0x00\n        /* \"#utility.yul\":1659:1661   */\n      0x20\n        /* \"#utility.yul\":1648:1657   */\n      dup3\n        /* \"#utility.yul\":1644:1662   */\n      add\n        /* \"#utility.yul\":1636:1662   */\n      swap1\n      pop\n        /* \"#utility.yul\":1672:1743   */\n      tag_206\n        /* \"#utility.yul\":1740:1741   */\n      0x00\n        /* \"#utility.yul\":1729:1738   */\n      dup4\n        /* \"#utility.yul\":1725:1742   */\n      add\n        /* \"#utility.yul\":1716:1722   */\n      dup5\n        /* \"#utility.yul\":1672:1743   */\n      tag_155\n      jump\t// in\n    tag_206:\n        /* \"#utility.yul\":1528:1750   */\n      swap3\n      swap2\n      pop\n      pop\n      jump\t// out\n        /* \"#utility.yul\":1756:1855   */\n    tag_156:\n        /* \"#utility.yul\":1808:1814   */\n      0x00\n        /* \"#utility.yul\":1842:1847   */\n      dup2\n        /* \"#utility.yul\":1836:1848   */\n      mload\n        /* \"#utility.yul\":1826:1848   */\n      swap1\n      pop\n        /* \"#utility.yul\":1756:1855   */\n      swap2\n      swap1\n      pop\n      jump\t// out\n        /* \"#utility.yul\":1861:2030   */\n    tag_157:\n        /* \"#utility.yul\":1945:1956   */\n      0x00\n        /* \"#utility.yul\":1979:1985   */\n      dup3\n        /* \"#utility.yul\":1974:1977   */\n      dup3\n        /* \"#utility.yul\":1967:1986   */\n      mstore\n        /* \"#utility.yul\":2019:2023   */\n      0x20\n        /* \"#utility.yul\":2014:2017   */\n      dup3\n        /* \"#utility.yul\":2010:2024   */\n      add\n        /* \"#utility.yul\":1995:2024   */\n      swap1\n      pop\n        /* \"#utility.yul\":1861:2030   */\n      swap3\n      swap2\n      pop\n      pop\n      jump\t// out\n        /* \"#utility.yul\":2036:2343   */\n    tag_158:\n        /* \"#utility.yul\":2104:2105   */\n      0x00\n        /* \"#utility.yul\":2114:2227   */\n    tag_210:\n        /* \"#utility.yul\":2128:2134   */\n      dup4\n        /* \"#utility.yul\":2125:2126   */\n      dup2\n        /* \"#utility.yul\":2122:2135   */\n      lt\n        /* \"#utility.yul\":2114:2227   */\n      iszero\n      tag_212\n      jumpi\n        /* \"#utility.yul\":2213:2214   */\n      dup1\n        /* \"#utility.yul\":2208:2211   */\n      dup3\n        /* \"#utility.yul\":2204:2215   */\n      add\n        /* \"#utility.yul\":2198:2216   */\n      mload\n        /* \"#utility.yul\":2194:2195   */\n      dup2\n        /* \"#utility.yul\":2189:2192   */\n      dup5\n        /* \"#utility.yul\":2185:2196   */\n      add\n        /* \"#utility.yul\":2178:2217   */\n      mstore\n        /* \"#utility.yul\":2150:2152   */\n      0x20\n        /* \"#utility.yul\":2147:2148   */\n      dup2\n        /* \"#utility.yul\":2143:2153   */\n      add\n        /* \"#utility.yul\":2138:2153   */\n      swap1\n      pop\n        /* \"#utility.yul\":2114:2227   */\n      jump(tag_210)\n    tag_212:\n        /* \"#utility.yul\":2245:2251   */\n      dup4\n        /* \"#utility.yul\":2242:2243   */\n      dup2\n        /* \"#utility.yul\":2239:2252   */\n      gt\n        /* \"#utility.yul\":2236:2337   */\n      iszero\n      tag_213\n      jumpi\n        /* \"#utility.yul\":2325:2326   */\n      0x00\n        /* \"#utility.yul\":2316:2322   */\n      dup5\n        /* \"#utility.yul\":2311:2314   */\n      dup5\n        /* \"#utility.yul\":2307:2323   */\n      add\n        /* \"#utility.yul\":2300:2327   */\n      mstore\n        /* \"#utility.yul\":2236:2337   */\n    tag_213:\n        /* \"#utility.yul\":2085:2343   */\n      pop\n        /* \"#utility.yul\":2036:2343   */\n      pop\n      pop\n      pop\n      jump\t// out\n        /* \"#utility.yul\":2349:2451   */\n    tag_159:\n        /* \"#utility.yul\":2390:2396   */\n      0x00\n        /* \"#utility.yul\":2441:2443   */\n      0x1f\n        /* \"#utility.yul\":2437:2444   */\n      not\n        /* \"#utility.yul\":2432:2434   */\n      0x1f\n        /* \"#utility.yul\":2425:2430   */\n      dup4\n        /* \"#utility.yul\":2421:2435   */\n      add\n        /* \"#utility.yul\":2417:2445   */\n      and\n        /* \"#utility.yul\":2407:2445   */\n      swap1\n      pop\n        /* \"#utility.yul\":2349:2451   */\n      swap2\n      swap1\n      pop\n      jump\t// out\n        /* \"#utility.yul\":2457:2821   */\n    tag_160:\n        /* \"#utility.yul\":2545:2548   */\n      0x00\n        /* \"#utility.yul\":2573:2612   */\n      tag_216\n        /* \"#utility.yul\":2606:2611   */\n      dup3\n        /* \"#utility.yul\":2573:2612   */\n      tag_156\n      jump\t// in\n    tag_216:\n        /* \"#utility.yul\":2628:2699   */\n      tag_217\n        /* \"#utility.yul\":2692:2698   */\n      dup2\n        /* \"#utility.yul\":2687:2690   */\n      dup6\n        /* \"#utility.yul\":2628:2699   */\n      tag_157\n      jump\t// in\n    tag_217:\n        /* \"#utility.yul\":2621:2699   */\n      swap4\n      pop\n        /* \"#utility.yul\":2708:2760   */\n      tag_218\n        /* \"#utility.yul\":2753:2759   */\n      dup2\n        /* \"#utility.yul\":2748:2751   */\n      dup6\n        /* \"#utility.yul\":2741:2745   */\n      0x20\n        /* \"#utility.yul\":2734:2739   */\n      dup7\n        /* \"#utility.yul\":2730:2746   */\n      add\n        /* \"#utility.yul\":2708:2760   */\n      tag_158\n      jump\t// in\n    tag_218:\n        /* \"#utility.yul\":2785:2814   */\n      tag_219\n        /* \"#utility.yul\":2807:2813   */\n      dup2\n        /* \"#utility.yul\":2785:2814   */\n      tag_159\n      jump\t// in\n    tag_219:\n        /* \"#utility.yul\":2780:2783   */\n      dup5\n        /* \"#utility.yul\":2776:2815   */\n      add\n        /* \"#utility.yul\":2769:2815   */\n      swap2\n      pop\n        /* \"#utility.yul\":2549:2821   */\n      pop\n        /* \"#utility.yul\":2457:2821   */\n      swap3\n      swap2\n      pop\n      pop\n      jump\t// out\n        /* \"#utility.yul\":2827:3140   */\n    tag_29:\n        /* \"#utility.yul\":2940:2944   */\n      0x00\n        /* \"#utility.yul\":2978:2980   */\n      0x20\n        /* \"#utility.yul\":2967:2976   */\n      dup3\n        /* \"#utility.yul\":2963:2981   */\n      add\n        /* \"#utility.yul\":2955:2981   */\n      swap1\n      pop\n        /* \"#utility.yul\":3027:3036   */\n      dup2\n        /* \"#utility.yul\":3021:3025   */\n      dup2\n        /* \"#utility.yul\":3017:3037   */\n      sub\n        /* \"#utility.yul\":3013:3014   */\n      0x00\n        /* \"#utility.yul\":3002:3011   */\n      dup4\n        /* \"#utility.yul\":2998:3015   */\n      add\n        /* \"#utility.yul\":2991:3038   */\n      mstore\n        /* \"#utility.yul\":3055:3133   */\n      tag_221\n        /* \"#utility.yul\":3128:3132   */\n      dup2\n        /* \"#utility.yul\":3119:3125   */\n      dup5\n        /* \"#utility.yul\":3055:3133   */\n      tag_160\n      jump\t// in\n    tag_221:\n        /* \"#utility.yul\":3047:3133   */\n      swap1\n      pop\n        /* \"#utility.yul\":2827:3140   */\n      swap3\n      swap2\n      pop\n      pop\n      jump\t// out\n        /* \"#utility.yul\":3146:3268   */\n    tag_161:\n        /* \"#utility.yul\":3219:3243   */\n      tag_223\n        /* \"#utility.yul\":3237:3242   */\n      dup2\n        /* \"#utility.yul\":3219:3243   */\n      tag_154\n      jump\t// in\n    tag_223:\n        /* \"#utility.yul\":3212:3217   */\n      dup2\n        /* \"#utility.yul\":3209:3244   */\n      eq\n        /* \"#utility.yul\":3199:3262   */\n      tag_224\n      jumpi\n        /* \"#utility.yul\":3258:3259   */\n      0x00\n        /* \"#utility.yul\":3255:3256   */\n      dup1\n        /* \"#utility.yul\":3248:3260   */\n      revert\n        /* \"#utility.yul\":3199:3262   */\n    tag_224:\n        /* \"#utility.yul\":3146:3268   */\n      pop\n      jump\t// out\n        /* \"#utility.yul\":3274:3413   */\n    tag_162:\n        /* \"#utility.yul\":3320:3325   */\n      0x00\n        /* \"#utility.yul\":3358:3364   */\n      dup2\n        /* \"#utility.yul\":3345:3365   */\n      calldataload\n        /* \"#utility.yul\":3336:3365   */\n      swap1\n      pop\n        /* \"#utility.yul\":3374:3407   */\n      tag_226\n        /* \"#utility.yul\":3401:3406   */\n      dup2\n        /* \"#utility.yul\":3374:3407   */\n      tag_161\n      jump\t// in\n    tag_226:\n        /* \"#utility.yul\":3274:3413   */\n      swap3\n      swap2\n      pop\n      pop\n      jump\t// out\n        /* \"#utility.yul\":3419:3893   */\n    tag_32:\n        /* \"#utility.yul\":3487:3493   */\n      0x00\n        /* \"#utility.yul\":3495:3501   */\n      dup1\n        /* \"#utility.yul\":3544:3546   */\n      0x40\n        /* \"#utility.yul\":3532:3541   */\n      dup4\n        /* \"#utility.yul\":3523:3530   */\n      dup6\n        /* \"#utility.yul\":3519:3542   */\n      sub\n        /* \"#utility.yul\":3515:3547   */\n      slt\n        /* \"#utility.yul\":3512:3631   */\n      iszero\n      tag_228\n      jumpi\n        /* \"#utility.yul\":3550:3629   */\n      tag_229\n      tag_148\n      jump\t// in\n    tag_229:\n        /* \"#utility.yul\":3512:3631   */\n    tag_228:\n        /* \"#utility.yul\":3670:3671   */\n      0x00\n        /* \"#utility.yul\":3695:3748   */\n      tag_230\n        /* \"#utility.yul\":3740:3747   */\n      dup6\n        /* \"#utility.yul\":3731:3737   */\n      dup3\n        /* \"#utility.yul\":3720:3729   */\n      dup7\n        /* \"#utility.yul\":3716:3738   */\n      add\n        /* \"#utility.yul\":3695:3748   */\n      tag_153\n      jump\t// in\n    tag_230:\n        /* \"#utility.yul\":3685:3748   */\n      swap3\n      pop\n        /* \"#utility.yul\":3641:3758   */\n      pop\n        /* \"#utility.yul\":3797:3799   */\n      0x20\n        /* \"#utility.yul\":3823:3876   */\n      tag_231\n        /* \"#utility.yul\":3868:3875   */\n      dup6\n        /* \"#utility.yul\":3859:3865   */\n      dup3\n        /* \"#utility.yul\":3848:3857   */\n      dup7\n        /* \"#utility.yul\":3844:3866   */\n      add\n        /* \"#utility.yul\":3823:3876   */\n      tag_162\n      jump\t// in\n    tag_231:\n        /* \"#utility.yul\":3813:3876   */\n      swap2\n      pop\n        /* \"#utility.yul\":3768:3886   */\n      pop\n        /* \"#utility.yul\":3419:3893   */\n      swap3\n      pop\n      swap3\n      swap1\n      pop\n      jump\t// out\n        /* \"#utility.yul\":3899:3989   */\n    tag_163:\n        /* \"#utility.yul\":3933:3940   */\n      0x00\n        /* \"#utility.yul\":3976:3981   */\n      dup2\n        /* \"#utility.yul\":3969:3982   */\n      iszero\n        /* \"#utility.yul\":3962:3983   */\n      iszero\n        /* \"#utility.yul\":3951:3983   */\n      swap1\n      pop\n        /* \"#utility.yul\":3899:3989   */\n      swap2\n      swap1\n      pop\n      jump\t// out\n        /* \"#utility.yul\":3995:4104   */\n    tag_164:\n        /* \"#utility.yul\":4076:4097   */\n      tag_234\n        /* \"#utility.yul\":4091:4096   */\n      dup2\n        /* \"#utility.yul\":4076:4097   */\n      tag_163\n      jump\t// in\n    tag_234:\n        /* \"#utility.yul\":4071:4074   */\n      dup3\n        /* \"#utility.yul\":4064:4098   */\n      mstore\n        /* \"#utility.yul\":3995:4104   */\n      pop\n      pop\n      jump\t// out\n        /* \"#utility.yul\":4110:4320   */\n    tag_35:\n        /* \"#utility.yul\":4197:4201   */\n      0x00\n        /* \"#utility.yul\":4235:4237   */\n      0x20\n        /* \"#utility.yul\":4224:4233   */\n      dup3\n        /* \"#utility.yul\":4220:4238   */\n      add\n        /* \"#utility.yul\":4212:4238   */\n      swap1\n      pop\n        /* \"#utility.yul\":4248:4313   */\n      tag_236\n        /* \"#utility.yul\":4310:4311   */\n      0x00\n        /* \"#utility.yul\":4299:4308   */\n      dup4\n        /* \"#utility.yul\":4295:4312   */\n      add\n        /* \"#utility.yul\":4286:4292   */\n      dup5\n        /* \"#utility.yul\":4248:4313   */\n      tag_164\n      jump\t// in\n    tag_236:\n        /* \"#utility.yul\":4110:4320   */\n      swap3\n      swap2\n      pop\n      pop\n      jump\t// out\n        /* \"#utility.yul\":4326:4945   */\n    tag_41:\n        /* \"#utility.yul\":4403:4409   */\n      0x00\n        /* \"#utility.yul\":4411:4417   */\n      dup1\n        /* \"#utility.yul\":4419:4425   */\n      0x00\n        /* \"#utility.yul\":4468:4470   */\n      0x60\n        /* \"#utility.yul\":4456:4465   */\n      dup5\n        /* \"#utility.yul\":4447:4454   */\n      dup7\n        /* \"#utility.yul\":4443:4466   */\n      sub\n        /* \"#utility.yul\":4439:4471   */\n      slt\n        /* \"#utility.yul\":4436:4555   */\n      iszero\n      tag_238\n      jumpi\n        /* \"#utility.yul\":4474:4553   */\n      tag_239\n      tag_148\n      jump\t// in\n    tag_239:\n        /* \"#utility.yul\":4436:4555   */\n    tag_238:\n        /* \"#utility.yul\":4594:4595   */\n      0x00\n        /* \"#utility.yul\":4619:4672   */\n      tag_240\n        /* \"#utility.yul\":4664:4671   */\n      dup7\n        /* \"#utility.yul\":4655:4661   */\n      dup3\n        /* \"#utility.yul\":4644:4653   */\n      dup8\n        /* \"#utility.yul\":4640:4662   */\n      add\n        /* \"#utility.yul\":4619:4672   */\n      tag_153\n      jump\t// in\n    tag_240:\n        /* \"#utility.yul\":4609:4672   */\n      swap4\n      pop\n        /* \"#utility.yul\":4565:4682   */\n      pop\n        /* \"#utility.yul\":4721:4723   */\n      0x20\n        /* \"#utility.yul\":4747:4800   */\n      tag_241\n        /* \"#utility.yul\":4792:4799   */\n      dup7\n        /* \"#utility.yul\":4783:4789   */\n      dup3\n        /* \"#utility.yul\":4772:4781   */\n      dup8\n        /* \"#utility.yul\":4768:4790   */\n      add\n        /* \"#utility.yul\":4747:4800   */\n      tag_153\n      jump\t// in\n    tag_241:\n        /* \"#utility.yul\":4737:4800   */\n      swap3\n      pop\n        /* \"#utility.yul\":4692:4810   */\n      pop\n        /* \"#utility.yul\":4849:4851   */\n      0x40\n        /* \"#utility.yul\":4875:4928   */\n      tag_242\n        /* \"#utility.yul\":4920:4927   */\n      dup7\n        /* \"#utility.yul\":4911:4917   */\n      dup3\n        /* \"#utility.yul\":4900:4909   */\n      dup8\n        /* \"#utility.yul\":4896:4918   */\n      add\n        /* \"#utility.yul\":4875:4928   */\n      tag_162\n      jump\t// in\n    tag_242:\n        /* \"#utility.yul\":4865:4928   */\n      swap2\n      pop\n        /* \"#utility.yul\":4820:4938   */\n      pop\n        /* \"#utility.yul\":4326:4945   */\n      swap3\n      pop\n      swap3\n      pop\n      swap3\n      jump\t// out\n        /* \"#utility.yul\":4951:5037   */\n    tag_165:\n        /* \"#utility.yul\":4986:4993   */\n      0x00\n        /* \"#utility.yul\":5026:5030   */\n      0xff\n        /* \"#utility.yul\":5019:5024   */\n      dup3\n        /* \"#utility.yul\":5015:5031   */\n      and\n        /* \"#utility.yul\":5004:5031   */\n      swap1\n      pop\n        /* \"#utility.yul\":4951:5037   */\n      swap2\n      swap1\n      pop\n      jump\t// out\n        /* \"#utility.yul\":5043:5155   */\n    tag_166:\n        /* \"#utility.yul\":5126:5148   */\n      tag_245\n        /* \"#utility.yul\":5142:5147   */\n      dup2\n        /* \"#utility.yul\":5126:5148   */\n      tag_165\n      jump\t// in\n    tag_245:\n        /* \"#utility.yul\":5121:5124   */\n      dup3\n        /* \"#utility.yul\":5114:5149   */\n      mstore\n        /* \"#utility.yul\":5043:5155   */\n      pop\n      pop\n      jump\t// out\n        /* \"#utility.yul\":5161:5375   */\n    tag_47:\n        /* \"#utility.yul\":5250:5254   */\n      0x00\n        /* \"#utility.yul\":5288:5290   */\n      0x20\n        /* \"#utility.yul\":5277:5286   */\n      dup3\n        /* \"#utility.yul\":5273:5291   */\n      add\n        /* \"#utility.yul\":5265:5291   */\n      swap1\n      pop\n        /* \"#utility.yul\":5301:5368   */\n      tag_247\n        /* \"#utility.yul\":5365:5366   */\n      0x00\n        /* \"#utility.yul\":5354:5363   */\n      dup4\n        /* \"#utility.yul\":5350:5367   */\n      add\n        /* \"#utility.yul\":5341:5347   */\n      dup5\n        /* \"#utility.yul\":5301:5368   */\n      tag_166\n      jump\t// in\n    tag_247:\n        /* \"#utility.yul\":5161:5375   */\n      swap3\n      swap2\n      pop\n      pop\n      jump\t// out\n        /* \"#utility.yul\":5381:5710   */\n    tag_56:\n        /* \"#utility.yul\":5440:5446   */\n      0x00\n        /* \"#utility.yul\":5489:5491   */\n      0x20\n        /* \"#utility.yul\":5477:5486   */\n      dup3\n        /* \"#utility.yul\":5468:5475   */\n      dup5\n        /* \"#utility.yul\":5464:5487   */\n      sub\n        /* \"#utility.yul\":5460:5492   */\n      slt\n        /* \"#utility.yul\":5457:5576   */\n      iszero\n      tag_249\n      jumpi\n        /* \"#utility.yul\":5495:5574   */\n      tag_250\n      tag_148\n      jump\t// in\n    tag_250:\n        /* \"#utility.yul\":5457:5576   */\n    tag_249:\n        /* \"#utility.yul\":5615:5616   */\n      0x00\n        /* \"#utility.yul\":5640:5693   */\n      tag_251\n        /* \"#utility.yul\":5685:5692   */\n      dup5\n        /* \"#utility.yul\":5676:5682   */\n      dup3\n        /* \"#utility.yul\":5665:5674   */\n      dup6\n        /* \"#utility.yul\":5661:5683   */\n      add\n        /* \"#utility.yul\":5640:5693   */\n      tag_153\n      jump\t// in\n    tag_251:\n        /* \"#utility.yul\":5630:5693   */\n      swap2\n      pop\n        /* \"#utility.yul\":5586:5703   */\n      pop\n        /* \"#utility.yul\":5381:5710   */\n      swap3\n      swap2\n      pop\n      pop\n      jump\t// out\n        /* \"#utility.yul\":5716:5896   */\n    tag_167:\n        /* \"#utility.yul\":5764:5841   */\n      0x4e487b7100000000000000000000000000000000000000000000000000000000\n        /* \"#utility.yul\":5761:5762   */\n      0x00\n        /* \"#utility.yul\":5754:5842   */\n      mstore\n        /* \"#utility.yul\":5861:5865   */\n      0x22\n        /* \"#utility.yul\":5858:5859   */\n      0x04\n        /* \"#utility.yul\":5851:5866   */\n      mstore\n        /* \"#utility.yul\":5885:5889   */\n      0x24\n        /* \"#utility.yul\":5882:5883   */\n      0x00\n        /* \"#utility.yul\":5875:5890   */\n      revert\n        /* \"#utility.yul\":5902:6222   */\n    tag_78:\n        /* \"#utility.yul\":5946:5952   */\n      0x00\n        /* \"#utility.yul\":5983:5984   */\n      0x02\n        /* \"#utility.yul\":5977:5981   */\n      dup3\n        /* \"#utility.yul\":5973:5985   */\n      div\n        /* \"#utility.yul\":5963:5985   */\n      swap1\n      pop\n        /* \"#utility.yul\":6030:6031   */\n      0x01\n        /* \"#utility.yul\":6024:6028   */\n      dup3\n        /* \"#utility.yul\":6020:6032   */\n      and\n        /* \"#utility.yul\":6051:6069   */\n      dup1\n        /* \"#utility.yul\":6041:6122   */\n      tag_254\n      jumpi\n        /* \"#utility.yul\":6107:6111   */\n      0x7f\n        /* \"#utility.yul\":6099:6105   */\n      dup3\n        /* \"#utility.yul\":6095:6112   */\n      and\n        /* \"#utility.yul\":6085:6112   */\n      swap2\n      pop\n        /* \"#utility.yul\":6041:6122   */\n    tag_254:\n        /* \"#utility.yul\":6169:6171   */\n      0x20\n        /* \"#utility.yul\":6161:6167   */\n      dup3\n        /* \"#utility.yul\":6158:6172   */\n      lt\n        /* \"#utility.yul\":6138:6156   */\n      dup2\n        /* \"#utility.yul\":6135:6173   */\n      eq\n        /* \"#utility.yul\":6132:6216   */\n      iszero\n      tag_255\n      jumpi\n        /* \"#utility.yul\":6188:6206   */\n      tag_256\n      tag_167\n      jump\t// in\n    tag_256:\n        /* \"#utility.yul\":6132:6216   */\n    tag_255:\n        /* \"#utility.yul\":5953:6222   */\n      pop\n        /* \"#utility.yul\":5902:6222   */\n      swap2\n      swap1\n      pop\n      jump\t// out\n        /* \"#utility.yul\":6228:6535   */\n    tag_168:\n        /* \"#utility.yul\":6368:6402   */\n      0x45524332303a2054686520616d6f756e7420746f206265207472616e73666572\n        /* \"#utility.yul\":6364:6365   */\n      0x00\n        /* \"#utility.yul\":6356:6362   */\n      dup3\n        /* \"#utility.yul\":6352:6366   */\n      add\n        /* \"#utility.yul\":6345:6403   */\n      mstore\n        /* \"#utility.yul\":6437:6471   */\n      0x72656420657863656564732074686520616d6f756e74206f6620746f6b656e73\n        /* \"#utility.yul\":6432:6434   */\n      0x20\n        /* \"#utility.yul\":6424:6430   */\n      dup3\n        /* \"#utility.yul\":6420:6435   */\n      add\n        /* \"#utility.yul\":6413:6472   */\n      mstore\n        /* \"#utility.yul\":6506:6527   */\n      0x2068656c6420627920746865206f776e65722e00000000000000000000000000\n        /* \"#utility.yul\":6501:6503   */\n      0x40\n        /* \"#utility.yul\":6493:6499   */\n      dup3\n        /* \"#utility.yul\":6489:6504   */\n      add\n        /* \"#utility.yul\":6482:6528   */\n      mstore\n        /* \"#utility.yul\":6228:6535   */\n      pop\n      jump\t// out\n        /* \"#utility.yul\":6541:6907   */\n    tag_169:\n        /* \"#utility.yul\":6683:6686   */\n      0x00\n        /* \"#utility.yul\":6704:6771   */\n      tag_259\n        /* \"#utility.yul\":6768:6770   */\n      0x53\n        /* \"#utility.yul\":6763:6766   */\n      dup4\n        /* \"#utility.yul\":6704:6771   */\n      tag_157\n      jump\t// in\n    tag_259:\n        /* \"#utility.yul\":6697:6771   */\n      swap2\n      pop\n        /* \"#utility.yul\":6780:6873   */\n      tag_260\n        /* \"#utility.yul\":6869:6872   */\n      dup3\n        /* \"#utility.yul\":6780:6873   */\n      tag_168\n      jump\t// in\n    tag_260:\n        /* \"#utility.yul\":6898:6900   */\n      0x60\n        /* \"#utility.yul\":6893:6896   */\n      dup3\n        /* \"#utility.yul\":6889:6901   */\n      add\n        /* \"#utility.yul\":6882:6901   */\n      swap1\n      pop\n        /* \"#utility.yul\":6541:6907   */\n      swap2\n      swap1\n      pop\n      jump\t// out\n        /* \"#utility.yul\":6913:7332   */\n    tag_86:\n        /* \"#utility.yul\":7079:7083   */\n      0x00\n        /* \"#utility.yul\":7117:7119   */\n      0x20\n        /* \"#utility.yul\":7106:7115   */\n      dup3\n        /* \"#utility.yul\":7102:7120   */\n      add\n        /* \"#utility.yul\":7094:7120   */\n      swap1\n      pop\n        /* \"#utility.yul\":7166:7175   */\n      dup2\n        /* \"#utility.yul\":7160:7164   */\n      dup2\n        /* \"#utility.yul\":7156:7176   */\n      sub\n        /* \"#utility.yul\":7152:7153   */\n      0x00\n        /* \"#utility.yul\":7141:7150   */\n      dup4\n        /* \"#utility.yul\":7137:7154   */\n      add\n        /* \"#utility.yul\":7130:7177   */\n      mstore\n        /* \"#utility.yul\":7194:7325   */\n      tag_262\n        /* \"#utility.yul\":7320:7324   */\n      dup2\n        /* \"#utility.yul\":7194:7325   */\n      tag_169\n      jump\t// in\n    tag_262:\n        /* \"#utility.yul\":7186:7325   */\n      swap1\n      pop\n        /* \"#utility.yul\":6913:7332   */\n      swap2\n      swap1\n      pop\n      jump\t// out\n        /* \"#utility.yul\":7338:7565   */\n    tag_170:\n        /* \"#utility.yul\":7478:7512   */\n      0x45524332303a207472616e7366657220616d6f756e7420657863656564732061\n        /* \"#utility.yul\":7474:7475   */\n      0x00\n        /* \"#utility.yul\":7466:7472   */\n      dup3\n        /* \"#utility.yul\":7462:7476   */\n      add\n        /* \"#utility.yul\":7455:7513   */\n      mstore\n        /* \"#utility.yul\":7547:7557   */\n      0x6c6c6f77616e6365000000000000000000000000000000000000000000000000\n        /* \"#utility.yul\":7542:7544   */\n      0x20\n        /* \"#utility.yul\":7534:7540   */\n      dup3\n        /* \"#utility.yul\":7530:7545   */\n      add\n        /* \"#utility.yul\":7523:7558   */\n      mstore\n        /* \"#utility.yul\":7338:7565   */\n      pop\n      jump\t// out\n        /* \"#utility.yul\":7571:7937   */\n    tag_171:\n        /* \"#utility.yul\":7713:7716   */\n      0x00\n        /* \"#utility.yul\":7734:7801   */\n      tag_265\n        /* \"#utility.yul\":7798:7800   */\n      0x28\n        /* \"#utility.yul\":7793:7796   */\n      dup4\n        /* \"#utility.yul\":7734:7801   */\n      tag_157\n      jump\t// in\n    tag_265:\n        /* \"#utility.yul\":7727:7801   */\n      swap2\n      pop\n        /* \"#utility.yul\":7810:7903   */\n      tag_266\n        /* \"#utility.yul\":7899:7902   */\n      dup3\n        /* \"#utility.yul\":7810:7903   */\n      tag_170\n      jump\t// in\n    tag_266:\n        /* \"#utility.yul\":7928:7930   */\n      0x40\n        /* \"#utility.yul\":7923:7926   */\n      dup3\n        /* \"#utility.yul\":7919:7931   */\n      add\n        /* \"#utility.yul\":7912:7931   */\n      swap1\n      pop\n        /* \"#utility.yul\":7571:7937   */\n      swap2\n      swap1\n      pop\n      jump\t// out\n        /* \"#utility.yul\":7943:8362   */\n    tag_96:\n        /* \"#utility.yul\":8109:8113   */\n      0x00\n        /* \"#utility.yul\":8147:8149   */\n      0x20\n        /* \"#utility.yul\":8136:8145   */\n      dup3\n        /* \"#utility.yul\":8132:8150   */\n      add\n        /* \"#utility.yul\":8124:8150   */\n      swap1\n      pop\n        /* \"#utility.yul\":8196:8205   */\n      dup2\n        /* \"#utility.yul\":8190:8194   */\n      dup2\n        /* \"#utility.yul\":8186:8206   */\n      sub\n        /* \"#utility.yul\":8182:8183   */\n      0x00\n        /* \"#utility.yul\":8171:8180   */\n      dup4\n        /* \"#utility.yul\":8167:8184   */\n      add\n        /* \"#utility.yul\":8160:8207   */\n      mstore\n        /* \"#utility.yul\":8224:8355   */\n      tag_268\n        /* \"#utility.yul\":8350:8354   */\n      dup2\n        /* \"#utility.yul\":8224:8355   */\n      tag_171\n      jump\t// in\n    tag_268:\n        /* \"#utility.yul\":8216:8355   */\n      swap1\n      pop\n        /* \"#utility.yul\":7943:8362   */\n      swap2\n      swap1\n      pop\n      jump\t// out\n        /* \"#utility.yul\":8368:8548   */\n    tag_172:\n        /* \"#utility.yul\":8416:8493   */\n      0x4e487b7100000000000000000000000000000000000000000000000000000000\n        /* \"#utility.yul\":8413:8414   */\n      0x00\n        /* \"#utility.yul\":8406:8494   */\n      mstore\n        /* \"#utility.yul\":8513:8517   */\n      0x11\n        /* \"#utility.yul\":8510:8511   */\n      0x04\n        /* \"#utility.yul\":8503:8518   */\n      mstore\n        /* \"#utility.yul\":8537:8541   */\n      0x24\n        /* \"#utility.yul\":8534:8535   */\n      0x00\n        /* \"#utility.yul\":8527:8542   */\n      revert\n        /* \"#utility.yul\":8554:8745   */\n    tag_99:\n        /* \"#utility.yul\":8594:8598   */\n      0x00\n        /* \"#utility.yul\":8614:8634   */\n      tag_271\n        /* \"#utility.yul\":8632:8633   */\n      dup3\n        /* \"#utility.yul\":8614:8634   */\n      tag_154\n      jump\t// in\n    tag_271:\n        /* \"#utility.yul\":8609:8634   */\n      swap2\n      pop\n        /* \"#utility.yul\":8648:8668   */\n      tag_272\n        /* \"#utility.yul\":8666:8667   */\n      dup4\n        /* \"#utility.yul\":8648:8668   */\n      tag_154\n      jump\t// in\n    tag_272:\n        /* \"#utility.yul\":8643:8668   */\n      swap3\n      pop\n        /* \"#utility.yul\":8687:8688   */\n      dup3\n        /* \"#utility.yul\":8684:8685   */\n      dup3\n        /* \"#utility.yul\":8681:8689   */\n      lt\n        /* \"#utility.yul\":8678:8712   */\n      iszero\n      tag_273\n      jumpi\n        /* \"#utility.yul\":8692:8710   */\n      tag_274\n      tag_172\n      jump\t// in\n    tag_274:\n        /* \"#utility.yul\":8678:8712   */\n    tag_273:\n        /* \"#utility.yul\":8737:8738   */\n      dup3\n        /* \"#utility.yul\":8734:8735   */\n      dup3\n        /* \"#utility.yul\":8730:8739   */\n      sub\n        /* \"#utility.yul\":8722:8739   */\n      swap1\n      pop\n        /* \"#utility.yul\":8554:8745   */\n      swap3\n      swap2\n      pop\n      pop\n      jump\t// out\n        /* \"#utility.yul\":8751:8974   */\n    tag_173:\n        /* \"#utility.yul\":8891:8925   */\n      0x45524332303a20617070726f76652066726f6d20746865207a65726f20616464\n        /* \"#utility.yul\":8887:8888   */\n      0x00\n        /* \"#utility.yul\":8879:8885   */\n      dup3\n        /* \"#utility.yul\":8875:8889   */\n      add\n        /* \"#utility.yul\":8868:8926   */\n      mstore\n        /* \"#utility.yul\":8960:8966   */\n      0x7265737300000000000000000000000000000000000000000000000000000000\n        /* \"#utility.yul\":8955:8957   */\n      0x20\n        /* \"#utility.yul\":8947:8953   */\n      dup3\n        /* \"#utility.yul\":8943:8958   */\n      add\n        /* \"#utility.yul\":8936:8967   */\n      mstore\n        /* \"#utility.yul\":8751:8974   */\n      pop\n      jump\t// out\n        /* \"#utility.yul\":8980:9346   */\n    tag_174:\n        /* \"#utility.yul\":9122:9125   */\n      0x00\n        /* \"#utility.yul\":9143:9210   */\n      tag_277\n        /* \"#utility.yul\":9207:9209   */\n      0x24\n        /* \"#utility.yul\":9202:9205   */\n      dup4\n        /* \"#utility.yul\":9143:9210   */\n      tag_157\n      jump\t// in\n    tag_277:\n        /* \"#utility.yul\":9136:9210   */\n      swap2\n      pop\n        /* \"#utility.yul\":9219:9312   */\n      tag_278\n        /* \"#utility.yul\":9308:9311   */\n      dup3\n        /* \"#utility.yul\":9219:9312   */\n      tag_173\n      jump\t// in\n    tag_278:\n        /* \"#utility.yul\":9337:9339   */\n      0x40\n        /* \"#utility.yul\":9332:9335   */\n      dup3\n        /* \"#utility.yul\":9328:9340   */\n      add\n        /* \"#utility.yul\":9321:9340   */\n      swap1\n      pop\n        /* \"#utility.yul\":8980:9346   */\n      swap2\n      swap1\n      pop\n      jump\t// out\n        /* \"#utility.yul\":9352:9771   */\n    tag_125:\n        /* \"#utility.yul\":9518:9522   */\n      0x00\n        /* \"#utility.yul\":9556:9558   */\n      0x20\n        /* \"#utility.yul\":9545:9554   */\n      dup3\n        /* \"#utility.yul\":9541:9559   */\n      add\n        /* \"#utility.yul\":9533:9559   */\n      swap1\n      pop\n        /* \"#utility.yul\":9605:9614   */\n      dup2\n        /* \"#utility.yul\":9599:9603   */\n      dup2\n        /* \"#utility.yul\":9595:9615   */\n      sub\n        /* \"#utility.yul\":9591:9592   */\n      0x00\n        /* \"#utility.yul\":9580:9589   */\n      dup4\n        /* \"#utility.yul\":9576:9593   */\n      add\n        /* \"#utility.yul\":9569:9616   */\n      mstore\n        /* \"#utility.yul\":9633:9764   */\n      tag_280\n        /* \"#utility.yul\":9759:9763   */\n      dup2\n        /* \"#utility.yul\":9633:9764   */\n      tag_174\n      jump\t// in\n    tag_280:\n        /* \"#utility.yul\":9625:9764   */\n      swap1\n      pop\n        /* \"#utility.yul\":9352:9771   */\n      swap2\n      swap1\n      pop\n      jump\t// out\n        /* \"#utility.yul\":9777:9998   */\n    tag_175:\n        /* \"#utility.yul\":9917:9951   */\n      0x45524332303a20617070726f766520746f20746865207a65726f206164647265\n        /* \"#utility.yul\":9913:9914   */\n      0x00\n        /* \"#utility.yul\":9905:9911   */\n      dup3\n        /* \"#utility.yul\":9901:9915   */\n      add\n        /* \"#utility.yul\":9894:9952   */\n      mstore\n        /* \"#utility.yul\":9986:9990   */\n      0x7373000000000000000000000000000000000000000000000000000000000000\n        /* \"#utility.yul\":9981:9983   */\n      0x20\n        /* \"#utility.yul\":9973:9979   */\n      dup3\n        /* \"#utility.yul\":9969:9984   */\n      add\n        /* \"#utility.yul\":9962:9991   */\n      mstore\n        /* \"#utility.yul\":9777:9998   */\n      pop\n      jump\t// out\n        /* \"#utility.yul\":10004:10370   */\n    tag_176:\n        /* \"#utility.yul\":10146:10149   */\n      0x00\n        /* \"#utility.yul\":10167:10234   */\n      tag_283\n        /* \"#utility.yul\":10231:10233   */\n      0x22\n        /* \"#utility.yul\":10226:10229   */\n      dup4\n        /* \"#utility.yul\":10167:10234   */\n      tag_157\n      jump\t// in\n    tag_283:\n        /* \"#utility.yul\":10160:10234   */\n      swap2\n      pop\n        /* \"#utility.yul\":10243:10336   */\n      tag_284\n        /* \"#utility.yul\":10332:10335   */\n      dup3\n        /* \"#utility.yul\":10243:10336   */\n      tag_175\n      jump\t// in\n    tag_284:\n        /* \"#utility.yul\":10361:10363   */\n      0x40\n        /* \"#utility.yul\":10356:10359   */\n      dup3\n        /* \"#utility.yul\":10352:10364   */\n      add\n        /* \"#utility.yul\":10345:10364   */\n      swap1\n      pop\n        /* \"#utility.yul\":10004:10370   */\n      swap2\n      swap1\n      pop\n      jump\t// out\n        /* \"#utility.yul\":10376:10795   */\n    tag_128:\n        /* \"#utility.yul\":10542:10546   */\n      0x00\n        /* \"#utility.yul\":10580:10582   */\n      0x20\n        /* \"#utility.yul\":10569:10578   */\n      dup3\n        /* \"#utility.yul\":10565:10583   */\n      add\n        /* \"#utility.yul\":10557:10583   */\n      swap1\n      pop\n        /* \"#utility.yul\":10629:10638   */\n      dup2\n        /* \"#utility.yul\":10623:10627   */\n      dup2\n        /* \"#utility.yul\":10619:10639   */\n      sub\n        /* \"#utility.yul\":10615:10616   */\n      0x00\n        /* \"#utility.yul\":10604:10613   */\n      dup4\n        /* \"#utility.yul\":10600:10617   */\n      add\n        /* \"#utility.yul\":10593:10640   */\n      mstore\n        /* \"#utility.yul\":10657:10788   */\n      tag_286\n        /* \"#utility.yul\":10783:10787   */\n      dup2\n        /* \"#utility.yul\":10657:10788   */\n      tag_176\n      jump\t// in\n    tag_286:\n        /* \"#utility.yul\":10649:10788   */\n      swap1\n      pop\n        /* \"#utility.yul\":10376:10795   */\n      swap2\n      swap1\n      pop\n      jump\t// out\n        /* \"#utility.yul\":10801:10979   */\n    tag_177:\n        /* \"#utility.yul\":10941:10971   */\n      0x45524332303a20696e76616c69642063757272656e74416d6f756e7400000000\n        /* \"#utility.yul\":10937:10938   */\n      0x00\n        /* \"#utility.yul\":10929:10935   */\n      dup3\n        /* \"#utility.yul\":10925:10939   */\n      add\n        /* \"#utility.yul\":10918:10972   */\n      mstore\n        /* \"#utility.yul\":10801:10979   */\n      pop\n      jump\t// out\n        /* \"#utility.yul\":10985:11351   */\n    tag_178:\n        /* \"#utility.yul\":11127:11130   */\n      0x00\n        /* \"#utility.yul\":11148:11215   */\n      tag_289\n        /* \"#utility.yul\":11212:11214   */\n      0x1c\n        /* \"#utility.yul\":11207:11210   */\n      dup4\n        /* \"#utility.yul\":11148:11215   */\n      tag_157\n      jump\t// in\n    tag_289:\n        /* \"#utility.yul\":11141:11215   */\n      swap2\n      pop\n        /* \"#utility.yul\":11224:11317   */\n      tag_290\n        /* \"#utility.yul\":11313:11316   */\n      dup3\n        /* \"#utility.yul\":11224:11317   */\n      tag_177\n      jump\t// in\n    tag_290:\n        /* \"#utility.yul\":11342:11344   */\n      0x20\n        /* \"#utility.yul\":11337:11340   */\n      dup3\n        /* \"#utility.yul\":11333:11345   */\n      add\n        /* \"#utility.yul\":11326:11345   */\n      swap1\n      pop\n        /* \"#utility.yul\":10985:11351   */\n      swap2\n      swap1\n      pop\n      jump\t// out\n        /* \"#utility.yul\":11357:11776   */\n    tag_131:\n        /* \"#utility.yul\":11523:11527   */\n      0x00\n        /* \"#utility.yul\":11561:11563   */\n      0x20\n        /* \"#utility.yul\":11550:11559   */\n      dup3\n        /* \"#utility.yul\":11546:11564   */\n      add\n        /* \"#utility.yul\":11538:11564   */\n      swap1\n      pop\n        /* \"#utility.yul\":11610:11619   */\n      dup2\n        /* \"#utility.yul\":11604:11608   */\n      dup2\n        /* \"#utility.yul\":11600:11620   */\n      sub\n        /* \"#utility.yul\":11596:11597   */\n      0x00\n        /* \"#utility.yul\":11585:11594   */\n      dup4\n        /* \"#utility.yul\":11581:11598   */\n      add\n        /* \"#utility.yul\":11574:11621   */\n      mstore\n        /* \"#utility.yul\":11638:11769   */\n      tag_292\n        /* \"#utility.yul\":11764:11768   */\n      dup2\n        /* \"#utility.yul\":11638:11769   */\n      tag_178\n      jump\t// in\n    tag_292:\n        /* \"#utility.yul\":11630:11769   */\n      swap1\n      pop\n        /* \"#utility.yul\":11357:11776   */\n      swap2\n      swap1\n      pop\n      jump\t// out\n        /* \"#utility.yul\":11782:12114   */\n    tag_133:\n        /* \"#utility.yul\":11903:11907   */\n      0x00\n        /* \"#utility.yul\":11941:11943   */\n      0x40\n        /* \"#utility.yul\":11930:11939   */\n      dup3\n        /* \"#utility.yul\":11926:11944   */\n      add\n        /* \"#utility.yul\":11918:11944   */\n      swap1\n      pop\n        /* \"#utility.yul\":11954:12025   */\n      tag_294\n        /* \"#utility.yul\":12022:12023   */\n      0x00\n        /* \"#utility.yul\":12011:12020   */\n      dup4\n        /* \"#utility.yul\":12007:12024   */\n      add\n        /* \"#utility.yul\":11998:12004   */\n      dup6\n        /* \"#utility.yul\":11954:12025   */\n      tag_155\n      jump\t// in\n    tag_294:\n        /* \"#utility.yul\":12035:12107   */\n      tag_295\n        /* \"#utility.yul\":12103:12105   */\n      0x20\n        /* \"#utility.yul\":12092:12101   */\n      dup4\n        /* \"#utility.yul\":12088:12106   */\n      add\n        /* \"#utility.yul\":12079:12085   */\n      dup5\n        /* \"#utility.yul\":12035:12107   */\n      tag_155\n      jump\t// in\n    tag_295:\n        /* \"#utility.yul\":11782:12114   */\n      swap4\n      swap3\n      pop\n      pop\n      pop\n      jump\t// out\n        /* \"#utility.yul\":12120:12344   */\n    tag_179:\n        /* \"#utility.yul\":12260:12294   */\n      0x45524332303a207472616e736665722066726f6d20746865207a65726f206164\n        /* \"#utility.yul\":12256:12257   */\n      0x00\n        /* \"#utility.yul\":12248:12254   */\n      dup3\n        /* \"#utility.yul\":12244:12258   */\n      add\n        /* \"#utility.yul\":12237:12295   */\n      mstore\n        /* \"#utility.yul\":12329:12336   */\n      0x6472657373000000000000000000000000000000000000000000000000000000\n        /* \"#utility.yul\":12324:12326   */\n      0x20\n        /* \"#utility.yul\":12316:12322   */\n      dup3\n        /* \"#utility.yul\":12312:12327   */\n      add\n        /* \"#utility.yul\":12305:12337   */\n      mstore\n        /* \"#utility.yul\":12120:12344   */\n      pop\n      jump\t// out\n        /* \"#utility.yul\":12350:12716   */\n    tag_180:\n        /* \"#utility.yul\":12492:12495   */\n      0x00\n        /* \"#utility.yul\":12513:12580   */\n      tag_298\n        /* \"#utility.yul\":12577:12579   */\n      0x25\n        /* \"#utility.yul\":12572:12575   */\n      dup4\n        /* \"#utility.yul\":12513:12580   */\n      tag_157\n      jump\t// in\n    tag_298:\n        /* \"#utility.yul\":12506:12580   */\n      swap2\n      pop\n        /* \"#utility.yul\":12589:12682   */\n      tag_299\n        /* \"#utility.yul\":12678:12681   */\n      dup3\n        /* \"#utility.yul\":12589:12682   */\n      tag_179\n      jump\t// in\n    tag_299:\n        /* \"#utility.yul\":12707:12709   */\n      0x40\n        /* \"#utility.yul\":12702:12705   */\n      dup3\n        /* \"#utility.yul\":12698:12710   */\n      add\n        /* \"#utility.yul\":12691:12710   */\n      swap1\n      pop\n        /* \"#utility.yul\":12350:12716   */\n      swap2\n      swap1\n      pop\n      jump\t// out\n        /* \"#utility.yul\":12722:13141   */\n    tag_137:\n        /* \"#utility.yul\":12888:12892   */\n      0x00\n        /* \"#utility.yul\":12926:12928   */\n      0x20\n        /* \"#utility.yul\":12915:12924   */\n      dup3\n        /* \"#utility.yul\":12911:12929   */\n      add\n        /* \"#utility.yul\":12903:12929   */\n      swap1\n      pop\n        /* \"#utility.yul\":12975:12984   */\n      dup2\n        /* \"#utility.yul\":12969:12973   */\n      dup2\n        /* \"#utility.yul\":12965:12985   */\n      sub\n        /* \"#utility.yul\":12961:12962   */\n      0x00\n        /* \"#utility.yul\":12950:12959   */\n      dup4\n        /* \"#utility.yul\":12946:12963   */\n      add\n        /* \"#utility.yul\":12939:12986   */\n      mstore\n        /* \"#utility.yul\":13003:13134   */\n      tag_301\n        /* \"#utility.yul\":13129:13133   */\n      dup2\n        /* \"#utility.yul\":13003:13134   */\n      tag_180\n      jump\t// in\n    tag_301:\n        /* \"#utility.yul\":12995:13134   */\n      swap1\n      pop\n        /* \"#utility.yul\":12722:13141   */\n      swap2\n      swap1\n      pop\n      jump\t// out\n        /* \"#utility.yul\":13147:13369   */\n    tag_181:\n        /* \"#utility.yul\":13287:13321   */\n      0x45524332303a207472616e7366657220746f20746865207a65726f2061646472\n        /* \"#utility.yul\":13283:13284   */\n      0x00\n        /* \"#utility.yul\":13275:13281   */\n      dup3\n        /* \"#utility.yul\":13271:13285   */\n      add\n        /* \"#utility.yul\":13264:13322   */\n      mstore\n        /* \"#utility.yul\":13356:13361   */\n      0x6573730000000000000000000000000000000000000000000000000000000000\n        /* \"#utility.yul\":13351:13353   */\n      0x20\n        /* \"#utility.yul\":13343:13349   */\n      dup3\n        /* \"#utility.yul\":13339:13354   */\n      add\n        /* \"#utility.yul\":13332:13362   */\n      mstore\n        /* \"#utility.yul\":13147:13369   */\n      pop\n      jump\t// out\n        /* \"#utility.yul\":13375:13741   */\n    tag_182:\n        /* \"#utility.yul\":13517:13520   */\n      0x00\n        /* \"#utility.yul\":13538:13605   */\n      tag_304\n        /* \"#utility.yul\":13602:13604   */\n      0x23\n        /* \"#utility.yul\":13597:13600   */\n      dup4\n        /* \"#utility.yul\":13538:13605   */\n      tag_157\n      jump\t// in\n    tag_304:\n        /* \"#utility.yul\":13531:13605   */\n      swap2\n      pop\n        /* \"#utility.yul\":13614:13707   */\n      tag_305\n        /* \"#utility.yul\":13703:13706   */\n      dup3\n        /* \"#utility.yul\":13614:13707   */\n      tag_181\n      jump\t// in\n    tag_305:\n        /* \"#utility.yul\":13732:13734   */\n      0x40\n        /* \"#utility.yul\":13727:13730   */\n      dup3\n        /* \"#utility.yul\":13723:13735   */\n      add\n        /* \"#utility.yul\":13716:13735   */\n      swap1\n      pop\n        /* \"#utility.yul\":13375:13741   */\n      swap2\n      swap1\n      pop\n      jump\t// out\n        /* \"#utility.yul\":13747:14166   */\n    tag_140:\n        /* \"#utility.yul\":13913:13917   */\n      0x00\n        /* \"#utility.yul\":13951:13953   */\n      0x20\n        /* \"#utility.yul\":13940:13949   */\n      dup3\n        /* \"#utility.yul\":13936:13954   */\n      add\n        /* \"#utility.yul\":13928:13954   */\n      swap1\n      pop\n        /* \"#utility.yul\":14000:14009   */\n      dup2\n        /* \"#utility.yul\":13994:13998   */\n      dup2\n        /* \"#utility.yul\":13990:14010   */\n      sub\n        /* \"#utility.yul\":13986:13987   */\n      0x00\n        /* \"#utility.yul\":13975:13984   */\n      dup4\n        /* \"#utility.yul\":13971:13988   */\n      add\n        /* \"#utility.yul\":13964:14011   */\n      mstore\n        /* \"#utility.yul\":14028:14159   */\n      tag_307\n        /* \"#utility.yul\":14154:14158   */\n      dup2\n        /* \"#utility.yul\":14028:14159   */\n      tag_182\n      jump\t// in\n    tag_307:\n        /* \"#utility.yul\":14020:14159   */\n      swap1\n      pop\n        /* \"#utility.yul\":13747:14166   */\n      swap2\n      swap1\n      pop\n      jump\t// out\n        /* \"#utility.yul\":14172:14397   */\n    tag_183:\n        /* \"#utility.yul\":14312:14346   */\n      0x45524332303a207472616e7366657220616d6f756e7420657863656564732062\n        /* \"#utility.yul\":14308:14309   */\n      0x00\n        /* \"#utility.yul\":14300:14306   */\n      dup3\n        /* \"#utility.yul\":14296:14310   */\n      add\n        /* \"#utility.yul\":14289:14347   */\n      mstore\n        /* \"#utility.yul\":14381:14389   */\n      0x616c616e63650000000000000000000000000000000000000000000000000000\n        /* \"#utility.yul\":14376:14378   */\n      0x20\n        /* \"#utility.yul\":14368:14374   */\n      dup3\n        /* \"#utility.yul\":14364:14379   */\n      add\n        /* \"#utility.yul\":14357:14390   */\n      mstore\n        /* \"#utility.yul\":14172:14397   */\n      pop\n      jump\t// out\n        /* \"#utility.yul\":14403:14769   */\n    tag_184:\n        /* \"#utility.yul\":14545:14548   */\n      0x00\n        /* \"#utility.yul\":14566:14633   */\n      tag_310\n        /* \"#utility.yul\":14630:14632   */\n      0x26\n        /* \"#utility.yul\":14625:14628   */\n      dup4\n        /* \"#utility.yul\":14566:14633   */\n      tag_157\n      jump\t// in\n    tag_310:\n        /* \"#utility.yul\":14559:14633   */\n      swap2\n      pop\n        /* \"#utility.yul\":14642:14735   */\n      tag_311\n        /* \"#utility.yul\":14731:14734   */\n      dup3\n        /* \"#utility.yul\":14642:14735   */\n      tag_183\n      jump\t// in\n    tag_311:\n        /* \"#utility.yul\":14760:14762   */\n      0x40\n        /* \"#utility.yul\":14755:14758   */\n      dup3\n        /* \"#utility.yul\":14751:14763   */\n      add\n        /* \"#utility.yul\":14744:14763   */\n      swap1\n      pop\n        /* \"#utility.yul\":14403:14769   */\n      swap2\n      swap1\n      pop\n      jump\t// out\n        /* \"#utility.yul\":14775:15194   */\n    tag_143:\n        /* \"#utility.yul\":14941:14945   */\n      0x00\n        /* \"#utility.yul\":14979:14981   */\n      0x20\n        /* \"#utility.yul\":14968:14977   */\n      dup3\n        /* \"#utility.yul\":14964:14982   */\n      add\n        /* \"#utility.yul\":14956:14982   */\n      swap1\n      pop\n        /* \"#utility.yul\":15028:15037   */\n      dup2\n        /* \"#utility.yul\":15022:15026   */\n      dup2\n        /* \"#utility.yul\":15018:15038   */\n      sub\n        /* \"#utility.yul\":15014:15015   */\n      0x00\n        /* \"#utility.yul\":15003:15012   */\n      dup4\n        /* \"#utility.yul\":14999:15016   */\n      add\n        /* \"#utility.yul\":14992:15039   */\n      mstore\n        /* \"#utility.yul\":15056:15187   */\n      tag_313\n        /* \"#utility.yul\":15182:15186   */\n      dup2\n        /* \"#utility.yul\":15056:15187   */\n      tag_184\n      jump\t// in\n    tag_313:\n        /* \"#utility.yul\":15048:15187   */\n      swap1\n      pop\n        /* \"#utility.yul\":14775:15194   */\n      swap2\n      swap1\n      pop\n      jump\t// out\n        /* \"#utility.yul\":15200:15505   */\n    tag_146:\n        /* \"#utility.yul\":15240:15243   */\n      0x00\n        /* \"#utility.yul\":15259:15279   */\n      tag_315\n        /* \"#utility.yul\":15277:15278   */\n      dup3\n        /* \"#utility.yul\":15259:15279   */\n      tag_154\n      jump\t// in\n    tag_315:\n        /* \"#utility.yul\":15254:15279   */\n      swap2\n      pop\n        /* \"#utility.yul\":15293:15313   */\n      tag_316\n        /* \"#utility.yul\":15311:15312   */\n      dup4\n        /* \"#utility.yul\":15293:15313   */\n      tag_154\n      jump\t// in\n    tag_316:\n        /* \"#utility.yul\":15288:15313   */\n      swap3\n      pop\n        /* \"#utility.yul\":15447:15448   */\n      dup3\n        /* \"#utility.yul\":15379:15445   */\n      0xffffffffffffffffffffffffffffffffffffffffffffffffffffffffffffffff\n        /* \"#utility.yul\":15375:15449   */\n      sub\n        /* \"#utility.yul\":15372:15373   */\n      dup3\n        /* \"#utility.yul\":15369:15450   */\n      gt\n        /* \"#utility.yul\":15366:15473   */\n      iszero\n      tag_317\n      jumpi\n        /* \"#utility.yul\":15453:15471   */\n      tag_318\n      tag_172\n      jump\t// in\n    tag_318:\n        /* \"#utility.yul\":15366:15473   */\n    tag_317:\n        /* \"#utility.yul\":15497:15498   */\n      dup3\n        /* \"#utility.yul\":15494:15495   */\n      dup3\n        /* \"#utility.yul\":15490:15499   */\n      add\n        /* \"#utility.yul\":15483:15499   */\n      swap1\n      pop\n        /* \"#utility.yul\":15200:15505   */\n      swap3\n      swap2\n      pop\n      pop\n      jump\t// out\n\n    auxdata: 0xa2646970667358221220d87482280121047819a9899f668f0d10de7b74bc3988f33854f61c020cb7b9eb64736f6c634300080a0033\n}\n",
				"bytecode": {
					"linkReferences": {},
					"object": "6080604052670de0b6b3a76400006006553480156200001d57600080fd5b5060405162001bdb38038062001bdb833981810160405281019062000043919062000345565b81600390805190602001906200005b929190620000f8565b50806004908051906020019062000074929190620000f8565b506012600560006101000a81548160ff021916908360ff1602179055506006546305f5e100620000a5919062000403565b6002819055506002546000803373ffffffffffffffffffffffffffffffffffffffff1673ffffffffffffffffffffffffffffffffffffffff168152602001908152602001600020819055505050620004c9565b828054620001069062000493565b90600052602060002090601f0160209004810192826200012a576000855562000176565b82601f106200014557805160ff191683800117855562000176565b8280016001018555821562000176579182015b828111156200017557825182559160200191906001019062000158565b5b50905062000185919062000189565b5090565b5b80821115620001a45760008160009055506001016200018a565b5090565b6000604051905090565b600080fd5b600080fd5b600080fd5b600080fd5b6000601f19601f8301169050919050565b7f4e487b7100000000000000000000000000000000000000000000000000000000600052604160045260246000fd5b6200021182620001c6565b810181811067ffffffffffffffff82111715620002335762000232620001d7565b5b80604052505050565b600062000248620001a8565b905062000256828262000206565b919050565b600067ffffffffffffffff821115620002795762000278620001d7565b5b6200028482620001c6565b9050602081019050919050565b60005b83811015620002b157808201518184015260208101905062000294565b83811115620002c1576000848401525b50505050565b6000620002de620002d8846200025b565b6200023c565b905082815260208101848484011115620002fd57620002fc620001c1565b5b6200030a84828562000291565b509392505050565b600082601f8301126200032a5762000329620001bc565b5b81516200033c848260208601620002c7565b91505092915050565b600080604083850312156200035f576200035e620001b2565b5b600083015167ffffffffffffffff81111562000380576200037f620001b7565b5b6200038e8582860162000312565b925050602083015167ffffffffffffffff811115620003b257620003b1620001b7565b5b620003c08582860162000312565b9150509250929050565b6000819050919050565b7f4e487b7100000000000000000000000000000000000000000000000000000000600052601160045260246000fd5b60006200041082620003ca565b91506200041d83620003ca565b9250817fffffffffffffffffffffffffffffffffffffffffffffffffffffffffffffffff0483118215151615620004595762000458620003d4565b5b828202905092915050565b7f4e487b7100000000000000000000000000000000000000000000000000000000600052602260045260246000fd5b60006002820490506001821680620004ac57607f821691505b60208210811415620004c357620004c262000464565b5b50919050565b61170280620004d96000396000f3fe608060405234801561001057600080fd5b50600436106100ea5760003560e01c80633eaaf86b1161008c578063a9059cbb11610066578063a9059cbb14610263578063b09f126614610293578063d28d8852146102b1578063dd62ed3e146102cf576100ea565b80633eaaf86b146101f757806370a082311461021557806395d89b4114610245576100ea565b806318160ddd116100c857806318160ddd1461016d57806323b872dd1461018b578063313ce567146101bb57806332424aa3146101d9576100ea565b8063024c2ddd146100ef57806306fdde031461011f578063095ea7b31461013d575b600080fd5b61010960048036038101906101049190610e71565b6102ff565b6040516101169190610eca565b60405180910390f35b610127610324565b6040516101349190610f7e565b60405180910390f35b61015760048036038101906101529190610fcc565b6103b6565b6040516101649190611027565b60405180910390f35b6101756104d0565b6040516101829190610eca565b60405180910390f35b6101a560048036038101906101a09190611042565b6104da565b6040516101b29190611027565b60405180910390f35b6101c361064a565b6040516101d091906110b1565b60405180910390f35b6101e1610661565b6040516101ee91906110b1565b60405180910390f35b6101ff610674565b60405161020c9190610eca565b60405180910390f35b61022f600480360381019061022a91906110cc565b61067a565b60405161023c9190610eca565b60405180910390f35b61024d6106c2565b60405161025a9190610f7e565b60405180910390f35b61027d60048036038101906102789190610fcc565b610754565b60405161028a9190611027565b60405180910390f35b61029b6107d0565b6040516102a89190610f7e565b60405180910390f35b6102b961085e565b6040516102c69190610f7e565b60405180910390f35b6102e960048036038101906102e49190610e71565b6108ec565b6040516102f69190610eca565b60405180910390f35b6001602052816000526040600020602052806000526040600020600091509150505481565b60606003805461033390611128565b80601f016020809104026020016040519081016040528092919081815260200182805461035f90611128565b80156103ac5780601f10610381576101008083540402835291602001916103ac565b820191906000526020600020905b81548152906001019060200180831161038f57829003601f168201915b5050505050905090565b600080600160003373ffffffffffffffffffffffffffffffffffffffff1673ffffffffffffffffffffffffffffffffffffffff16815260200190815260200160002060008573ffffffffffffffffffffffffffffffffffffffff1673ffffffffffffffffffffffffffffffffffffffff168152602001908152602001600020549050826000803373ffffffffffffffffffffffffffffffffffffffff1673ffffffffffffffffffffffffffffffffffffffff1681526020019081526020016000205410156104b9576040517f08c379a00000000000000000000000000000000000000000000000000000000081526004016104b0906111f2565b60405180910390fd5b6104c533858386610973565b600191505092915050565b6000600254905090565b60006104e7848484610bff565b8273ffffffffffffffffffffffffffffffffffffffff168473ffffffffffffffffffffffffffffffffffffffff163373ffffffffffffffffffffffffffffffffffffffff167fd1398bee19313d6bf672ccb116e51f4a1a947e91c757907f51fbb5b5e56c698f8560405161055b9190610eca565b60405180910390a46000600160008673ffffffffffffffffffffffffffffffffffffffff1673ffffffffffffffffffffffffffffffffffffffff16815260200190815260200160002060003373ffffffffffffffffffffffffffffffffffffffff1673ffffffffffffffffffffffffffffffffffffffff16815260200190815260200160002054905082811015610627576040517f08c379a000000000000000000000000000000000000000000000000000000000815260040161061e90611284565b60405180910390fd5b61063e853383868561063991906112d3565b610973565b60019150509392505050565b6000600560009054906101000a900460ff16905090565b600560009054906101000a900460ff1681565b60025481565b60008060008373ffffffffffffffffffffffffffffffffffffffff1673ffffffffffffffffffffffffffffffffffffffff168152602001908152602001600020549050919050565b6060600480546106d190611128565b80601f01602080910402602001604051908101604052809291908181526020018280546106fd90611128565b801561074a5780601f1061071f5761010080835404028352916020019161074a565b820191906000526020600020905b81548152906001019060200180831161072d57829003601f168201915b5050505050905090565b6000610761338484610bff565b8273ffffffffffffffffffffffffffffffffffffffff163373ffffffffffffffffffffffffffffffffffffffff167fddf252ad1be2c89b69c2b068fc378daa952ba7f163c4a11628f55a4df523b3ef846040516107be9190610eca565b60405180910390a36001905092915050565b600480546107dd90611128565b80601f016020809104026020016040519081016040528092919081815260200182805461080990611128565b80156108565780601f1061082b57610100808354040283529160200191610856565b820191906000526020600020905b81548152906001019060200180831161083957829003601f168201915b505050505081565b6003805461086b90611128565b80601f016020809104026020016040519081016040528092919081815260200182805461089790611128565b80156108e45780601f106108b9576101008083540402835291602001916108e4565b820191906000526020600020905b8154815290600101906020018083116108c757829003601f168201915b505050505081565b6000600160008473ffffffffffffffffffffffffffffffffffffffff1673ffffffffffffffffffffffffffffffffffffffff16815260200190815260200160002060008373ffffffffffffffffffffffffffffffffffffffff1673ffffffffffffffffffffffffffffffffffffffff16815260200190815260200160002054905092915050565b600073ffffffffffffffffffffffffffffffffffffffff168473ffffffffffffffffffffffffffffffffffffffff1614156109e3576040517f08c379a00000000000000000000000000000000000000000000000000000000081526004016109da90611379565b60405180910390fd5b600073ffffffffffffffffffffffffffffffffffffffff168373ffffffffffffffffffffffffffffffffffffffff161415610a53576040517f08c379a0000000000000000000000000000000000000000000000000000000008152600401610a4a9061140b565b60405180910390fd5b600160008573ffffffffffffffffffffffffffffffffffffffff1673ffffffffffffffffffffffffffffffffffffffff16815260200190815260200160002060008473ffffffffffffffffffffffffffffffffffffffff1673ffffffffffffffffffffffffffffffffffffffff168152602001908152602001600020548214610b11576040517f08c379a0000000000000000000000000000000000000000000000000000000008152600401610b0890611477565b60405180910390fd5b80600160008673ffffffffffffffffffffffffffffffffffffffff1673ffffffffffffffffffffffffffffffffffffffff16815260200190815260200160002060008573ffffffffffffffffffffffffffffffffffffffff1673ffffffffffffffffffffffffffffffffffffffff168152602001908152602001600020819055508273ffffffffffffffffffffffffffffffffffffffff168473ffffffffffffffffffffffffffffffffffffffff167fb3fd5071835887567a0671151121894ddccc2842f1d10bedad13e0d17cace9a78484604051610bf1929190611497565b60405180910390a350505050565b600073ffffffffffffffffffffffffffffffffffffffff168373ffffffffffffffffffffffffffffffffffffffff161415610c6f576040517f08c379a0000000000000000000000000000000000000000000000000000000008152600401610c6690611532565b60405180910390fd5b600073ffffffffffffffffffffffffffffffffffffffff168273ffffffffffffffffffffffffffffffffffffffff161415610cdf576040517f08c379a0000000000000000000000000000000000000000000000000000000008152600401610cd6906115c4565b60405180910390fd5b60008060008573ffffffffffffffffffffffffffffffffffffffff1673ffffffffffffffffffffffffffffffffffffffff16815260200190815260200160002054905081811015610d65576040517f08c379a0000000000000000000000000000000000000000000000000000000008152600401610d5c90611656565b60405180910390fd5b8181610d7191906112d3565b6000808673ffffffffffffffffffffffffffffffffffffffff1673ffffffffffffffffffffffffffffffffffffffff16815260200190815260200160002081905550816000808573ffffffffffffffffffffffffffffffffffffffff1673ffffffffffffffffffffffffffffffffffffffff1681526020019081526020016000206000828254610e019190611676565b9250508190555050505050565b600080fd5b600073ffffffffffffffffffffffffffffffffffffffff82169050919050565b6000610e3e82610e13565b9050919050565b610e4e81610e33565b8114610e5957600080fd5b50565b600081359050610e6b81610e45565b92915050565b60008060408385031215610e8857610e87610e0e565b5b6000610e9685828601610e5c565b9250506020610ea785828601610e5c565b9150509250929050565b6000819050919050565b610ec481610eb1565b82525050565b6000602082019050610edf6000830184610ebb565b92915050565b600081519050919050565b600082825260208201905092915050565b60005b83811015610f1f578082015181840152602081019050610f04565b83811115610f2e576000848401525b50505050565b6000601f19601f8301169050919050565b6000610f5082610ee5565b610f5a8185610ef0565b9350610f6a818560208601610f01565b610f7381610f34565b840191505092915050565b60006020820190508181036000830152610f988184610f45565b905092915050565b610fa981610eb1565b8114610fb457600080fd5b50565b600081359050610fc681610fa0565b92915050565b60008060408385031215610fe357610fe2610e0e565b5b6000610ff185828601610e5c565b925050602061100285828601610fb7565b9150509250929050565b60008115159050919050565b6110218161100c565b82525050565b600060208201905061103c6000830184611018565b92915050565b60008060006060848603121561105b5761105a610e0e565b5b600061106986828701610e5c565b935050602061107a86828701610e5c565b925050604061108b86828701610fb7565b9150509250925092565b600060ff82169050919050565b6110ab81611095565b82525050565b60006020820190506110c660008301846110a2565b92915050565b6000602082840312156110e2576110e1610e0e565b5b60006110f084828501610e5c565b91505092915050565b7f4e487b7100000000000000000000000000000000000000000000000000000000600052602260045260246000fd5b6000600282049050600182168061114057607f821691505b60208210811415611154576111536110f9565b5b50919050565b7f45524332303a2054686520616d6f756e7420746f206265207472616e7366657260008201527f72656420657863656564732074686520616d6f756e74206f6620746f6b656e7360208201527f2068656c6420627920746865206f776e65722e00000000000000000000000000604082015250565b60006111dc605383610ef0565b91506111e78261115a565b606082019050919050565b6000602082019050818103600083015261120b816111cf565b9050919050565b7f45524332303a207472616e7366657220616d6f756e742065786365656473206160008201527f6c6c6f77616e6365000000000000000000000000000000000000000000000000602082015250565b600061126e602883610ef0565b915061127982611212565b604082019050919050565b6000602082019050818103600083015261129d81611261565b9050919050565b7f4e487b7100000000000000000000000000000000000000000000000000000000600052601160045260246000fd5b60006112de82610eb1565b91506112e983610eb1565b9250828210156112fc576112fb6112a4565b5b828203905092915050565b7f45524332303a20617070726f76652066726f6d20746865207a65726f2061646460008201527f7265737300000000000000000000000000000000000000000000000000000000602082015250565b6000611363602483610ef0565b915061136e82611307565b604082019050919050565b6000602082019050818103600083015261139281611356565b9050919050565b7f45524332303a20617070726f766520746f20746865207a65726f20616464726560008201527f7373000000000000000000000000000000000000000000000000000000000000602082015250565b60006113f5602283610ef0565b915061140082611399565b604082019050919050565b60006020820190508181036000830152611424816113e8565b9050919050565b7f45524332303a20696e76616c69642063757272656e74416d6f756e7400000000600082015250565b6000611461601c83610ef0565b915061146c8261142b565b602082019050919050565b6000602082019050818103600083015261149081611454565b9050919050565b60006040820190506114ac6000830185610ebb565b6114b96020830184610ebb565b9392505050565b7f45524332303a207472616e736665722066726f6d20746865207a65726f20616460008201527f6472657373000000000000000000000000000000000000000000000000000000602082015250565b600061151c602583610ef0565b9150611527826114c0565b604082019050919050565b6000602082019050818103600083015261154b8161150f565b9050919050565b7f45524332303a207472616e7366657220746f20746865207a65726f206164647260008201527f6573730000000000000000000000000000000000000000000000000000000000602082015250565b60006115ae602383610ef0565b91506115b982611552565b604082019050919050565b600060208201905081810360008301526115dd816115a1565b9050919050565b7f45524332303a207472616e7366657220616d6f756e742065786365656473206260008201527f616c616e63650000000000000000000000000000000000000000000000000000602082015250565b6000611640602683610ef0565b915061164b826115e4565b604082019050919050565b6000602082019050818103600083015261166f81611633565b9050919050565b600061168182610eb1565b915061168c83610eb1565b9250827fffffffffffffffffffffffffffffffffffffffffffffffffffffffffffffffff038211156116c1576116c06112a4565b5b82820190509291505056fea2646970667358221220d87482280121047819a9899f668f0d10de7b74bc3988f33854f61c020cb7b9eb64736f6c634300080a0033",
					"opcodes": "PUSH1 0x80 PUSH1 0x40 MSTORE PUSH8 0xDE0B6B3A7640000 PUSH1 0x6 SSTORE CALLVALUE DUP1 ISZERO PUSH3 0x1D JUMPI PUSH1 0x0 DUP1 REVERT JUMPDEST POP PUSH1 0x40 MLOAD PUSH3 0x1BDB CODESIZE SUB DUP1 PUSH3 0x1BDB DUP4 CODECOPY DUP2 DUP2 ADD PUSH1 0x40 MSTORE DUP2 ADD SWAP1 PUSH3 0x43 SWAP2 SWAP1 PUSH3 0x345 JUMP JUMPDEST DUP2 PUSH1 0x3 SWAP1 DUP1 MLOAD SWAP1 PUSH1 0x20 ADD SWAP1 PUSH3 0x5B SWAP3 SWAP2 SWAP1 PUSH3 0xF8 JUMP JUMPDEST POP DUP1 PUSH1 0x4 SWAP1 DUP1 MLOAD SWAP1 PUSH1 0x20 ADD SWAP1 PUSH3 0x74 SWAP3 SWAP2 SWAP1 PUSH3 0xF8 JUMP JUMPDEST POP PUSH1 0x12 PUSH1 0x5 PUSH1 0x0 PUSH2 0x100 EXP DUP2 SLOAD DUP2 PUSH1 0xFF MUL NOT AND SWAP1 DUP4 PUSH1 0xFF AND MUL OR SWAP1 SSTORE POP PUSH1 0x6 SLOAD PUSH4 0x5F5E100 PUSH3 0xA5 SWAP2 SWAP1 PUSH3 0x403 JUMP JUMPDEST PUSH1 0x2 DUP2 SWAP1 SSTORE POP PUSH1 0x2 SLOAD PUSH1 0x0 DUP1 CALLER PUSH20 0xFFFFFFFFFFFFFFFFFFFFFFFFFFFFFFFFFFFFFFFF AND PUSH20 0xFFFFFFFFFFFFFFFFFFFFFFFFFFFFFFFFFFFFFFFF AND DUP2 MSTORE PUSH1 0x20 ADD SWAP1 DUP2 MSTORE PUSH1 0x20 ADD PUSH1 0x0 KECCAK256 DUP2 SWAP1 SSTORE POP POP POP PUSH3 0x4C9 JUMP JUMPDEST DUP3 DUP1 SLOAD PUSH3 0x106 SWAP1 PUSH3 0x493 JUMP JUMPDEST SWAP1 PUSH1 0x0 MSTORE PUSH1 0x20 PUSH1 0x0 KECCAK256 SWAP1 PUSH1 0x1F ADD PUSH1 0x20 SWAP1 DIV DUP2 ADD SWAP3 DUP3 PUSH3 0x12A JUMPI PUSH1 0x0 DUP6 SSTORE PUSH3 0x176 JUMP JUMPDEST DUP3 PUSH1 0x1F LT PUSH3 0x145 JUMPI DUP1 MLOAD PUSH1 0xFF NOT AND DUP4 DUP1 ADD OR DUP6 SSTORE PUSH3 0x176 JUMP JUMPDEST DUP3 DUP1 ADD PUSH1 0x1 ADD DUP6 SSTORE DUP3 ISZERO PUSH3 0x176 JUMPI SWAP2 DUP3 ADD JUMPDEST DUP3 DUP2 GT ISZERO PUSH3 0x175 JUMPI DUP3 MLOAD DUP3 SSTORE SWAP2 PUSH1 0x20 ADD SWAP2 SWAP1 PUSH1 0x1 ADD SWAP1 PUSH3 0x158 JUMP JUMPDEST JUMPDEST POP SWAP1 POP PUSH3 0x185 SWAP2 SWAP1 PUSH3 0x189 JUMP JUMPDEST POP SWAP1 JUMP JUMPDEST JUMPDEST DUP1 DUP3 GT ISZERO PUSH3 0x1A4 JUMPI PUSH1 0x0 DUP2 PUSH1 0x0 SWAP1 SSTORE POP PUSH1 0x1 ADD PUSH3 0x18A JUMP JUMPDEST POP SWAP1 JUMP JUMPDEST PUSH1 0x0 PUSH1 0x40 MLOAD SWAP1 POP SWAP1 JUMP JUMPDEST PUSH1 0x0 DUP1 REVERT JUMPDEST PUSH1 0x0 DUP1 REVERT JUMPDEST PUSH1 0x0 DUP1 REVERT JUMPDEST PUSH1 0x0 DUP1 REVERT JUMPDEST PUSH1 0x0 PUSH1 0x1F NOT PUSH1 0x1F DUP4 ADD AND SWAP1 POP SWAP2 SWAP1 POP JUMP JUMPDEST PUSH32 0x4E487B7100000000000000000000000000000000000000000000000000000000 PUSH1 0x0 MSTORE PUSH1 0x41 PUSH1 0x4 MSTORE PUSH1 0x24 PUSH1 0x0 REVERT JUMPDEST PUSH3 0x211 DUP3 PUSH3 0x1C6 JUMP JUMPDEST DUP2 ADD DUP2 DUP2 LT PUSH8 0xFFFFFFFFFFFFFFFF DUP3 GT OR ISZERO PUSH3 0x233 JUMPI PUSH3 0x232 PUSH3 0x1D7 JUMP JUMPDEST JUMPDEST DUP1 PUSH1 0x40 MSTORE POP POP POP JUMP JUMPDEST PUSH1 0x0 PUSH3 0x248 PUSH3 0x1A8 JUMP JUMPDEST SWAP1 POP PUSH3 0x256 DUP3 DUP3 PUSH3 0x206 JUMP JUMPDEST SWAP2 SWAP1 POP JUMP JUMPDEST PUSH1 0x0 PUSH8 0xFFFFFFFFFFFFFFFF DUP3 GT ISZERO PUSH3 0x279 JUMPI PUSH3 0x278 PUSH3 0x1D7 JUMP JUMPDEST JUMPDEST PUSH3 0x284 DUP3 PUSH3 0x1C6 JUMP JUMPDEST SWAP1 POP PUSH1 0x20 DUP2 ADD SWAP1 POP SWAP2 SWAP1 POP JUMP JUMPDEST PUSH1 0x0 JUMPDEST DUP4 DUP2 LT ISZERO PUSH3 0x2B1 JUMPI DUP1 DUP3 ADD MLOAD DUP2 DUP5 ADD MSTORE PUSH1 0x20 DUP2 ADD SWAP1 POP PUSH3 0x294 JUMP JUMPDEST DUP4 DUP2 GT ISZERO PUSH3 0x2C1 JUMPI PUSH1 0x0 DUP5 DUP5 ADD MSTORE JUMPDEST POP POP POP POP JUMP JUMPDEST PUSH1 0x0 PUSH3 0x2DE PUSH3 0x2D8 DUP5 PUSH3 0x25B JUMP JUMPDEST PUSH3 0x23C JUMP JUMPDEST SWAP1 POP DUP3 DUP2 MSTORE PUSH1 0x20 DUP2 ADD DUP5 DUP5 DUP5 ADD GT ISZERO PUSH3 0x2FD JUMPI PUSH3 0x2FC PUSH3 0x1C1 JUMP JUMPDEST JUMPDEST PUSH3 0x30A DUP5 DUP3 DUP6 PUSH3 0x291 JUMP JUMPDEST POP SWAP4 SWAP3 POP POP POP JUMP JUMPDEST PUSH1 0x0 DUP3 PUSH1 0x1F DUP4 ADD SLT PUSH3 0x32A JUMPI PUSH3 0x329 PUSH3 0x1BC JUMP JUMPDEST JUMPDEST DUP2 MLOAD PUSH3 0x33C DUP5 DUP3 PUSH1 0x20 DUP7 ADD PUSH3 0x2C7 JUMP JUMPDEST SWAP2 POP POP SWAP3 SWAP2 POP POP JUMP JUMPDEST PUSH1 0x0 DUP1 PUSH1 0x40 DUP4 DUP6 SUB SLT ISZERO PUSH3 0x35F JUMPI PUSH3 0x35E PUSH3 0x1B2 JUMP JUMPDEST JUMPDEST PUSH1 0x0 DUP4 ADD MLOAD PUSH8 0xFFFFFFFFFFFFFFFF DUP2 GT ISZERO PUSH3 0x380 JUMPI PUSH3 0x37F PUSH3 0x1B7 JUMP JUMPDEST JUMPDEST PUSH3 0x38E DUP6 DUP3 DUP7 ADD PUSH3 0x312 JUMP JUMPDEST SWAP3 POP POP PUSH1 0x20 DUP4 ADD MLOAD PUSH8 0xFFFFFFFFFFFFFFFF DUP2 GT ISZERO PUSH3 0x3B2 JUMPI PUSH3 0x3B1 PUSH3 0x1B7 JUMP JUMPDEST JUMPDEST PUSH3 0x3C0 DUP6 DUP3 DUP7 ADD PUSH3 0x312 JUMP JUMPDEST SWAP2 POP POP SWAP3 POP SWAP3 SWAP1 POP JUMP JUMPDEST PUSH1 0x0 DUP2 SWAP1 POP SWAP2 SWAP1 POP JUMP JUMPDEST PUSH32 0x4E487B7100000000000000000000000000000000000000000000000000000000 PUSH1 0x0 MSTORE PUSH1 0x11 PUSH1 0x4 MSTORE PUSH1 0x24 PUSH1 0x0 REVERT JUMPDEST PUSH1 0x0 PUSH3 0x410 DUP3 PUSH3 0x3CA JUMP JUMPDEST SWAP2 POP PUSH3 0x41D DUP4 PUSH3 0x3CA JUMP JUMPDEST SWAP3 POP DUP2 PUSH32 0xFFFFFFFFFFFFFFFFFFFFFFFFFFFFFFFFFFFFFFFFFFFFFFFFFFFFFFFFFFFFFFFF DIV DUP4 GT DUP3 ISZERO ISZERO AND ISZERO PUSH3 0x459 JUMPI PUSH3 0x458 PUSH3 0x3D4 JUMP JUMPDEST JUMPDEST DUP3 DUP3 MUL SWAP1 POP SWAP3 SWAP2 POP POP JUMP JUMPDEST PUSH32 0x4E487B7100000000000000000000000000000000000000000000000000000000 PUSH1 0x0 MSTORE PUSH1 0x22 PUSH1 0x4 MSTORE PUSH1 0x24 PUSH1 0x0 REVERT JUMPDEST PUSH1 0x0 PUSH1 0x2 DUP3 DIV SWAP1 POP PUSH1 0x1 DUP3 AND DUP1 PUSH3 0x4AC JUMPI PUSH1 0x7F DUP3 AND SWAP2 POP JUMPDEST PUSH1 0x20 DUP3 LT DUP2 EQ ISZERO PUSH3 0x4C3 JUMPI PUSH3 0x4C2 PUSH3 0x464 JUMP JUMPDEST JUMPDEST POP SWAP2 SWAP1 POP JUMP JUMPDEST PUSH2 0x1702 DUP1 PUSH3 0x4D9 PUSH1 0x0 CODECOPY PUSH1 0x0 RETURN INVALID PUSH1 0x80 PUSH1 0x40 MSTORE CALLVALUE DUP1 ISZERO PUSH2 0x10 JUMPI PUSH1 0x0 DUP1 REVERT JUMPDEST POP PUSH1 0x4 CALLDATASIZE LT PUSH2 0xEA JUMPI PUSH1 0x0 CALLDATALOAD PUSH1 0xE0 SHR DUP1 PUSH4 0x3EAAF86B GT PUSH2 0x8C JUMPI DUP1 PUSH4 0xA9059CBB GT PUSH2 0x66 JUMPI DUP1 PUSH4 0xA9059CBB EQ PUSH2 0x263 JUMPI DUP1 PUSH4 0xB09F1266 EQ PUSH2 0x293 JUMPI DUP1 PUSH4 0xD28D8852 EQ PUSH2 0x2B1 JUMPI DUP1 PUSH4 0xDD62ED3E EQ PUSH2 0x2CF JUMPI PUSH2 0xEA JUMP JUMPDEST DUP1 PUSH4 0x3EAAF86B EQ PUSH2 0x1F7 JUMPI DUP1 PUSH4 0x70A08231 EQ PUSH2 0x215 JUMPI DUP1 PUSH4 0x95D89B41 EQ PUSH2 0x245 JUMPI PUSH2 0xEA JUMP JUMPDEST DUP1 PUSH4 0x18160DDD GT PUSH2 0xC8 JUMPI DUP1 PUSH4 0x18160DDD EQ PUSH2 0x16D JUMPI DUP1 PUSH4 0x23B872DD EQ PUSH2 0x18B JUMPI DUP1 PUSH4 0x313CE567 EQ PUSH2 0x1BB JUMPI DUP1 PUSH4 0x32424AA3 EQ PUSH2 0x1D9 JUMPI PUSH2 0xEA JUMP JUMPDEST DUP1 PUSH4 0x24C2DDD EQ PUSH2 0xEF JUMPI DUP1 PUSH4 0x6FDDE03 EQ PUSH2 0x11F JUMPI DUP1 PUSH4 0x95EA7B3 EQ PUSH2 0x13D JUMPI JUMPDEST PUSH1 0x0 DUP1 REVERT JUMPDEST PUSH2 0x109 PUSH1 0x4 DUP1 CALLDATASIZE SUB DUP2 ADD SWAP1 PUSH2 0x104 SWAP2 SWAP1 PUSH2 0xE71 JUMP JUMPDEST PUSH2 0x2FF JUMP JUMPDEST PUSH1 0x40 MLOAD PUSH2 0x116 SWAP2 SWAP1 PUSH2 0xECA JUMP JUMPDEST PUSH1 0x40 MLOAD DUP1 SWAP2 SUB SWAP1 RETURN JUMPDEST PUSH2 0x127 PUSH2 0x324 JUMP JUMPDEST PUSH1 0x40 MLOAD PUSH2 0x134 SWAP2 SWAP1 PUSH2 0xF7E JUMP JUMPDEST PUSH1 0x40 MLOAD DUP1 SWAP2 SUB SWAP1 RETURN JUMPDEST PUSH2 0x157 PUSH1 0x4 DUP1 CALLDATASIZE SUB DUP2 ADD SWAP1 PUSH2 0x152 SWAP2 SWAP1 PUSH2 0xFCC JUMP JUMPDEST PUSH2 0x3B6 JUMP JUMPDEST PUSH1 0x40 MLOAD PUSH2 0x164 SWAP2 SWAP1 PUSH2 0x1027 JUMP JUMPDEST PUSH1 0x40 MLOAD DUP1 SWAP2 SUB SWAP1 RETURN JUMPDEST PUSH2 0x175 PUSH2 0x4D0 JUMP JUMPDEST PUSH1 0x40 MLOAD PUSH2 0x182 SWAP2 SWAP1 PUSH2 0xECA JUMP JUMPDEST PUSH1 0x40 MLOAD DUP1 SWAP2 SUB SWAP1 RETURN JUMPDEST PUSH2 0x1A5 PUSH1 0x4 DUP1 CALLDATASIZE SUB DUP2 ADD SWAP1 PUSH2 0x1A0 SWAP2 SWAP1 PUSH2 0x1042 JUMP JUMPDEST PUSH2 0x4DA JUMP JUMPDEST PUSH1 0x40 MLOAD PUSH2 0x1B2 SWAP2 SWAP1 PUSH2 0x1027 JUMP JUMPDEST PUSH1 0x40 MLOAD DUP1 SWAP2 SUB SWAP1 RETURN JUMPDEST PUSH2 0x1C3 PUSH2 0x64A JUMP JUMPDEST PUSH1 0x40 MLOAD PUSH2 0x1D0 SWAP2 SWAP1 PUSH2 0x10B1 JUMP JUMPDEST PUSH1 0x40 MLOAD DUP1 SWAP2 SUB SWAP1 RETURN JUMPDEST PUSH2 0x1E1 PUSH2 0x661 JUMP JUMPDEST PUSH1 0x40 MLOAD PUSH2 0x1EE SWAP2 SWAP1 PUSH2 0x10B1 JUMP JUMPDEST PUSH1 0x40 MLOAD DUP1 SWAP2 SUB SWAP1 RETURN JUMPDEST PUSH2 0x1FF PUSH2 0x674 JUMP JUMPDEST PUSH1 0x40 MLOAD PUSH2 0x20C SWAP2 SWAP1 PUSH2 0xECA JUMP JUMPDEST PUSH1 0x40 MLOAD DUP1 SWAP2 SUB SWAP1 RETURN JUMPDEST PUSH2 0x22F PUSH1 0x4 DUP1 CALLDATASIZE SUB DUP2 ADD SWAP1 PUSH2 0x22A SWAP2 SWAP1 PUSH2 0x10CC JUMP JUMPDEST PUSH2 0x67A JUMP JUMPDEST PUSH1 0x40 MLOAD PUSH2 0x23C SWAP2 SWAP1 PUSH2 0xECA JUMP JUMPDEST PUSH1 0x40 MLOAD DUP1 SWAP2 SUB SWAP1 RETURN JUMPDEST PUSH2 0x24D PUSH2 0x6C2 JUMP JUMPDEST PUSH1 0x40 MLOAD PUSH2 0x25A SWAP2 SWAP1 PUSH2 0xF7E JUMP JUMPDEST PUSH1 0x40 MLOAD DUP1 SWAP2 SUB SWAP1 RETURN JUMPDEST PUSH2 0x27D PUSH1 0x4 DUP1 CALLDATASIZE SUB DUP2 ADD SWAP1 PUSH2 0x278 SWAP2 SWAP1 PUSH2 0xFCC JUMP JUMPDEST PUSH2 0x754 JUMP JUMPDEST PUSH1 0x40 MLOAD PUSH2 0x28A SWAP2 SWAP1 PUSH2 0x1027 JUMP JUMPDEST PUSH1 0x40 MLOAD DUP1 SWAP2 SUB SWAP1 RETURN JUMPDEST PUSH2 0x29B PUSH2 0x7D0 JUMP JUMPDEST PUSH1 0x40 MLOAD PUSH2 0x2A8 SWAP2 SWAP1 PUSH2 0xF7E JUMP JUMPDEST PUSH1 0x40 MLOAD DUP1 SWAP2 SUB SWAP1 RETURN JUMPDEST PUSH2 0x2B9 PUSH2 0x85E JUMP JUMPDEST PUSH1 0x40 MLOAD PUSH2 0x2C6 SWAP2 SWAP1 PUSH2 0xF7E JUMP JUMPDEST PUSH1 0x40 MLOAD DUP1 SWAP2 SUB SWAP1 RETURN JUMPDEST PUSH2 0x2E9 PUSH1 0x4 DUP1 CALLDATASIZE SUB DUP2 ADD SWAP1 PUSH2 0x2E4 SWAP2 SWAP1 PUSH2 0xE71 JUMP JUMPDEST PUSH2 0x8EC JUMP JUMPDEST PUSH1 0x40 MLOAD PUSH2 0x2F6 SWAP2 SWAP1 PUSH2 0xECA JUMP JUMPDEST PUSH1 0x40 MLOAD DUP1 SWAP2 SUB SWAP1 RETURN JUMPDEST PUSH1 0x1 PUSH1 0x20 MSTORE DUP2 PUSH1 0x0 MSTORE PUSH1 0x40 PUSH1 0x0 KECCAK256 PUSH1 0x20 MSTORE DUP1 PUSH1 0x0 MSTORE PUSH1 0x40 PUSH1 0x0 KECCAK256 PUSH1 0x0 SWAP2 POP SWAP2 POP POP SLOAD DUP2 JUMP JUMPDEST PUSH1 0x60 PUSH1 0x3 DUP1 SLOAD PUSH2 0x333 SWAP1 PUSH2 0x1128 JUMP JUMPDEST DUP1 PUSH1 0x1F ADD PUSH1 0x20 DUP1 SWAP2 DIV MUL PUSH1 0x20 ADD PUSH1 0x40 MLOAD SWAP1 DUP2 ADD PUSH1 0x40 MSTORE DUP1 SWAP3 SWAP2 SWAP1 DUP2 DUP2 MSTORE PUSH1 0x20 ADD DUP3 DUP1 SLOAD PUSH2 0x35F SWAP1 PUSH2 0x1128 JUMP JUMPDEST DUP1 ISZERO PUSH2 0x3AC JUMPI DUP1 PUSH1 0x1F LT PUSH2 0x381 JUMPI PUSH2 0x100 DUP1 DUP4 SLOAD DIV MUL DUP4 MSTORE SWAP2 PUSH1 0x20 ADD SWAP2 PUSH2 0x3AC JUMP JUMPDEST DUP3 ADD SWAP2 SWAP1 PUSH1 0x0 MSTORE PUSH1 0x20 PUSH1 0x0 KECCAK256 SWAP1 JUMPDEST DUP2 SLOAD DUP2 MSTORE SWAP1 PUSH1 0x1 ADD SWAP1 PUSH1 0x20 ADD DUP1 DUP4 GT PUSH2 0x38F JUMPI DUP3 SWAP1 SUB PUSH1 0x1F AND DUP3 ADD SWAP2 JUMPDEST POP POP POP POP POP SWAP1 POP SWAP1 JUMP JUMPDEST PUSH1 0x0 DUP1 PUSH1 0x1 PUSH1 0x0 CALLER PUSH20 0xFFFFFFFFFFFFFFFFFFFFFFFFFFFFFFFFFFFFFFFF AND PUSH20 0xFFFFFFFFFFFFFFFFFFFFFFFFFFFFFFFFFFFFFFFF AND DUP2 MSTORE PUSH1 0x20 ADD SWAP1 DUP2 MSTORE PUSH1 0x20 ADD PUSH1 0x0 KECCAK256 PUSH1 0x0 DUP6 PUSH20 0xFFFFFFFFFFFFFFFFFFFFFFFFFFFFFFFFFFFFFFFF AND PUSH20 0xFFFFFFFFFFFFFFFFFFFFFFFFFFFFFFFFFFFFFFFF AND DUP2 MSTORE PUSH1 0x20 ADD SWAP1 DUP2 MSTORE PUSH1 0x20 ADD PUSH1 0x0 KECCAK256 SLOAD SWAP1 POP DUP3 PUSH1 0x0 DUP1 CALLER PUSH20 0xFFFFFFFFFFFFFFFFFFFFFFFFFFFFFFFFFFFFFFFF AND PUSH20 0xFFFFFFFFFFFFFFFFFFFFFFFFFFFFFFFFFFFFFFFF AND DUP2 MSTORE PUSH1 0x20 ADD SWAP1 DUP2 MSTORE PUSH1 0x20 ADD PUSH1 0x0 KECCAK256 SLOAD LT ISZERO PUSH2 0x4B9 JUMPI PUSH1 0x40 MLOAD PUSH32 0x8C379A000000000000000000000000000000000000000000000000000000000 DUP2 MSTORE PUSH1 0x4 ADD PUSH2 0x4B0 SWAP1 PUSH2 0x11F2 JUMP JUMPDEST PUSH1 0x40 MLOAD DUP1 SWAP2 SUB SWAP1 REVERT JUMPDEST PUSH2 0x4C5 CALLER DUP6 DUP4 DUP7 PUSH2 0x973 JUMP JUMPDEST PUSH1 0x1 SWAP2 POP POP SWAP3 SWAP2 POP POP JUMP JUMPDEST PUSH1 0x0 PUSH1 0x2 SLOAD SWAP1 POP SWAP1 JUMP JUMPDEST PUSH1 0x0 PUSH2 0x4E7 DUP5 DUP5 DUP5 PUSH2 0xBFF JUMP JUMPDEST DUP3 PUSH20 0xFFFFFFFFFFFFFFFFFFFFFFFFFFFFFFFFFFFFFFFF AND DUP5 PUSH20 0xFFFFFFFFFFFFFFFFFFFFFFFFFFFFFFFFFFFFFFFF AND CALLER PUSH20 0xFFFFFFFFFFFFFFFFFFFFFFFFFFFFFFFFFFFFFFFF AND PUSH32 0xD1398BEE19313D6BF672CCB116E51F4A1A947E91C757907F51FBB5B5E56C698F DUP6 PUSH1 0x40 MLOAD PUSH2 0x55B SWAP2 SWAP1 PUSH2 0xECA JUMP JUMPDEST PUSH1 0x40 MLOAD DUP1 SWAP2 SUB SWAP1 LOG4 PUSH1 0x0 PUSH1 0x1 PUSH1 0x0 DUP7 PUSH20 0xFFFFFFFFFFFFFFFFFFFFFFFFFFFFFFFFFFFFFFFF AND PUSH20 0xFFFFFFFFFFFFFFFFFFFFFFFFFFFFFFFFFFFFFFFF AND DUP2 MSTORE PUSH1 0x20 ADD SWAP1 DUP2 MSTORE PUSH1 0x20 ADD PUSH1 0x0 KECCAK256 PUSH1 0x0 CALLER PUSH20 0xFFFFFFFFFFFFFFFFFFFFFFFFFFFFFFFFFFFFFFFF AND PUSH20 0xFFFFFFFFFFFFFFFFFFFFFFFFFFFFFFFFFFFFFFFF AND DUP2 MSTORE PUSH1 0x20 ADD SWAP1 DUP2 MSTORE PUSH1 0x20 ADD PUSH1 0x0 KECCAK256 SLOAD SWAP1 POP DUP3 DUP2 LT ISZERO PUSH2 0x627 JUMPI PUSH1 0x40 MLOAD PUSH32 0x8C379A000000000000000000000000000000000000000000000000000000000 DUP2 MSTORE PUSH1 0x4 ADD PUSH2 0x61E SWAP1 PUSH2 0x1284 JUMP JUMPDEST PUSH1 0x40 MLOAD DUP1 SWAP2 SUB SWAP1 REVERT JUMPDEST PUSH2 0x63E DUP6 CALLER DUP4 DUP7 DUP6 PUSH2 0x639 SWAP2 SWAP1 PUSH2 0x12D3 JUMP JUMPDEST PUSH2 0x973 JUMP JUMPDEST PUSH1 0x1 SWAP2 POP POP SWAP4 SWAP3 POP POP POP JUMP JUMPDEST PUSH1 0x0 PUSH1 0x5 PUSH1 0x0 SWAP1 SLOAD SWAP1 PUSH2 0x100 EXP SWAP1 DIV PUSH1 0xFF AND SWAP1 POP SWAP1 JUMP JUMPDEST PUSH1 0x5 PUSH1 0x0 SWAP1 SLOAD SWAP1 PUSH2 0x100 EXP SWAP1 DIV PUSH1 0xFF AND DUP2 JUMP JUMPDEST PUSH1 0x2 SLOAD DUP2 JUMP JUMPDEST PUSH1 0x0 DUP1 PUSH1 0x0 DUP4 PUSH20 0xFFFFFFFFFFFFFFFFFFFFFFFFFFFFFFFFFFFFFFFF AND PUSH20 0xFFFFFFFFFFFFFFFFFFFFFFFFFFFFFFFFFFFFFFFF AND DUP2 MSTORE PUSH1 0x20 ADD SWAP1 DUP2 MSTORE PUSH1 0x20 ADD PUSH1 0x0 KECCAK256 SLOAD SWAP1 POP SWAP2 SWAP1 POP JUMP JUMPDEST PUSH1 0x60 PUSH1 0x4 DUP1 SLOAD PUSH2 0x6D1 SWAP1 PUSH2 0x1128 JUMP JUMPDEST DUP1 PUSH1 0x1F ADD PUSH1 0x20 DUP1 SWAP2 DIV MUL PUSH1 0x20 ADD PUSH1 0x40 MLOAD SWAP1 DUP2 ADD PUSH1 0x40 MSTORE DUP1 SWAP3 SWAP2 SWAP1 DUP2 DUP2 MSTORE PUSH1 0x20 ADD DUP3 DUP1 SLOAD PUSH2 0x6FD SWAP1 PUSH2 0x1128 JUMP JUMPDEST DUP1 ISZERO PUSH2 0x74A JUMPI DUP1 PUSH1 0x1F LT PUSH2 0x71F JUMPI PUSH2 0x100 DUP1 DUP4 SLOAD DIV MUL DUP4 MSTORE SWAP2 PUSH1 0x20 ADD SWAP2 PUSH2 0x74A JUMP JUMPDEST DUP3 ADD SWAP2 SWAP1 PUSH1 0x0 MSTORE PUSH1 0x20 PUSH1 0x0 KECCAK256 SWAP1 JUMPDEST DUP2 SLOAD DUP2 MSTORE SWAP1 PUSH1 0x1 ADD SWAP1 PUSH1 0x20 ADD DUP1 DUP4 GT PUSH2 0x72D JUMPI DUP3 SWAP1 SUB PUSH1 0x1F AND DUP3 ADD SWAP2 JUMPDEST POP POP POP POP POP SWAP1 POP SWAP1 JUMP JUMPDEST PUSH1 0x0 PUSH2 0x761 CALLER DUP5 DUP5 PUSH2 0xBFF JUMP JUMPDEST DUP3 PUSH20 0xFFFFFFFFFFFFFFFFFFFFFFFFFFFFFFFFFFFFFFFF AND CALLER PUSH20 0xFFFFFFFFFFFFFFFFFFFFFFFFFFFFFFFFFFFFFFFF AND PUSH32 0xDDF252AD1BE2C89B69C2B068FC378DAA952BA7F163C4A11628F55A4DF523B3EF DUP5 PUSH1 0x40 MLOAD PUSH2 0x7BE SWAP2 SWAP1 PUSH2 0xECA JUMP JUMPDEST PUSH1 0x40 MLOAD DUP1 SWAP2 SUB SWAP1 LOG3 PUSH1 0x1 SWAP1 POP SWAP3 SWAP2 POP POP JUMP JUMPDEST PUSH1 0x4 DUP1 SLOAD PUSH2 0x7DD SWAP1 PUSH2 0x1128 JUMP JUMPDEST DUP1 PUSH1 0x1F ADD PUSH1 0x20 DUP1 SWAP2 DIV MUL PUSH1 0x20 ADD PUSH1 0x40 MLOAD SWAP1 DUP2 ADD PUSH1 0x40 MSTORE DUP1 SWAP3 SWAP2 SWAP1 DUP2 DUP2 MSTORE PUSH1 0x20 ADD DUP3 DUP1 SLOAD PUSH2 0x809 SWAP1 PUSH2 0x1128 JUMP JUMPDEST DUP1 ISZERO PUSH2 0x856 JUMPI DUP1 PUSH1 0x1F LT PUSH2 0x82B JUMPI PUSH2 0x100 DUP1 DUP4 SLOAD DIV MUL DUP4 MSTORE SWAP2 PUSH1 0x20 ADD SWAP2 PUSH2 0x856 JUMP JUMPDEST DUP3 ADD SWAP2 SWAP1 PUSH1 0x0 MSTORE PUSH1 0x20 PUSH1 0x0 KECCAK256 SWAP1 JUMPDEST DUP2 SLOAD DUP2 MSTORE SWAP1 PUSH1 0x1 ADD SWAP1 PUSH1 0x20 ADD DUP1 DUP4 GT PUSH2 0x839 JUMPI DUP3 SWAP1 SUB PUSH1 0x1F AND DUP3 ADD SWAP2 JUMPDEST POP POP POP POP POP DUP2 JUMP JUMPDEST PUSH1 0x3 DUP1 SLOAD PUSH2 0x86B SWAP1 PUSH2 0x1128 JUMP JUMPDEST DUP1 PUSH1 0x1F ADD PUSH1 0x20 DUP1 SWAP2 DIV MUL PUSH1 0x20 ADD PUSH1 0x40 MLOAD SWAP1 DUP2 ADD PUSH1 0x40 MSTORE DUP1 SWAP3 SWAP2 SWAP1 DUP2 DUP2 MSTORE PUSH1 0x20 ADD DUP3 DUP1 SLOAD PUSH2 0x897 SWAP1 PUSH2 0x1128 JUMP JUMPDEST DUP1 ISZERO PUSH2 0x8E4 JUMPI DUP1 PUSH1 0x1F LT PUSH2 0x8B9 JUMPI PUSH2 0x100 DUP1 DUP4 SLOAD DIV MUL DUP4 MSTORE SWAP2 PUSH1 0x20 ADD SWAP2 PUSH2 0x8E4 JUMP JUMPDEST DUP3 ADD SWAP2 SWAP1 PUSH1 0x0 MSTORE PUSH1 0x20 PUSH1 0x0 KECCAK256 SWAP1 JUMPDEST DUP2 SLOAD DUP2 MSTORE SWAP1 PUSH1 0x1 ADD SWAP1 PUSH1 0x20 ADD DUP1 DUP4 GT PUSH2 0x8C7 JUMPI DUP3 SWAP1 SUB PUSH1 0x1F AND DUP3 ADD SWAP2 JUMPDEST POP POP POP POP POP DUP2 JUMP JUMPDEST PUSH1 0x0 PUSH1 0x1 PUSH1 0x0 DUP5 PUSH20 0xFFFFFFFFFFFFFFFFFFFFFFFFFFFFFFFFFFFFFFFF AND PUSH20 0xFFFFFFFFFFFFFFFFFFFFFFFFFFFFFFFFFFFFFFFF AND DUP2 MSTORE PUSH1 0x20 ADD SWAP1 DUP2 MSTORE PUSH1 0x20 ADD PUSH1 0x0 KECCAK256 PUSH1 0x0 DUP4 PUSH20 0xFFFFFFFFFFFFFFFFFFFFFFFFFFFFFFFFFFFFFFFF AND PUSH20 0xFFFFFFFFFFFFFFFFFFFFFFFFFFFFFFFFFFFFFFFF AND DUP2 MSTORE PUSH1 0x20 ADD SWAP1 DUP2 MSTORE PUSH1 0x20 ADD PUSH1 0x0 KECCAK256 SLOAD SWAP1 POP SWAP3 SWAP2 POP POP JUMP JUMPDEST PUSH1 0x0 PUSH20 0xFFFFFFFFFFFFFFFFFFFFFFFFFFFFFFFFFFFFFFFF AND DUP5 PUSH20 0xFFFFFFFFFFFFFFFFFFFFFFFFFFFFFFFFFFFFFFFF AND EQ ISZERO PUSH2 0x9E3 JUMPI PUSH1 0x40 MLOAD PUSH32 0x8C379A000000000000000000000000000000000000000000000000000000000 DUP2 MSTORE PUSH1 0x4 ADD PUSH2 0x9DA SWAP1 PUSH2 0x1379 JUMP JUMPDEST PUSH1 0x40 MLOAD DUP1 SWAP2 SUB SWAP1 REVERT JUMPDEST PUSH1 0x0 PUSH20 0xFFFFFFFFFFFFFFFFFFFFFFFFFFFFFFFFFFFFFFFF AND DUP4 PUSH20 0xFFFFFFFFFFFFFFFFFFFFFFFFFFFFFFFFFFFFFFFF AND EQ ISZERO PUSH2 0xA53 JUMPI PUSH1 0x40 MLOAD PUSH32 0x8C379A000000000000000000000000000000000000000000000000000000000 DUP2 MSTORE PUSH1 0x4 ADD PUSH2 0xA4A SWAP1 PUSH2 0x140B JUMP JUMPDEST PUSH1 0x40 MLOAD DUP1 SWAP2 SUB SWAP1 REVERT JUMPDEST PUSH1 0x1 PUSH1 0x0 DUP6 PUSH20 0xFFFFFFFFFFFFFFFFFFFFFFFFFFFFFFFFFFFFFFFF AND PUSH20 0xFFFFFFFFFFFFFFFFFFFFFFFFFFFFFFFFFFFFFFFF AND DUP2 MSTORE PUSH1 0x20 ADD SWAP1 DUP2 MSTORE PUSH1 0x20 ADD PUSH1 0x0 KECCAK256 PUSH1 0x0 DUP5 PUSH20 0xFFFFFFFFFFFFFFFFFFFFFFFFFFFFFFFFFFFFFFFF AND PUSH20 0xFFFFFFFFFFFFFFFFFFFFFFFFFFFFFFFFFFFFFFFF AND DUP2 MSTORE PUSH1 0x20 ADD SWAP1 DUP2 MSTORE PUSH1 0x20 ADD PUSH1 0x0 KECCAK256 SLOAD DUP3 EQ PUSH2 0xB11 JUMPI PUSH1 0x40 MLOAD PUSH32 0x8C379A000000000000000000000000000000000000000000000000000000000 DUP2 MSTORE PUSH1 0x4 ADD PUSH2 0xB08 SWAP1 PUSH2 0x1477 JUMP JUMPDEST PUSH1 0x40 MLOAD DUP1 SWAP2 SUB SWAP1 REVERT JUMPDEST DUP1 PUSH1 0x1 PUSH1 0x0 DUP7 PUSH20 0xFFFFFFFFFFFFFFFFFFFFFFFFFFFFFFFFFFFFFFFF AND PUSH20 0xFFFFFFFFFFFFFFFFFFFFFFFFFFFFFFFFFFFFFFFF AND DUP2 MSTORE PUSH1 0x20 ADD SWAP1 DUP2 MSTORE PUSH1 0x20 ADD PUSH1 0x0 KECCAK256 PUSH1 0x0 DUP6 PUSH20 0xFFFFFFFFFFFFFFFFFFFFFFFFFFFFFFFFFFFFFFFF AND PUSH20 0xFFFFFFFFFFFFFFFFFFFFFFFFFFFFFFFFFFFFFFFF AND DUP2 MSTORE PUSH1 0x20 ADD SWAP1 DUP2 MSTORE PUSH1 0x20 ADD PUSH1 0x0 KECCAK256 DUP2 SWAP1 SSTORE POP DUP3 PUSH20 0xFFFFFFFFFFFFFFFFFFFFFFFFFFFFFFFFFFFFFFFF AND DUP5 PUSH20 0xFFFFFFFFFFFFFFFFFFFFFFFFFFFFFFFFFFFFFFFF AND PUSH32 0xB3FD5071835887567A0671151121894DDCCC2842F1D10BEDAD13E0D17CACE9A7 DUP5 DUP5 PUSH1 0x40 MLOAD PUSH2 0xBF1 SWAP3 SWAP2 SWAP1 PUSH2 0x1497 JUMP JUMPDEST PUSH1 0x40 MLOAD DUP1 SWAP2 SUB SWAP1 LOG3 POP POP POP POP JUMP JUMPDEST PUSH1 0x0 PUSH20 0xFFFFFFFFFFFFFFFFFFFFFFFFFFFFFFFFFFFFFFFF AND DUP4 PUSH20 0xFFFFFFFFFFFFFFFFFFFFFFFFFFFFFFFFFFFFFFFF AND EQ ISZERO PUSH2 0xC6F JUMPI PUSH1 0x40 MLOAD PUSH32 0x8C379A000000000000000000000000000000000000000000000000000000000 DUP2 MSTORE PUSH1 0x4 ADD PUSH2 0xC66 SWAP1 PUSH2 0x1532 JUMP JUMPDEST PUSH1 0x40 MLOAD DUP1 SWAP2 SUB SWAP1 REVERT JUMPDEST PUSH1 0x0 PUSH20 0xFFFFFFFFFFFFFFFFFFFFFFFFFFFFFFFFFFFFFFFF AND DUP3 PUSH20 0xFFFFFFFFFFFFFFFFFFFFFFFFFFFFFFFFFFFFFFFF AND EQ ISZERO PUSH2 0xCDF JUMPI PUSH1 0x40 MLOAD PUSH32 0x8C379A000000000000000000000000000000000000000000000000000000000 DUP2 MSTORE PUSH1 0x4 ADD PUSH2 0xCD6 SWAP1 PUSH2 0x15C4 JUMP JUMPDEST PUSH1 0x40 MLOAD DUP1 SWAP2 SUB SWAP1 REVERT JUMPDEST PUSH1 0x0 DUP1 PUSH1 0x0 DUP6 PUSH20 0xFFFFFFFFFFFFFFFFFFFFFFFFFFFFFFFFFFFFFFFF AND PUSH20 0xFFFFFFFFFFFFFFFFFFFFFFFFFFFFFFFFFFFFFFFF AND DUP2 MSTORE PUSH1 0x20 ADD SWAP1 DUP2 MSTORE PUSH1 0x20 ADD PUSH1 0x0 KECCAK256 SLOAD SWAP1 POP DUP2 DUP2 LT ISZERO PUSH2 0xD65 JUMPI PUSH1 0x40 MLOAD PUSH32 0x8C379A000000000000000000000000000000000000000000000000000000000 DUP2 MSTORE PUSH1 0x4 ADD PUSH2 0xD5C SWAP1 PUSH2 0x1656 JUMP JUMPDEST PUSH1 0x40 MLOAD DUP1 SWAP2 SUB SWAP1 REVERT JUMPDEST DUP2 DUP2 PUSH2 0xD71 SWAP2 SWAP1 PUSH2 0x12D3 JUMP JUMPDEST PUSH1 0x0 DUP1 DUP7 PUSH20 0xFFFFFFFFFFFFFFFFFFFFFFFFFFFFFFFFFFFFFFFF AND PUSH20 0xFFFFFFFFFFFFFFFFFFFFFFFFFFFFFFFFFFFFFFFF AND DUP2 MSTORE PUSH1 0x20 ADD SWAP1 DUP2 MSTORE PUSH1 0x20 ADD PUSH1 0x0 KECCAK256 DUP2 SWAP1 SSTORE POP DUP2 PUSH1 0x0 DUP1 DUP6 PUSH20 0xFFFFFFFFFFFFFFFFFFFFFFFFFFFFFFFFFFFFFFFF AND PUSH20 0xFFFFFFFFFFFFFFFFFFFFFFFFFFFFFFFFFFFFFFFF AND DUP2 MSTORE PUSH1 0x20 ADD SWAP1 DUP2 MSTORE PUSH1 0x20 ADD PUSH1 0x0 KECCAK256 PUSH1 0x0 DUP3 DUP3 SLOAD PUSH2 0xE01 SWAP2 SWAP1 PUSH2 0x1676 JUMP JUMPDEST SWAP3 POP POP DUP2 SWAP1 SSTORE POP POP POP POP POP JUMP JUMPDEST PUSH1 0x0 DUP1 REVERT JUMPDEST PUSH1 0x0 PUSH20 0xFFFFFFFFFFFFFFFFFFFFFFFFFFFFFFFFFFFFFFFF DUP3 AND SWAP1 POP SWAP2 SWAP1 POP JUMP JUMPDEST PUSH1 0x0 PUSH2 0xE3E DUP3 PUSH2 0xE13 JUMP JUMPDEST SWAP1 POP SWAP2 SWAP1 POP JUMP JUMPDEST PUSH2 0xE4E DUP2 PUSH2 0xE33 JUMP JUMPDEST DUP2 EQ PUSH2 0xE59 JUMPI PUSH1 0x0 DUP1 REVERT JUMPDEST POP JUMP JUMPDEST PUSH1 0x0 DUP2 CALLDATALOAD SWAP1 POP PUSH2 0xE6B DUP2 PUSH2 0xE45 JUMP JUMPDEST SWAP3 SWAP2 POP POP JUMP JUMPDEST PUSH1 0x0 DUP1 PUSH1 0x40 DUP4 DUP6 SUB SLT ISZERO PUSH2 0xE88 JUMPI PUSH2 0xE87 PUSH2 0xE0E JUMP JUMPDEST JUMPDEST PUSH1 0x0 PUSH2 0xE96 DUP6 DUP3 DUP7 ADD PUSH2 0xE5C JUMP JUMPDEST SWAP3 POP POP PUSH1 0x20 PUSH2 0xEA7 DUP6 DUP3 DUP7 ADD PUSH2 0xE5C JUMP JUMPDEST SWAP2 POP POP SWAP3 POP SWAP3 SWAP1 POP JUMP JUMPDEST PUSH1 0x0 DUP2 SWAP1 POP SWAP2 SWAP1 POP JUMP JUMPDEST PUSH2 0xEC4 DUP2 PUSH2 0xEB1 JUMP JUMPDEST DUP3 MSTORE POP POP JUMP JUMPDEST PUSH1 0x0 PUSH1 0x20 DUP3 ADD SWAP1 POP PUSH2 0xEDF PUSH1 0x0 DUP4 ADD DUP5 PUSH2 0xEBB JUMP JUMPDEST SWAP3 SWAP2 POP POP JUMP JUMPDEST PUSH1 0x0 DUP2 MLOAD SWAP1 POP SWAP2 SWAP1 POP JUMP JUMPDEST PUSH1 0x0 DUP3 DUP3 MSTORE PUSH1 0x20 DUP3 ADD SWAP1 POP SWAP3 SWAP2 POP POP JUMP JUMPDEST PUSH1 0x0 JUMPDEST DUP4 DUP2 LT ISZERO PUSH2 0xF1F JUMPI DUP1 DUP3 ADD MLOAD DUP2 DUP5 ADD MSTORE PUSH1 0x20 DUP2 ADD SWAP1 POP PUSH2 0xF04 JUMP JUMPDEST DUP4 DUP2 GT ISZERO PUSH2 0xF2E JUMPI PUSH1 0x0 DUP5 DUP5 ADD MSTORE JUMPDEST POP POP POP POP JUMP JUMPDEST PUSH1 0x0 PUSH1 0x1F NOT PUSH1 0x1F DUP4 ADD AND SWAP1 POP SWAP2 SWAP1 POP JUMP JUMPDEST PUSH1 0x0 PUSH2 0xF50 DUP3 PUSH2 0xEE5 JUMP JUMPDEST PUSH2 0xF5A DUP2 DUP6 PUSH2 0xEF0 JUMP JUMPDEST SWAP4 POP PUSH2 0xF6A DUP2 DUP6 PUSH1 0x20 DUP7 ADD PUSH2 0xF01 JUMP JUMPDEST PUSH2 0xF73 DUP2 PUSH2 0xF34 JUMP JUMPDEST DUP5 ADD SWAP2 POP POP SWAP3 SWAP2 POP POP JUMP JUMPDEST PUSH1 0x0 PUSH1 0x20 DUP3 ADD SWAP1 POP DUP2 DUP2 SUB PUSH1 0x0 DUP4 ADD MSTORE PUSH2 0xF98 DUP2 DUP5 PUSH2 0xF45 JUMP JUMPDEST SWAP1 POP SWAP3 SWAP2 POP POP JUMP JUMPDEST PUSH2 0xFA9 DUP2 PUSH2 0xEB1 JUMP JUMPDEST DUP2 EQ PUSH2 0xFB4 JUMPI PUSH1 0x0 DUP1 REVERT JUMPDEST POP JUMP JUMPDEST PUSH1 0x0 DUP2 CALLDATALOAD SWAP1 POP PUSH2 0xFC6 DUP2 PUSH2 0xFA0 JUMP JUMPDEST SWAP3 SWAP2 POP POP JUMP JUMPDEST PUSH1 0x0 DUP1 PUSH1 0x40 DUP4 DUP6 SUB SLT ISZERO PUSH2 0xFE3 JUMPI PUSH2 0xFE2 PUSH2 0xE0E JUMP JUMPDEST JUMPDEST PUSH1 0x0 PUSH2 0xFF1 DUP6 DUP3 DUP7 ADD PUSH2 0xE5C JUMP JUMPDEST SWAP3 POP POP PUSH1 0x20 PUSH2 0x1002 DUP6 DUP3 DUP7 ADD PUSH2 0xFB7 JUMP JUMPDEST SWAP2 POP POP SWAP3 POP SWAP3 SWAP1 POP JUMP JUMPDEST PUSH1 0x0 DUP2 ISZERO ISZERO SWAP1 POP SWAP2 SWAP1 POP JUMP JUMPDEST PUSH2 0x1021 DUP2 PUSH2 0x100C JUMP JUMPDEST DUP3 MSTORE POP POP JUMP JUMPDEST PUSH1 0x0 PUSH1 0x20 DUP3 ADD SWAP1 POP PUSH2 0x103C PUSH1 0x0 DUP4 ADD DUP5 PUSH2 0x1018 JUMP JUMPDEST SWAP3 SWAP2 POP POP JUMP JUMPDEST PUSH1 0x0 DUP1 PUSH1 0x0 PUSH1 0x60 DUP5 DUP7 SUB SLT ISZERO PUSH2 0x105B JUMPI PUSH2 0x105A PUSH2 0xE0E JUMP JUMPDEST JUMPDEST PUSH1 0x0 PUSH2 0x1069 DUP7 DUP3 DUP8 ADD PUSH2 0xE5C JUMP JUMPDEST SWAP4 POP POP PUSH1 0x20 PUSH2 0x107A DUP7 DUP3 DUP8 ADD PUSH2 0xE5C JUMP JUMPDEST SWAP3 POP POP PUSH1 0x40 PUSH2 0x108B DUP7 DUP3 DUP8 ADD PUSH2 0xFB7 JUMP JUMPDEST SWAP2 POP POP SWAP3 POP SWAP3 POP SWAP3 JUMP JUMPDEST PUSH1 0x0 PUSH1 0xFF DUP3 AND SWAP1 POP SWAP2 SWAP1 POP JUMP JUMPDEST PUSH2 0x10AB DUP2 PUSH2 0x1095 JUMP JUMPDEST DUP3 MSTORE POP POP JUMP JUMPDEST PUSH1 0x0 PUSH1 0x20 DUP3 ADD SWAP1 POP PUSH2 0x10C6 PUSH1 0x0 DUP4 ADD DUP5 PUSH2 0x10A2 JUMP JUMPDEST SWAP3 SWAP2 POP POP JUMP JUMPDEST PUSH1 0x0 PUSH1 0x20 DUP3 DUP5 SUB SLT ISZERO PUSH2 0x10E2 JUMPI PUSH2 0x10E1 PUSH2 0xE0E JUMP JUMPDEST JUMPDEST PUSH1 0x0 PUSH2 0x10F0 DUP5 DUP3 DUP6 ADD PUSH2 0xE5C JUMP JUMPDEST SWAP2 POP POP SWAP3 SWAP2 POP POP JUMP JUMPDEST PUSH32 0x4E487B7100000000000000000000000000000000000000000000000000000000 PUSH1 0x0 MSTORE PUSH1 0x22 PUSH1 0x4 MSTORE PUSH1 0x24 PUSH1 0x0 REVERT JUMPDEST PUSH1 0x0 PUSH1 0x2 DUP3 DIV SWAP1 POP PUSH1 0x1 DUP3 AND DUP1 PUSH2 0x1140 JUMPI PUSH1 0x7F DUP3 AND SWAP2 POP JUMPDEST PUSH1 0x20 DUP3 LT DUP2 EQ ISZERO PUSH2 0x1154 JUMPI PUSH2 0x1153 PUSH2 0x10F9 JUMP JUMPDEST JUMPDEST POP SWAP2 SWAP1 POP JUMP JUMPDEST PUSH32 0x45524332303A2054686520616D6F756E7420746F206265207472616E73666572 PUSH1 0x0 DUP3 ADD MSTORE PUSH32 0x72656420657863656564732074686520616D6F756E74206F6620746F6B656E73 PUSH1 0x20 DUP3 ADD MSTORE PUSH32 0x2068656C6420627920746865206F776E65722E00000000000000000000000000 PUSH1 0x40 DUP3 ADD MSTORE POP JUMP JUMPDEST PUSH1 0x0 PUSH2 0x11DC PUSH1 0x53 DUP4 PUSH2 0xEF0 JUMP JUMPDEST SWAP2 POP PUSH2 0x11E7 DUP3 PUSH2 0x115A JUMP JUMPDEST PUSH1 0x60 DUP3 ADD SWAP1 POP SWAP2 SWAP1 POP JUMP JUMPDEST PUSH1 0x0 PUSH1 0x20 DUP3 ADD SWAP1 POP DUP2 DUP2 SUB PUSH1 0x0 DUP4 ADD MSTORE PUSH2 0x120B DUP2 PUSH2 0x11CF JUMP JUMPDEST SWAP1 POP SWAP2 SWAP1 POP JUMP JUMPDEST PUSH32 0x45524332303A207472616E7366657220616D6F756E7420657863656564732061 PUSH1 0x0 DUP3 ADD MSTORE PUSH32 0x6C6C6F77616E6365000000000000000000000000000000000000000000000000 PUSH1 0x20 DUP3 ADD MSTORE POP JUMP JUMPDEST PUSH1 0x0 PUSH2 0x126E PUSH1 0x28 DUP4 PUSH2 0xEF0 JUMP JUMPDEST SWAP2 POP PUSH2 0x1279 DUP3 PUSH2 0x1212 JUMP JUMPDEST PUSH1 0x40 DUP3 ADD SWAP1 POP SWAP2 SWAP1 POP JUMP JUMPDEST PUSH1 0x0 PUSH1 0x20 DUP3 ADD SWAP1 POP DUP2 DUP2 SUB PUSH1 0x0 DUP4 ADD MSTORE PUSH2 0x129D DUP2 PUSH2 0x1261 JUMP JUMPDEST SWAP1 POP SWAP2 SWAP1 POP JUMP JUMPDEST PUSH32 0x4E487B7100000000000000000000000000000000000000000000000000000000 PUSH1 0x0 MSTORE PUSH1 0x11 PUSH1 0x4 MSTORE PUSH1 0x24 PUSH1 0x0 REVERT JUMPDEST PUSH1 0x0 PUSH2 0x12DE DUP3 PUSH2 0xEB1 JUMP JUMPDEST SWAP2 POP PUSH2 0x12E9 DUP4 PUSH2 0xEB1 JUMP JUMPDEST SWAP3 POP DUP3 DUP3 LT ISZERO PUSH2 0x12FC JUMPI PUSH2 0x12FB PUSH2 0x12A4 JUMP JUMPDEST JUMPDEST DUP3 DUP3 SUB SWAP1 POP SWAP3 SWAP2 POP POP JUMP JUMPDEST PUSH32 0x45524332303A20617070726F76652066726F6D20746865207A65726F20616464 PUSH1 0x0 DUP3 ADD MSTORE PUSH32 0x7265737300000000000000000000000000000000000000000000000000000000 PUSH1 0x20 DUP3 ADD MSTORE POP JUMP JUMPDEST PUSH1 0x0 PUSH2 0x1363 PUSH1 0x24 DUP4 PUSH2 0xEF0 JUMP JUMPDEST SWAP2 POP PUSH2 0x136E DUP3 PUSH2 0x1307 JUMP JUMPDEST PUSH1 0x40 DUP3 ADD SWAP1 POP SWAP2 SWAP1 POP JUMP JUMPDEST PUSH1 0x0 PUSH1 0x20 DUP3 ADD SWAP1 POP DUP2 DUP2 SUB PUSH1 0x0 DUP4 ADD MSTORE PUSH2 0x1392 DUP2 PUSH2 0x1356 JUMP JUMPDEST SWAP1 POP SWAP2 SWAP1 POP JUMP JUMPDEST PUSH32 0x45524332303A20617070726F766520746F20746865207A65726F206164647265 PUSH1 0x0 DUP3 ADD MSTORE PUSH32 0x7373000000000000000000000000000000000000000000000000000000000000 PUSH1 0x20 DUP3 ADD MSTORE POP JUMP JUMPDEST PUSH1 0x0 PUSH2 0x13F5 PUSH1 0x22 DUP4 PUSH2 0xEF0 JUMP JUMPDEST SWAP2 POP PUSH2 0x1400 DUP3 PUSH2 0x1399 JUMP JUMPDEST PUSH1 0x40 DUP3 ADD SWAP1 POP SWAP2 SWAP1 POP JUMP JUMPDEST PUSH1 0x0 PUSH1 0x20 DUP3 ADD SWAP1 POP DUP2 DUP2 SUB PUSH1 0x0 DUP4 ADD MSTORE PUSH2 0x1424 DUP2 PUSH2 0x13E8 JUMP JUMPDEST SWAP1 POP SWAP2 SWAP1 POP JUMP JUMPDEST PUSH32 0x45524332303A20696E76616C69642063757272656E74416D6F756E7400000000 PUSH1 0x0 DUP3 ADD MSTORE POP JUMP JUMPDEST PUSH1 0x0 PUSH2 0x1461 PUSH1 0x1C DUP4 PUSH2 0xEF0 JUMP JUMPDEST SWAP2 POP PUSH2 0x146C DUP3 PUSH2 0x142B JUMP JUMPDEST PUSH1 0x20 DUP3 ADD SWAP1 POP SWAP2 SWAP1 POP JUMP JUMPDEST PUSH1 0x0 PUSH1 0x20 DUP3 ADD SWAP1 POP DUP2 DUP2 SUB PUSH1 0x0 DUP4 ADD MSTORE PUSH2 0x1490 DUP2 PUSH2 0x1454 JUMP JUMPDEST SWAP1 POP SWAP2 SWAP1 POP JUMP JUMPDEST PUSH1 0x0 PUSH1 0x40 DUP3 ADD SWAP1 POP PUSH2 0x14AC PUSH1 0x0 DUP4 ADD DUP6 PUSH2 0xEBB JUMP JUMPDEST PUSH2 0x14B9 PUSH1 0x20 DUP4 ADD DUP5 PUSH2 0xEBB JUMP JUMPDEST SWAP4 SWAP3 POP POP POP JUMP JUMPDEST PUSH32 0x45524332303A207472616E736665722066726F6D20746865207A65726F206164 PUSH1 0x0 DUP3 ADD MSTORE PUSH32 0x6472657373000000000000000000000000000000000000000000000000000000 PUSH1 0x20 DUP3 ADD MSTORE POP JUMP JUMPDEST PUSH1 0x0 PUSH2 0x151C PUSH1 0x25 DUP4 PUSH2 0xEF0 JUMP JUMPDEST SWAP2 POP PUSH2 0x1527 DUP3 PUSH2 0x14C0 JUMP JUMPDEST PUSH1 0x40 DUP3 ADD SWAP1 POP SWAP2 SWAP1 POP JUMP JUMPDEST PUSH1 0x0 PUSH1 0x20 DUP3 ADD SWAP1 POP DUP2 DUP2 SUB PUSH1 0x0 DUP4 ADD MSTORE PUSH2 0x154B DUP2 PUSH2 0x150F JUMP JUMPDEST SWAP1 POP SWAP2 SWAP1 POP JUMP JUMPDEST PUSH32 0x45524332303A207472616E7366657220746F20746865207A65726F2061646472 PUSH1 0x0 DUP3 ADD MSTORE PUSH32 0x6573730000000000000000000000000000000000000000000000000000000000 PUSH1 0x20 DUP3 ADD MSTORE POP JUMP JUMPDEST PUSH1 0x0 PUSH2 0x15AE PUSH1 0x23 DUP4 PUSH2 0xEF0 JUMP JUMPDEST SWAP2 POP PUSH2 0x15B9 DUP3 PUSH2 0x1552 JUMP JUMPDEST PUSH1 0x40 DUP3 ADD SWAP1 POP SWAP2 SWAP1 POP JUMP JUMPDEST PUSH1 0x0 PUSH1 0x20 DUP3 ADD SWAP1 POP DUP2 DUP2 SUB PUSH1 0x0 DUP4 ADD MSTORE PUSH2 0x15DD DUP2 PUSH2 0x15A1 JUMP JUMPDEST SWAP1 POP SWAP2 SWAP1 POP JUMP JUMPDEST PUSH32 0x45524332303A207472616E7366657220616D6F756E7420657863656564732062 PUSH1 0x0 DUP3 ADD MSTORE PUSH32 0x616C616E63650000000000000000000000000000000000000000000000000000 PUSH1 0x20 DUP3 ADD MSTORE POP JUMP JUMPDEST PUSH1 0x0 PUSH2 0x1640 PUSH1 0x26 DUP4 PUSH2 0xEF0 JUMP JUMPDEST SWAP2 POP PUSH2 0x164B DUP3 PUSH2 0x15E4 JUMP JUMPDEST PUSH1 0x40 DUP3 ADD SWAP1 POP SWAP2 SWAP1 POP JUMP JUMPDEST PUSH1 0x0 PUSH1 0x20 DUP3 ADD SWAP1 POP DUP2 DUP2 SUB PUSH1 0x0 DUP4 ADD MSTORE PUSH2 0x166F DUP2 PUSH2 0x1633 JUMP JUMPDEST SWAP1 POP SWAP2 SWAP1 POP JUMP JUMPDEST PUSH1 0x0 PUSH2 0x1681 DUP3 PUSH2 0xEB1 JUMP JUMPDEST SWAP2 POP PUSH2 0x168C DUP4 PUSH2 0xEB1 JUMP JUMPDEST SWAP3 POP DUP3 PUSH32 0xFFFFFFFFFFFFFFFFFFFFFFFFFFFFFFFFFFFFFFFFFFFFFFFFFFFFFFFFFFFFFFFF SUB DUP3 GT ISZERO PUSH2 0x16C1 JUMPI PUSH2 0x16C0 PUSH2 0x12A4 JUMP JUMPDEST JUMPDEST DUP3 DUP3 ADD SWAP1 POP SWAP3 SWAP2 POP POP JUMP INVALID LOG2 PUSH5 0x6970667358 0x22 SLT KECCAK256 0xD8 PUSH21 0x82280121047819A9899F668F0D10DE7B74BC3988F3 CODESIZE SLOAD 0xF6 SHR MUL 0xC 0xB7 0xB9 0xEB PUSH5 0x736F6C6343 STOP ADDMOD EXP STOP CALLER "
				},
				"gasEstimates": {
					"creation": {
						"codeDepositCost": "1178000",
						"executionCost": "infinite",
						"totalCost": "infinite"
					},
					"external": {
						"_allowances(address,address)": "infinite",
						"_decimals()": "2560",
						"_name()": "infinite",
						"_symbol()": "infinite",
						"_totalSupply()": "2452",
						"allowance(address,address)": "infinite",
						"approve(address,uint256)": "infinite",
						"balanceOf(address)": "2886",
						"decimals()": "2546",
						"name()": "infinite",
						"symbol()": "infinite",
						"totalSupply()": "2460",
						"transfer(address,uint256)": "infinite",
						"transferFrom(address,address,uint256)": "infinite"
					},
					"internal": {
						"_approve(address,address,uint256,uint256)": "infinite",
						"_transfer(address,address,uint256)": "infinite"
					}
				},
				"methodIdentifiers": {
					"_allowances(address,address)": "024c2ddd",
					"_decimals()": "32424aa3",
					"_name()": "d28d8852",
					"_symbol()": "b09f1266",
					"_totalSupply()": "3eaaf86b",
					"allowance(address,address)": "dd62ed3e",
					"approve(address,uint256)": "095ea7b3",
					"balanceOf(address)": "70a08231",
					"decimals()": "313ce567",
					"name()": "06fdde03",
					"symbol()": "95d89b41",
					"totalSupply()": "18160ddd",
					"transfer(address,uint256)": "a9059cbb",
					"transferFrom(address,address,uint256)": "23b872dd"
				}
			},
			"storageLayout": {
				"storage": [
					{
						"astId": 86,
						"contract": "SimpleToken.sol:SimpleToken",
						"label": "_balances",
						"offset": 0,
						"slot": "0",
						"type": "t_mapping(t_address,t_uint256)"
					},
					{
						"astId": 92,
						"contract": "SimpleToken.sol:SimpleToken",
						"label": "_allowances",
						"offset": 0,
						"slot": "1",
						"type": "t_mapping(t_address,t_mapping(t_address,t_uint256))"
					},
					{
						"astId": 94,
						"contract": "SimpleToken.sol:SimpleToken",
						"label": "_totalSupply",
						"offset": 0,
						"slot": "2",
						"type": "t_uint256"
					},
					{
						"astId": 96,
						"contract": "SimpleToken.sol:SimpleToken",
						"label": "_name",
						"offset": 0,
						"slot": "3",
						"type": "t_string_storage"
					},
					{
						"astId": 98,
						"contract": "SimpleToken.sol:SimpleToken",
						"label": "_symbol",
						"offset": 0,
						"slot": "4",
						"type": "t_string_storage"
					},
					{
						"astId": 100,
						"contract": "SimpleToken.sol:SimpleToken",
						"label": "_decimals",
						"offset": 0,
						"slot": "5",
						"type": "t_uint8"
					},
					{
						"astId": 103,
						"contract": "SimpleToken.sol:SimpleToken",
						"label": "E18",
						"offset": 0,
						"slot": "6",
						"type": "t_uint256"
					}
				],
				"types": {
					"t_address": {
						"encoding": "inplace",
						"label": "address",
						"numberOfBytes": "20"
					},
					"t_mapping(t_address,t_mapping(t_address,t_uint256))": {
						"encoding": "mapping",
						"key": "t_address",
						"label": "mapping(address => mapping(address => uint256))",
						"numberOfBytes": "32",
						"value": "t_mapping(t_address,t_uint256)"
					},
					"t_mapping(t_address,t_uint256)": {
						"encoding": "mapping",
						"key": "t_address",
						"label": "mapping(address => uint256)",
						"numberOfBytes": "32",
						"value": "t_uint256"
					},
					"t_string_storage": {
						"encoding": "bytes",
						"label": "string",
						"numberOfBytes": "32"
					},
					"t_uint256": {
						"encoding": "inplace",
						"label": "uint256",
						"numberOfBytes": "32"
					},
					"t_uint8": {
						"encoding": "inplace",
						"label": "uint8",
						"numberOfBytes": "1"
					}
				}
			},
			"userdoc": {
				"kind": "user",
				"methods": {},
				"version": 1
			}
		}
	}
}